:020000040000FA
:10000000A0C60720AD020000B5020000B702000044
:10001000B9020000BB020000BD02000000000000A9
:1000200000000000000000000000000015020000B9
:10003000C10200000000000059020000C188000059
:10004000C7020000298A0000718A00002D8B000081
:100050007D8B0000DD900000C70200008191000050
:10006000C7020000C7020000592C0000C7020000B0
:10007000C7020000C7020000C7020000C70200005C
:10008000C7020000C7020000C70200007528000078
:10009000C7020000C7020000C7020000C70200003C
:1000A000C7020000C7020000C7020000C70200002C
:1000B000C7020000C7020000C7020000C70200001C
:1000C000C7020000C7020000C702000000F002F8EB
:1000D00000F090F80AA090E8000C82448344AAF152
:1000E0000107DA4501D100F085F8AFF2090EBAE850
:1000F0000F0013F0010F18BFFB1A43F0010318475C
:10010000B4E50000E4E50000103A24BF78C878C1E7
:10011000FAD8520724BF30C830C144BF04680C600D
:10012000704700000023002400250026103A28BF55
:1001300078C1FBD8520728BF30C148BF0B60704759
:100140006E2900F0A683702900F0FF8466290AF06A
:10015000178365290AF0148367290AF0118361293E
:10016000AFF3008003681B0A28BF41F080016929B2
:1001700000F03E81642900F03B81752900F0388150
:100180006F2900F08D84782900F0CB84E92900F0F4
:100190002784E42900F02484F52900F02184EF2944
:1001A00000F08A84F82900F0CA840368DB0928BFBC
:1001B00041F08001632900F0A883732900F0AD832A
:1001C000E32900F05B87F32900F060870020704787
:1001D0001FB500F0ADFF0400002000210AF0BAFABC
:1001E000401C6060002000210AF09EFAE0601FBD04
:1001F00010B510BD00F06EFF1146FFF7E9FF09F0E2
:10020000DBF901F047F803B4FFF7F2FF03BC01F09C
:100210008FF80000224B19680868B0E8F00F80F3EF
:100220000988BFF36F8F4FF0000080F311884EF004
:100230000D0E70470000000006480068006880F35B
:10024000088862B661B6BFF34F8FBFF36F8F00DFD0
:1002500000BF00BF08ED00E0EFF30980BFF36F8F30
:100260000F4B1A6820E9F00F106008B54FF0280016
:1002700080F31188BFF34F8FBFF36F8F09F0B8FE83
:100280004FF0000080F31188BDE808401968086845
:10029000B0E8F00F80F30988BFF36F8F704700BF9D
:1002A00030C00720EFF30580704700000948804701
:1002B00009480047FEE7FEE7FEE7FEE7FEE7FEE748
:1002C000FEE7FEE7FEE7FEE704480549034A054B63
:1002D00070470000F5880000CD000000A0C4072092
:1002E000A0C60720A0C4072002F0FF0343EA0322B0
:1002F00042EA024200F018BA70477047FFFFFFFF62
:100300001CB50C46064B7B4469460090204600F025
:10031000DAFA04460020694600F0E8FA20461CBDDF
:10032000E30500000FB41CB5084B06AA7B446946E0
:100330000090059800F0C7FA04460020694600F0D6
:10034000D5FA20461CBC5DF814FB0000BD0500007A
:1003500070B5044685690068C10601D5302600E005
:100360002026C00707D070BDD4E901213046904750
:10037000206A401C20626D1EF6D570BD70B5044623
:1003800085690078C00707D170BDD4E9012120201C
:100390009047206A401C20626D1EF6D570BD70B576
:1003A0000C460546012A05D02878800600D5EA6962
:1003B000002302E0012305E05B1C934202D2E05CD3
:1003C0000028F9D1A869E618C01AA861286A18445B
:1003D00028622846FFF7BCFF04E0D5E9012114F8A4
:1003E000010B9047B442F8D32846FFF7C7FF70BD12
:1003F0002DE9F0410646002410687529314616A5FE
:1004000010D000F0DBF9002802DA404213A507E023
:1004100031688A0701D512A502E0490704D511A564
:10042000012401E000F0D3F900210A2206F124079B
:1004300009E0B0FBF2FCB0FBF2F302FB1C00303031
:1004400078541846491C0028F3D123462A463046E2
:10045000BDE8F04100F0C4B9000000002D0000002C
:100460002B000000200000002DE9F05F89460446C3
:100470004FF0000ADFF874B1FB44C0F820A020461A
:10048000E1688847002874D0252806D0D4E90121E6
:100490009047206A401C2062F1E700265F46204614
:1004A000E16888472028054607DB312D05D27819F9
:1004B00010F8200C08B10643F1E7B00701D526F08B
:1004C0000406C4F81CA00027C4F818A02A2D09D0DF
:1004D000284609F069F838B304EB8708303DC8F8BE
:1004E000185019E059F8041B204604EB870291616B
:1004F000E1688847012F054618D1E069002820DA15
:1005000026F020061DE0D8F8180000EB800005EB6F
:1005100040003038C8F818002046E1688847054692
:1005200009F042F80028EED1012F0AD02E2D08D173
:100530002046E16888477F1C0546022F46F02006CA
:10054000C4DBA069002803DA404246F00106A0613E
:10055000F00701D026F010066C2D0BD0682D09D0C5
:100560004C2D39D06A2D35D0742D35D07A2D33D01D
:1005700016E038E0E1682F4620468847B842054635
:1005800009D16C2F26D04FF48060E16806432046E5
:100590008847054604E06C2F1AD04FF4807006435C
:1005A0000DB3A5F14100192802D8203546F40066A4
:1005B0004A462946204626604E46FFF7C1FD80B1D7
:1005C00001280BD0F61D26F0070000F1080956E7B8
:1005D0004020E4E78020D8E70020D6E706F10409B0
:1005E0004DE7284652E7206ABDE8F09FCAD10000D7
:1005F00030B505460B462A4613F8014B12F8010B9D
:1006000008B1A042F8D01CB1002802D06D1CF1E75F
:10061000284630BD40EA0103024630B59B0710D1A1
:100620004FF0013400E008C208C91D1B9D4315EAC4
:10063000C41FF8D013F0FF0102F8011B0DD01B0AF4
:10064000F8E711F8013B002B02F8013B05D011F847
:10065000013B002B02F8013BF3D130BD10B5431C28
:1006600002E010F8011B71B18107FAD14FF001329D
:1006700002C88C1A8C4314EAC211F9D0C01A0A06B7
:1006800003D0C01E10BDC01A10BD0A0401D0801EC8
:1006900010BD0902FCD0401E10BD032A40F230807C
:1006A00010F0030C00F0158011F8013BBCF1020FB3
:1006B000624498BF11F801CB00F8013B38BF11F834
:1006C000013BA2F1040298BF00F801CB38BF00F84B
:1006D000013B11F0030300F04382083AC0F00880A8
:1006E00051F8043B083A51F804CBA0E80810F5E7AC
:1006F000121D5CBF51F8043B40F8043BAFF300808F
:10070000D20724BF11F8013B11F801CB48BF11F803
:10071000012B24BF00F8013B00F801CB48BF00F8D3
:10072000012B70474FF000020429C0F0128010F036
:10073000030C00F01B80CCF1040CBCF1020F18BFBD
:1007400000F8012BA8BF20F8022BA1EB0C0100F050
:100750000DB85FEAC17C24BF00F8012B00F8012B23
:1007600048BF00F8012B70474FF0000200B5134658
:1007700094469646203922BFA0E80C50A0E80C50C1
:10078000B1F12001BFF4F7AF090728BFA0E80C5072
:1007900048BF0CC05DF804EB890028BF40F8042B6B
:1007A00008BF704748BF20F8022B11F0804F18BFD8
:1007B00000F8012B704770477047704709684A0579
:1007C00001D540B27047C905FCD500B27047096831
:1007D0004A0501D5C0B27047C905FCD580B2704743
:1007E0002DE9F0470D4699469246044600F124084B
:1007F0000168880604D5E06921F01001216000E05D
:100800000120A84201DD471B00E00027A1697A19F9
:1008100002EB0900081AA0612078C00602D4204625
:10082000FFF796FD002608E0D4E901211AF806003A
:100830009047206A401C761C20624E45F4DB2078ED
:10084000C0060AD52046FFF783FD06E0D4E9012162
:1008500030209047206A401C2062381EA7F1010713
:10086000F4DC07E0D4E9012118F805009047206A7C
:10087000401C2062281EA5F10105F3DC2046FFF78D
:100880007DFD2078000602D50220BDE8F08701201A
:10089000FBE711680268006A530501D508700AE099
:1008A000D30501D5088006E0130603D5C217C1E9B8
:1008B000000200E0086001207047000001694A1C46
:1008C00002610878704700B58FB0CDE90131002191
:1008D000059105497944CDE9031011466846FFF7B3
:1008E000C3FD0FB000BD0000E5FFFFFF0A6802F87E
:1008F000010B0A60704710B5436913B1AFF3008074
:1009000001E0FFF74CFD012010BD127800F1240139
:100910000A7000224A700122EDE711684FF0FF32A1
:10092000E9E700002DE9FF5F15468A460446DFF837
:10093000AC80F8440027D8E900103E46CDE900100D
:1009400010E03AF816106A4602A800F0A3FB411C1A
:1009500007D02178890603D5E269391891420DD86C
:100960000744761C2078800602D5E069B84205DD90
:10097000AE42E6DB3AF816000028E2D1A069C01BBF
:10098000A0612046FFF7E4FCD8E90010CDE9001093
:10099000002017E03AF818106A4602A800F07AFB27
:1009A000B0F1FF3F81460BD000250DF1080B05E0AB
:1009B000D4E901211BF8050090476D1C4D45F7D384
:1009C00008F10100B0428046E4DB206A384420622E
:1009D0002046FFF7D3FCBDE8FF9F000022CD0000BA
:1009E0002DE9F0418046D21D22F007020025D2E910
:1009F0000002F52915A614D0011E72F1000106DAD5
:100A00000023D0EB030063EB020211A608E0D8F844
:100A100000108B0701D50FA602E0490701D50EA6ED
:100A200001251146002408F1240704E000F0CAF86B
:100A300030323A55641C50EA0102F7D12B46324657
:100A400021464046BDE8F041FFF7CABE0000000065
:100A50002D0000002B0000002000000030B4002119
:100A600000F1240408E002F00705D208303542EA1C
:100A70004372DB086554491C52EA0305F3D104684C
:100A8000002310A2250708D504F020040C4304D04D
:100A9000C46901230CA2641EC46130BCFFF7A0BE70
:100AA00010B5044621461068FFF791FE0246204625
:100AB000BDE810400023D1E7D21D22F00701D1E9A3
:100AC0000023CBE70000000030000000F0B40D462A
:100AD0000188090502D5214C7C4402E01F4C7C446E
:100AE0000E34002100F1240608E002F00F0712097D
:100AF000E75D42EA03721B097754491C52EA030777
:100B0000F3D102780023120704D5702D06D009B165
:100B1000022311342246F0BCFFF762BE01231034D9
:100B2000F8E770B504460D4621461068FFF74FFE02
:100B3000024629462046BDE870400023C6E7D21D84
:100B400022F00703D3E90023C0E70368126843F0EB
:100B5000200303600823C3610023B7E784CB0000B0
:100B600010B5203AC0F00B80B1E81850203AA0E848
:100B70001850B1E81850A0E81850BFF4F5AF5FEA7C
:100B8000027C24BFB1E81850A0E8185044BF18C92F
:100B900018C0BDE810405FEA827C24BF51F8043BD6
:100BA00040F8043B08BF7047D20728BF31F8023B2A
:100BB00048BF11F8012B28BF20F8023B48BF00F8BE
:100BC000012B704730B5B0F10A024FEA900E71F177
:100BD00000034EEA817EB0EB0E0061EB91014FEA1B
:100BE000101E4EEA017E10EB0E0041EB11114FEA90
:100BF000102E4EEA016E10EB0E0041EB11214FEA70
:100C0000104E4EEA014E10EB0E0041EB1141401820
:100C100041F100014FEAD00040EA41704FEAD101B2
:100C200010EB80054FEA810444EA907444EB010420
:100C30006D1944EB0404521BA3414FF0000348BF5D
:100C40000A3200D530BD401C41F1000130BD704773
:100C50002DE9FF4F0C461E464FF0FF378BB0D2E90F
:100C60000001DDF860800A908A46C1F30A5505B993
:100C70003D46002108464FF00000BAF1000F00F495
:100C8000400005DA00EB80004FF4400101EA50001B
:100C90004FEA9059B9F1010F00DDB9460A9850EAC0
:100CA0004A000ED044F61050A5F2FF3545432F14EC
:100CB000B8F1000F1ED07542291E1EDDC9F10002D9
:100CC0001CE0B8F1010F4FF0000001D0302103E02B
:100CD000F24305E02154401CB042FBDB30460022C9
:100CE000002121540B99C1F80880C1E900200FB000
:100CF000BDE8F08FBD1B6D1CDEE74A4600DA694295
:100D000006A800F059FA06AB93E8070003AB83E8A6
:100D1000070050460A9900F011FB8DE80700A0F586
:100D200000501F3800900398002D09DD42F21F018A
:100D30004A46084403A90390684600F070FD08E0A5
:100D4000A0F500504A461F3803A90390684600F0FA
:100D50007AFD8DE807000004000C03D04FF0FF304F
:100D6000410800E01046B8F1000F03D000220092C5
:100D700015461EE0751E05D4FFF724FF303262557C
:100D80006D1EF9D5B3460122084302D000227F1C14
:100D900004E02078302801D100227F1E002A099724
:100DA00086D01DE0112D07DAFFF70CFF30326255B7
:100DB0006D1C50EA0102F5D1084302D00098C8B179
:100DC0000EE00021681E05E0235C625C635422543F
:100DD000401E491C8142F7DBAB46A81B401E099010
:100DE000002004F80B000B98099AC0F80880C0E9AD
:100DF000002B7CE711264FF0000859E72DE9F04F52
:100E000088460446D21D22F0070191B0D1E90001C5
:100E1000CDE90A0108F0B4FB02460B98C00F01D0DF
:100E20002D2007E02068810701D52B2002E020213A
:100E300001EAC000032A099001D0072A05DB034616
:100E40004146204600F078F90BE12078800601D574
:100E5000E06900E00620B8F1650F814606D0B8F1E0
:100E6000660F18D0B8F1670F70D131E00020B9F1EA
:100E7000110F009001DB112301E009F101030AAA1F
:100E800001A90CA8FFF7E4FEDDE90C70002609F1CA
:100E90000105834647E001204B4600904FF0004794
:100EA0000AAA01A90CA8FFF7D3FEDDE90DB00C9941
:100EB0005D46002610B909F101000D18B9EB0500D7
:100EC00003D4C0F1FF3609F10105A5EB09002BE0C1
:100ED000B9F1010F01DA4FF001090020B9F1110F4A
:100EE0000090484601DD112300E003460AAA01A94B
:100EF0000CA8FFF7ADFEDDE90C704D4600268346D9
:100F0000207800070AD4AB4500DA5D4601A8012D20
:100F100004DD411911F8011C302907D04F4502DAD0
:100F200017F1040F04DA012082460FE06D1EEEE790
:100F3000002F02DCED1B3E4403E0781CA84200DDDC
:100F40007D1CB81B00F1010A4FF000472078000714
:100F500003D4AA4501DB4FF0FF3A0021B7F1004F5F
:100F60000DF143088DF8431024D002202B23002FCD
:100F700001DA7F422D230A21021EA0F1010000DCCC
:100F80005FB197FBF1FC97FBF1F201FB1C7C17466C
:100F90000CF1300C08F801CDEEE7A8F10100037068
:100FA0002188090501D5452100E06521A0F101084E
:100FB00000F8011C09980FA9A1EB0807FF1D00B15B
:100FC0000120411901EBEA70A1693844081A401E5A
:100FD000A0612078C00602D42046FFF7B9F909982D
:100FE00028B1D4E901219047206A401C2062207872
:100FF000C00622D52046FFF7ABF91EE0002E04DB29
:10100000B34502DD01A8805D00E03020D4E9012174
:101010009047206A401C2062761CAAF101005FEA1A
:10102000000A0AD100F084F8C0680168405CD4E985
:1010300001219047206A401C2062281EA5F101056D
:10104000DCDC07E0D4E9012118F8010B9047206AA5
:10105000401C2062381EA7F10107F3DC2046FFF791
:101060008DF9032011B043E610B5436913B1AFF316
:10107000008001E0FFF756FC012010BD128800F14E
:10108000240182840022C2840122EDE711684FF01E
:10109000FF32E9E770B516460C46054600F040F809
:1010A000036893F80101012806D0FF2C0FD8185DC2
:1010B00068B101202C7070BDD3F80701324621467B
:1010C00003F2071303442846BDE8704018474FF069
:1010D000FF3070BD754600F0E7F8AE460500694682
:1010E000534620F00700854618B020B5FFF7ECF80E
:1010F000BDE820404FF000064FF000074FF0000819
:101100004FF0000B21F00701AC46ACE8C009ACE899
:10111000C009ACE8C009ACE8C0098D4670470000C2
:1011200010B500F005F8001D10BD00BF29960000A5
:101130000048704760C407202DE9F0411F4604466F
:1011400003260168072A01F4006004DB08B116A534
:1011500005E016A503E008B115A500E015A521F0EE
:1011600010002060A069C01EA0610FB1401EA061E8
:101170002046FFF7EDF84FB1D4E9012138469047FA
:10118000206A401C2062C01C206206E0206AFAE748
:10119000D4E9012115F8010B9047761EF8D22046BC
:1011A000FFF7ECF8BDE8F0814E414E006E616E0035
:1011B000494E4600696E66002DE9F04781461646A5
:1011C0008AB0334878440DC88DE80D003048784423
:1011D000801C03AC0DC884E80D0041F69B30084428
:1011E000372190FBF1F290FBF1F5A5F1800501FBB1
:1011F00012041B3C02D56442012000E00020DFF80D
:1012000090A080460027FA44AAF1BE0A0DE0E0074C
:1012100009D03246684607EB47010AEB810100F02E
:1012200012FB8DE8070064107F1C002CEFD1184FD3
:101230007F44AC3F18E0E80714D007EB04100DF131
:10124000180A90E80E008AE80E00C068F04201D14A
:1012500098190890324606A903A800F0F4FA03ABE7
:1012600083E807006D10641C002DE4D13246694606
:10127000B8F1000F03A802D000F0D1FA01E000F0AD
:10128000E2FAC9E90001C9F808200AB0BDE8F08710
:101290003CC5000010B50446AFF300802046BDE811
:1012A0001040FEF7B0BF00000048704740C4072060
:1012B0004FF0013C50F8042B51F8043B9A4221D1E5
:1012C000A2EB0C03934313EACC1317D150F8042B71
:1012D00051F8043B9A4215D1A2EB0C03934313EA55
:1012E000CC130BD150F8042B51F8043B9A4209D18E
:1012F000A2EB0C03934313EACC13DBD04FF00000B6
:10130000704700BFD01A01BAB1FA81F101F018019B
:1013100022FA01F0CB40C1F12001DBB2C0B2C01A09
:101320002CFA01F3D11A914311EAC311E6D17047A7
:1013300001491820ABBEFEE7260002005FEA400C20
:1013400008BF91F0000F4FEA8C234FEAC12243EA15
:1013500051514FEA1C5018BF00F5F0404FEA3000E1
:1013600018BF41F000415FEA6C5C00F02980BCF1DD
:10137000FF3F08BF40F080407047130C06BF1204C7
:101380004FF0100C4FF0000C130E04BF12020CF1C2
:10139000080C130F04BF12010CF1040C930F04BFCF
:1013A00092000CF1020CD30F04BF52000CF1010C9F
:1013B00011464FF00002A0F11F00A0EB0C00704797
:1013C00011F0004F08BF704731F000413FF4D5AF36
:1013D0000B0C06BF09044FF0100C4FF0000C0B0E65
:1013E00004BF09020CF1080C0B0F04BF09010CF13A
:1013F000040C8B0F04BF89000CF1020CCB0F04BF4F
:1014000049000CF1010CCCF12003A0EB0C0022FAF6
:1014100003F302FA0CF241EA030100F10100704704
:1014200020F07F4C80EA030023F07F47ACEB0703FA
:1014300003F57C5300F0004003F1FF032DE98049E0
:101440004FEA154B09B44FEA144325EA0B4E24EA40
:1014500003480FF2042606EB132749083E785FEA9B
:10146000320203FB0667C7F5000707FB06F64FEAE3
:1014700054374FEAD64606F1020607FB066CCCF15C
:10148000005C4FEA1C472CEA074C07FB06F40CFBF8
:1014900006F504EB15464FEA961634BF00204FF0D0
:1014A00000404FEAD13706FB07FC4FEA1C4C0CFB0F
:1014B0000BF7D21B03FB0CF761EB07010CFB0EF7DC
:1014C000B0EB074072EB17420CFB08F734BFA2EBFE
:1014D0000742B2EB074261EB17414FEA0C444FEA77
:1014E000910706FB07FC4FEA1C4C0CFB0BF7B0EB1B
:1014F000C74072EB573203FB0CF734BFA2EBC74275
:10150000B2EBC74261EB57310CFB0EF7B0EBC700F3
:1015100072EB57720CFB08F734BFA2EBC702B2EBB9
:10152000C70261EB5771039F4FEA816141EA921153
:1015300004EBCC044FEAD1374FEA826206FB07FC8A
:1015400042EA90124FEA80604FEA1C4C0CFB0BF70A
:10155000D21B03FB0CF761EB07010CFB0EF7B0EBA2
:10156000074072EB17420CFB08F734BFA2EB0742AF
:10157000B2EB074261EB17414FEA8C554FEA9107F6
:1015800004EB9C2406FB07FC4FEA1C4C0CFB0BF7FE
:10159000B0EBC74072EB573203FB0CF734BFA2EB42
:1015A000C742B2EBC74261EB57310CFB0EF7B0EB11
:1015B000C70072EB57720CFB08F734BFA2EBC702EF
:1015C000B2EBC70261EB577115EB4C254FEA816115
:1015D00041EA92114FEA82624FEAD13742EA901211
:1015E00006FB07FC44F100044FEA80604FEA1C4C04
:1015F0000CFB0BF7D21B03FB0CF761EB07010CFB99
:101600000EF7B0EB074072EB17420CFB08F734BF44
:10161000A2EB0742B2EB074261EB174115EB1C1539
:101620004FEA813141EA92414FEA823242EA9042E6
:101630004FEA80304FEA0C7644F1000448EA034355
:101640004EEA0B484FF0000EB2EB080C71EB0307AB
:1016500024BF624639464EEB0E0E4FF0000B0018C9
:10166000524149414BEB0B0BB2EB080C71EB0307FA
:101670007BF1000B24BF624639464EEB0E0E4FF055
:10168000000B0018524149414BEB0B0BB2EB080C1D
:1016900071EB03077BF1000B24BF624639464EEB2A
:1016A0000E0E51EA020718BF46F0010616EB0E7641
:1016B00055F1000254F1000103D5BDE88901BDE8F0
:1016C0000088BDE88901BDE80048B619524141EBE8
:1016D0000101A3F10103704780807F7E7D7C7B7ACE
:1016E0007978777676757473727171706F6E6E6DCE
:1016F0006C6C6B6A6A696868676666656464636374
:1017000062616160605F5F5E5E5D5D5C5C5B5B5AF9
:101710005A59595858575756565555555454535366
:1017200052525251515050504F4F4F4E4E4D4D4DC1
:101730004C4C4C4B4B4B4A4A4A494949484848470C
:10174000474747464646454545444444444343434A
:101750004342424242414141002B26D4770021D0EE
:101760001CB54FEA370703B44FF010004FF01001DB
:101770004FF000000FBCBDE810400BF1010BBBF1B6
:10178000010F08BF5FEA170722BF12F1010211F132
:1017900001014FF0004143F1000300F0004043EA33
:1017A00000007047F9D35708DAE746EA064613F116
:1017B000400F4FEA16461FDD13F1200FDFBF16431F
:1017C0000A46002120335B42C8D0C3F1200746EA15
:1017D000064602FA07F74FEA164646EA0706C3F13D
:1017E000200722FA03F201FA07F721FA03F14FF07A
:1017F000000342EA0702B1E746EA020646EA064665
:101800004FEA164646EA0106BCBF46EA0646360CD3
:101810004FF000034FF000024FF000019EE72DE96A
:10182000C048934630B491E8380007C831EA400C0C
:1018300048BF34EA430C03D5FFF7F2FDFFF78CFFF6
:10184000F0BCBDE800882DE9C048934630B491E86B
:10185000380007C810F0804F08BF13F0804F03D145
:1018600000F005F8FFF778FFF0BCBDE8008820F035
:101870007F4780EA030023F07F4C07EB0C03A3F5BE
:101880007C5300F00040A3F1FE0392F0000F00F043
:10189000B38095F0000F00F077802DE901494FEA01
:1018A00011404FEA144621EA004800FB06FC24EAF6
:1018B000064708FB06F607FB08F800FB07F718EBDE
:1018C00006484CEB164C4FEA124B18EB07484FEA10
:1018D00015464CEB174022EA0B4E0BFB06FC25EAA3
:1018E00006470EFB06F607FB0EFE0BFB07F71EEB8B
:1018F000064E4CEB164C4FF000061EEB074E4CEB21
:10190000174B18EB0B0840F1000018EB0E0B58EBCF
:10191000000840F100008F1A4FF000013CBFC9439E
:10192000661B14BFB5EB040C00213CBFC943F61B7A
:101930004FEA17444EEA8E0E27EA04454FEA1C4749
:1019400004FB07622CEA074C05FB07F70CFB05F6C6
:1019500004FB0CFC16EB074642EB174216EB0C4659
:1019600042EB1C421BEB060658EB0202414146EAE1
:101970009E0601D5BDE80189B619524141EB01012E
:10198000A3F10103BDE801894FEA14454FEA11476D
:1019900024EA054621EA074C05FB07F406FB07F796
:1019A0000CFB06F105FB0CFC11EB074144EB174463
:1019B0004FEA124711EB0C4144EB1C4422EA074C5E
:1019C00005FB07F206FB07F70CFB06F605FB0CFC14
:1019D00016EB074642EB174216EB0C4642EB1C4552
:1019E0006A1854F1000148BF7047B619524141EBE3
:1019F0000101A3F10103704795F0000F37D04FEAC2
:101A000011424FEA144721EA024624EA074C02FB3E
:101A100007F106FB07F70CFB06F402FB0CFC14EBCA
:101A2000074441EB17414FEA154714EB0C4441EBD7
:101A30001C4125EA074C02FB07F506FB07F70CFBE8
:101A400006F602FB0CFC16EB074645EB174516EBBA
:101A50000C4645EB1C42121951F1000148BF70477A
:101A6000B619524141EB0101A3F1010370474FEA5E
:101A700014454FEA114724EA054621EA074C05FBC5
:101A800007F106FB07F70CFB06F24FF0000605FB1B
:101A90000CFC12EB074241EB174112EB0C4251EBED
:101AA0001C4148BF7047921841EB0101A3F10103AB
:101AB000704710B500F0D6FC10BD70B505460C4659
:101AC00025B1012D06D0022D06D104E0204601F0FB
:101AD000A3FB02E001E000E000BF00BF70BD70B5F5
:101AE0000446002524B1012C06D0022C06D104E0C6
:101AF00007F0C8FB054602E001E000E000BF00BFC0
:101B0000284670BD10B500F0CBFF10BDF8B50746F4
:101B10000C4615461E462B462246022138460096A4
:101B200000F0F2FFF8BDF8B507460C4615461E4614
:101B30002B46224602213846009601F03BF8F8BDBC
:101B400010B501F073FD10BD10B506F055FE10BDC7
:101B50002DE9F04104460D4616461F463B463246E7
:101B60002946204601F0CAFDBDE8F08110B501F01C
:101B7000E3FD10BD70B504460D462946204601F030
:101B8000F0FD70BD10B501F0FFFD10BD2DE9F04373
:101B90008FB005460F4616469846002417A80090B9
:101BA00001A8009A1699FEF7ABFB1FFA80F90020F6
:101BB000009000BF3FE001A8005DA0281DDA20468C
:101BC000611CCCB201A9085C8DF8380000208DF8AA
:101BD00039004EB943460EAA3946284601F0FAFDAF
:101BE00005F10800C5B208E043460EAA394628466A
:101BF00001F060FE05F11000C5B201A8005DA0284B
:101C000019DB2046611CCCB201A9085C8DF83400B8
:101C10002046611CCCB201A9085C8DF8350000207B
:101C20008DF8360043460DAA3946284601F016FFC6
:101C300005F11000C5B24C45BDDB0FB0BDE8F08327
:101C400070B58CB004460D4634208DF82800200A6B
:101C50008DF82900E0B28DF82A00280A8DF82B00B3
:101C6000E8B28DF82C006B4601AA05210AA802F003
:101C70006FFB064630460CB070BDB0B58CB0044664
:101C80000D4600BF0C208DF8280000208DF829009B
:101C90008DF82A408DF82B008DF82C506B4601AA48
:101CA00005210AA802F054FB074638460CB0B0BD27
:101CB00030B58DB0044635208DF82C008DF82D40C0
:101CC00001AB02AA02210BA802F042FB05462846FE
:101CD0000DB030BD70B58CB004460D460F208DF8A8
:101CE000280005208DF829006B4601AA02210AA8C8
:101CF00002F02EFB06462EB19DF8040020709DF8E0
:101D00000500287030460CB070BD30B58DB004466B
:101D10000F208DF82C0001208DF82D0020788DF8F3
:101D20002E0060788DF82F00A0788DF83000E078D4
:101D30008DF8310001AB02AA06210BA802F008FBC6
:101D4000054628460DB030BDF8B504460D4600BF27
:101D50000F208DF8000000208DF801002B46224650
:101D60000221684602F0F4FA07463846F8BD000042
:101D70002DE9FC4104460D4600270F208DF8040094
:101D800003208DF805002B462246022101A802F00F
:101D9000DFFA07462878009063782278394606A053
:101DA00007F082F927B10DB1012602E0002600E01C
:101DB00000263046BDE8FC810D0A44727643686116
:101DC0006E67652073203D2025642C25642C2564D6
:101DD0002C25640D0A00000070B58EB00446002664
:101DE0000F208DF8300004208DF8310002AB03AADB
:101DF00002210CA802F0ACFA05469DF808000090FC
:101E00009DF80D309DF80C20294609A007F04CF9EB
:101E10004DB19DF8080020B900BF9DF80C0020705E
:101E200002E0012600E0022630460EB070BD000040
:101E30000D0A4472764368616E676573656E64204F
:101E40003D2025642C25642C25642C25640D0A0076
:101E500030B58DB004460F208DF82C0002208DF88F
:101E60002D008DF82E4001AB02AA03210BA802F031
:101E70006FFA054628460DB030BD30B58DB004462A
:101E800037208DF82C0001208DF82D0020788DF85A
:101E90002E0060788DF82F00A0788DF83000E07863
:101EA0008DF8310001AB02AA06210BA802F050FA0E
:101EB000054628460DB030BDF8B504460D4637201E
:101EC0008DF8000002208DF801002B4622460221E9
:101ED000684602F03DFA06463046F8BDF8B50446BD
:101EE0000D46332000902B4622460121684602F021
:101EF0002FFA06463046F8BDF8B504460D460B20CD
:101F000000902B4622460121684602F021FA06463F
:101F10003046F8BD3EB5302002906B4601AA012143
:101F200002A802F015FA044620463EBD3EB5082040
:101F300002906B4601AA012102A802F009FA0446A8
:101F400020463EBDF8B504460D46312000902B4694
:101F500022460121684602F0FBF906463046F8BDEC
:101F6000F8B504460D46092000902B462246012173
:101F7000684602F0EDF906463046F8BDF8B504466D
:101F80000D46362000902B4622460121684602F07D
:101F9000DFF906463046F8BDF8B504460D460A207E
:101FA00000902B4622460121684602F0D1F90646F0
:101FB0003046F8BD10B505F097FE1A48006840F0AD
:101FC00080701849C439C1F8C400802016490873CC
:101FD000002008717D2008704120134928310870C5
:101FE0000320114908730720087205204860072064
:101FF000012181404209920002F1E022C2F8001161
:1020000000BF0521002807DACA06140E074A00F0AF
:102010000F031B1FD45403E0CA06130E044A1354C3
:1020200000BF10BDC4C00F400080094018ED00E0A3
:1020300000E400E010B50446204606F0A7FB10BD02
:1020400010B50446204606F0BDFB10BD10B506F0E5
:102050009BFA10BD70B504460D46082C06DA0448FC
:1020600040F824500121002006F0DEFF70BD000082
:10207000FCC3072010B5044614B1012C0AD104E0BA
:102080000649002000F0F6FE05E00449032000F0B8
:10209000F1FE00E000BF00BF10BD000080A90300FA
:1020A0000146082903DA034850F821007047002050
:1020B000FCE70000FCC307202DE9F0478AB0074683
:1020C000884691461D464FF0000A0024B9F1020FE0
:1020D0000ED0B9F1030F06D0B9F1060F0DD0B9F14A
:1020E000090F1ED113E03F210846FFF7A9FD19E0B3
:1020F00000210846FFF7A4FD14E00120FFF7D8FDFA
:1021000010B10220287001E0012028700AE00020B0
:10211000FFF7CEFD10B10420287001E003202870E5
:1021200000E000BF00BF0A2007F094FE694601A846
:10213000FFF7D4FE0646012E6FD100206C490870CF
:102140006C4908700A2007F085FE9DF8000038B938
:102150000A2007F07FFE664800210160416001729D
:102160000024A8E001A8005D00F0F000902819D13B
:1021700001A8005D00F00F0A5F4850F82A005F498F
:1021800009684843386088F800A098F800205CA0EF
:10219000396806F089FF0A2007F05CFE01200AB0CA
:1021A000BDE8F08701A8005D00F0F000A02805D18F
:1021B00058A006F079FF012028707AE001A8005DA0
:1021C00000F0F000002874D101A8005D07283ED07F
:1021D00006DC64D2DFE800F063131A2229303700EE
:1021E0000B284AD006DC082835D009283AD00A281E
:1021F00055D13EE00C2844D0292850D148E04AA0CF
:1022000006F052FF01203A49487051E04BA006F019
:102210004BFF0120364988704AE052E04CA006F09E
:1022200043FF01203249C87142E04DA006F03CFF57
:1022300001202F49C8703BE04EA006F035FF012079
:102240002B49087134E050A006F02EFF30E052A078
:1022500006F02AFF2CE055A006F026FF01202449B5
:10226000487125E057A006F01FFF01202049C871E2
:102270001EE059A006F018FF1AE05CA006F014FF5B
:1022800016E05FA006F010FF0120194988710FE0E9
:1022900060A006F009FF01201549087208E063A05C
:1022A00006F002FF1248002101604160017200BF88
:1022B00000BF601CC4B29DF800008442FFF652AF1C
:1022C00014E00C480078401C0A490870084602785F
:1022D00031465BA006F0E8FE064800781E2802DBC7
:1022E000002004490870012001490870002056E7C9
:1022F000CCC2072024C0072084C2072020C00720AA
:1023000044727662696C6C3D256C642C25640D0A00
:10231000000000000D0A2044727662696C6C207225
:10232000657475726E0000000D0A20447276626951
:102330006C6C206D6F746F72000000000D0A2044F9
:10234000727662696C6C2073656E736F7200000048
:102350000D0A2044727662696C2062757379000000
:102360000D0A2044727662696C6C2063686B737529
:102370006D0000000D0A2044727662696C6C206A60
:10238000616D6D65640000000D0A2044727662691B
:102390006C207265736574000D0A20447276626960
:1023A0006C2072656D6F7665640000000D0A204434
:1023B000727662696C6C2072656D6F7665436173CD
:1023C000680000000D0A2044727662696C6C20641B
:1023D000697361626C6564000D0A204472766269FB
:1023E0006C20696E76616C69640000000D0A2044FF
:1023F000727662696C2072656A6563746564000058
:102400000D0A2044727662696C6C206361736845C2
:10241000727200000D0A2044727662696C6C207240
:10242000656379636C657245727200000D0A204421
:10243000727662696C6C2064656661756C7400000C
:102440000D0A2044727662696C6C20636F6D6D7545
:102450004661696C3D25642C62696C6C7265633DF4
:102460002564000010B50848006840F080700649F7
:1024700008600846806940F0807088610121022070
:1024800006F0D2FD10BD000000C009202DE9F04F7C
:102490008FB081460F46002004900390824624218D
:1024A00006A8FEF761F905F031FC642007F0D2FCC4
:1024B000002038603C480068B9FBF0F52A463A48ED
:1024C00001683AA006F0F0FD65E0C82D01D9C820EA
:1024D00000E02846C4B22D1B224629463AA006F049
:1024E000E3FD02208DF810008DF811402046FFF723
:1024F000AFFC8046B8F1010F4AD1A34604EBDB7074
:10250000401000F5FA610020FFF7A4FD3AE0042036
:10251000039006A8FFF760FC8046B8F1000F2ED1AB
:10252000242106A8FEF720F90320039005A906A898
:10253000FFF71EFC8046B8F1000F20DD9DF81B0060
:102540009DF81A10CDE900109DF819309DF818205B
:102550009DF8141023A006F0A7FD00260AE006A8A7
:10256000805D2849895D48430F49096800FB01AA3D
:10257000701CC6B29DF814008642F0DB07E00A200A
:1025800007F068FC0020FFF78BFD0028BFD102E0B8
:102590001DA006F089FD002D97D1C7F800A00020EE
:1025A0000FB0BDE8F08F000028C007200D0A44726C
:1025B000764368616E67657363616C65203D2025B5
:1025C000642C2564000000000D0A447276436861A3
:1025D0006E676564697370656E7365203D20256460
:1025E0002C2564000D0A25644472764368616E6789
:1025F000654F75743D25642C25642C25642C256459
:102600000000000027C207200D0A4472764368616B
:102610006E676573656E644661696C001E48006A8A
:1026200040F480701C4908620846C06B40F480701A
:10263000C8630846006A40F4007008620846C06B30
:1026400040F40070C8630846006A40F48060086285
:102650000846C06B40F48060C8630846006A40F4D6
:10266000804008620846C06B40F48040C86308465A
:10267000006A40F4004008620846C06B40F4004025
:10268000C8630846006A40F4803008620846C06BA0
:1026900040F48030C863704700C009202DE9F04342
:1026A0008BB005460E4617464FF0000801A902A858
:1026B000FFF722FC8146B9F1010F6FD100204A4992
:1026C00008709DF8040020B90846002101604160AF
:1026D000018100247AE002A8005D00F0800010B1C2
:1026E000601CC4B270E002A8005D00F0C000402889
:1026F00023D102A8005D00F03000102804D002A809
:10270000005D00F03000A8B902A8005D00F00F08DD
:10271000364810F80800364909684843286086F8AA
:102720000080327833A0296806F0BEFC01200BB08F
:10273000BDE8F083601CC4B246E002A8005D00F072
:10274000E000202840D002A8005D0E2835D2DFE846
:1027500000F034071516171B1C1D21262A2B2C30C0
:1027600029480078401C284908700846007801284C
:1027700003DB012038700020087024E023E022E011
:102780000120194948701EE01DE01CE00120164997
:10279000887018E001201449C87014E01BE0012083
:1027A000114908710FE00EE00DE001200E4948715B
:1027B00009E001200C49887105E00B480021016007
:1027C0004160018100BF00BF601CC4B29DF80400DD
:1027D000844280DB05E00DA006F066FC0120024982
:1027E00008700020A3E70000D5C2072027C20720F9
:1027F00028C00720447276636F696E3D256C642C97
:1028000025640D0A000000002CC007200D0A20449A
:102810007276636F696E20636F6D6D754661696C6A
:102820000000000070B502460B4600200025002184
:102830001CE0565C3502002414E080EA050636B23E
:10284000002E05DA42F2021686EA4006B0B203E034
:102850004FF6FF7606EA40004FF6FF7606EA45059A
:10286000661CB4B2082CE8DB4E1CB1B29942E0D32E
:1028700070BD000010B502200A490860132005F061
:102880004DFE0948006920F48000074908610748A7
:10289000006C20F40060054908640121084606F038
:1028A000C3FB10BD40C10F4000C0024000C0092062
:1028B000F8B50025002694E0FFF758F94A4890F84B
:1028C0006D004A4951F8200000231A46194600902D
:1028D0001846FFF75BF902210020FFF74BF9424849
:1028E00090F86D104148083050F8210000231A4636
:1028F000032100901020FFF749F93B4890F86D1034
:102900003A48103050F8210000231A460521009063
:102910001020FFF73BF9344890F86D103348183019
:1029200050F8210000231A46072100901020FFF7DD
:102930002DF92D4890F86D102C48203050F82100CA
:1029400000231A46092100901020FFF71FF926489E
:1029500090F86D102548283050F8210000231A46C1
:102960000B2100901020FFF711F91F4890F86D100F
:102970001E48303050F8210000231A460E210090E6
:102980001846FFF703F927E00026FFF7DDF80446B5
:102990003E2C01D1012520E0A4F14100052813D2ED
:1029A000DFE800F00306090C0F000126104F0DE0D0
:1029B0000126104F0AE001260F4F07E001260F4FB6
:1029C00004E001260E4F01E0002600BF00BF06B163
:1029D00003E00A2007F03EFAD6E700BF05B101E0A8
:1029E000B84769E700BFF8BDCCC00720B4A7000016
:1029F000854E0000194400000D500000A152000057
:102A00001D730000002102E000BF4A1CD1B28142C8
:102A1000FADB70470246062A3AD2DFE802F0030CDE
:102A2000151E27301D48406BC0F3002008B101215E
:102A300000E000212EE01948406BC0F3402008B1AF
:102A4000012100E0002125E01448406BC0F3802004
:102A500008B1012100E000211CE01048406BC0F3E8
:102A6000803008B1012100E0002113E00B48406BE9
:102A7000C0F3C03008B1012100E000210AE007489E
:102A8000406BC0F3004008B1012100E0002101E0EB
:102A9000012100BF00BFC8B27047000000C009207C
:102AA00010B51548006840F080001349C439C1F8DA
:102AB000C4001E201149086148612C208861402013
:102AC00008600A20012181404209920002F1E022BF
:102AD000C2F8001100BF0321002807DACA06140E4D
:102AE000074A00F00F031B1FD45403E0CA06130E5D
:102AF000044A135400BF10BDC4C00F4000C00140C1
:102B000018ED00E000E400E02DE9F04105460E4636
:102B100014461F46DDF81880B8F1000F37D0012E9B
:102B200007D1681C1B4908701B48046001201B4921
:102B30000870022E07D1681C1649087016480460F8
:102B4000022016490870032E0CD10E2000EAD41082
:102B50002844401C0F490870E0B20F49086001206A
:102B60000E4908700E4807600E48C0F8008001202A
:102B70000D49087000200D4908702C200C4988610F
:102B800060200860642006F0DFFCBDE8F0810020D2
:102B9000FBE70000B0C00720B4C00720B8C0072082
:102BA000BCC00720C0C00720C5C00720C4C0072084
:102BB00000C001402DE9F04105460E4614461F466F
:102BC000DDF81880B8F1000F34D0012E06D11A4874
:102BD00005701A480460012019490870022E06D1B8
:102BE0001548057015480460022015490870032E29
:102BF0000BD10E2000EAD41028440F490870E0B22F
:102C00000E49086001200E4908700E4807600E4802
:102C1000C0F8008002200D49087000200C4908709F
:102C20002C200C49886160200860642006F08CFC30
:102C3000BDE8F0810020FBE7B0C00720B4C007204A
:102C4000B8C00720BCC00720C0C00720C5C00720EF
:102C5000C4C0072000C001407E48406800F0F80072
:102C600000F00701002979D1C0100C2876D2DFE8E6
:102C700000F0EE061920B421B5B6A5B7BEDB764844
:102C80000078012806D17548007800F0FE007149EF
:102C9000886003E0714800786E49886028206D499B
:102CA0008861D5E06D4800786A498860282088618D
:102CB000CEE000BF68480078E8B96948006890B184
:102CC0006848006800786349886066480068401C6E
:102CD0006449086028205F49886161480068401E97
:102CE0005F49086007E010205A4908602820886181
:102CF00001205D4908705848007801282FD15B48B1
:102D0000007802280DD15A480068C0F307205149C5
:102D100088602820886155480078401E5349087013
:102D200096E05248007801280CD151480068C0B2A2
:102D300048498860282088614C480078401E4B49EB
:102D4000087085E04948007848B908204149886101
:102D50002020086000204049087079E077E03E4874
:102D60000078022829D141480078002825DD3F4815
:102D7000007802280DD13E480068C0F3072035498D
:102D800088602820886139480078401E37490870DB
:102D90005EE03648007801280FD135480068C0B29F
:102DA0002C4988602820886130480078401E2F49CF
:102DB00008700020284908704AE049E02848006867
:102DC000012803D804202349886102E00420214916
:102DD000086028201F4988613AE000BF00BF00BF9B
:102DE00028201C498861FF201F49087030E01948DD
:102DF00080681C49096808701A480068401C194915
:102E0000086017480068401E1549086008460068B9
:102E1000012803D12C200F49886104E004200D49CA
:102E200008602820886113E00A4880680D49096815
:102E300008700C480068401C0A49086010200549C9
:102E400008602820886101200749087000E000BF61
:102E500000BF704700C00140C5C00720B0C00720B8
:102E6000C0C00720BCC00720C4C00720B8C00720CE
:102E7000B4C0072070B505460C4635B1012D1ED0F3
:102E8000022D34D0032D72D150E002204FF04021AA
:102E9000486001200860002008678860C860084614
:102EA000846103204861012005F04FFB07210120C8
:102EB00005F056FB00204FF04021486058E002200A
:102EC0002C49486001200860002008678860C860BD
:102ED0000846846103204861022005F036FB062184
:102EE000022005F03DFB00202249486040E02248D6
:102EF000006840F480002049C439C1F8C4000220B1
:102F00001E49486001200860002008678860C8608A
:102F1000084684610320486105F017FB0221032065
:102F200005F01EFB01201549486021E012480068A9
:102F300040F400001049C439C1F8C400022010490F
:102F4000486001200860002008678860C860084663
:102F5000846103204861042005F0F7FA0421084643
:102F600005F0FEFA01200649486001E0FFE700BFD6
:102F700000BF70BD00800040C4C00F400000094089
:102F80000040094070B5A8B09A2301AA4FF480719F
:102F9000A020FEF7BBFD0646002E6FD0982101A8A9
:102FA000FFF740FC05469DF89D10E8B2814277D1BD
:102FB0009DF89C00B0EB252FF9D1002412E001A967
:102FC00004F13000085C095D00EB0120474921F85D
:102FD0001400084630F8140010B901204449487024
:102FE000601C84B2302CEADB002408E001A904F163
:102FF0006000095C3D4860300155601C84B2302C93
:10300000F4DB9DF895009DF8941000EB0120374902
:10301000A1F890009DF897009DF8961000EB012014
:103020003249A1F892009DF899009DF8981000EBA4
:1030300001202E49A1F894009DF89A0081F896008D
:103040009DF89B0081F897002AA006F02DF82FA08C
:1030500006F02AF8002407E0244830F814102DA0C8
:1030600006F022F8601C84B2302CF5DB26A006F0B6
:103070001BF829A006F018F8002408E031E01B48EE
:103080006030015D23A006F00FF8601C84B2302C84
:10309000F5DB1DA006F008F81448B0F8901000E029
:1030A0001BE021A006F000F81048B0F8921027A00D
:1030B00005F0FAFF0D48B0F894102DA005F0F4FFCC
:1030C0000A4890F8961033A005F0EEFF074890F8F4
:1030D00097103AA005F0E8FF06E044A005F0E4FFF1
:1030E00002E042A005F0E0FF28B070BD46C1072015
:1030F00000C00720496E6974547261646550617242
:10310000616D2829204F6B3A0D0A000050726963E7
:10311000653A00002564200052656D61696E476F55
:103120006F64733A0000000054726164655061720C
:10313000616D2E5479706542696C6C457363726F72
:1031400077203D20253034580D0A00005472616408
:1031500065506172616D2E5479706542696C6C4581
:103160006E61626C65203D20253034580D0A0000E8
:103170005472616465506172616D2E54797065435B
:103180006F696E456E61626C65203D202530345854
:103190000D0A00005472616465506172616D2E53B6
:1031A0006572766963655768656E4E6F4368616ED8
:1031B000676572203D2025640D0A00005472616429
:1031C00065506172616D2E536572766963655768EB
:1031D000656E42696C6C537461636B6572497346CA
:1031E000756C6C203D2025640D0A0000496E6974E1
:1031F0005472616465506172616D28293A5265614B
:1032000064206F6B2062757420646174612069733F
:10321000206572720D0A000070B504461D480068F2
:1032200040F008001B49C439C1F8C40083201A4982
:1032300008731A48B0FBF4F5280A08710D700320D2
:1032400008738720087205200121814042099200FD
:1032500002F1E022C2F8001100BF0A21002807DABB
:10326000CA06160E0E4A00F00F031B1FD65403E0C9
:10327000CA06130E0B4A135400BF012006494860CA
:103280000020094908700949087040210848FDF7E5
:1032900049FA70BDC4C00F4000C0004060E3160092
:1032A00018ED00E000E400E088C0072089C0072096
:1032B000BCC3072070B59EB0732301AA0021A020D3
:1032C000FEF724FC0646002E7DD0712101A8FFF7F1
:1032D000A9FA05469DF87600E9B2884274D19DF8B6
:1032E0007500B0EB252F7FD1002405E001A8005D1B
:1032F00044490855601C84B2302CF7DB302408E0C8
:1033000001A904F13000095C3E4830300155601CD1
:1033100084B2602CF4DB602408E004F1600001A9B1
:10332000095C384860300155601C84B2672CF4DBBE
:10333000672408E004F1670001A9095C314867309F
:103340000155601C84B26D2CF4DB9DF871002D4991
:1033500081F86D009DF8720081F86E009DF8730091
:1033600081F86F009DF8740081F87000294626A04E
:1033700005F09AFE002431E001A8015D2AA005F0C5
:1033800093FE2F2C02D12AA005F08EFE5F2C02D1D5
:103390002BA005F089FE662C02D12DA005F084FE3D
:1033A0006C2C02D12CA005F07FFE6D2C02D12DA03B
:1033B00005F07AFE6E2C02D12DA005F075FE6F2C63
:1033C00005D12EA001E015E00EE005F06DFE702C99
:1033D00002D12DA005F068FE601C84B2732CCBDBFB
:1033E0002DA005F061FE0AE02CA005F05DFE00F0C6
:1033F000B7FB04E034A005F057FE00F0B1FB1EB0AF
:1034000070BD0000CCC00720496E6974566D6350D2
:103410006172616D28293A52656164204F4B2825FD
:10342000303458293A0D0A00202530325800000067
:10343000202D2D63686E20636F6E6669670D0A002C
:10344000202D2D4D617820636170610D0A00000010
:10345000202D2D49440D0A00202D2D5057440D0AD2
:1034600000000000202D2D4C616E0D0A00000000B0
:10347000202D2D42696C6C0D0A000000202D2D437B
:103480006F696E0D0A000000202D2D436173686C7A
:103490006573730D0A0000000D0A0000496E69741F
:1034A000566D63506172616D28293A5265616420DE
:1034B0006F6B20627574206461746120697320658C
:1034C00072720D0A00000000496E6974566D6350F7
:1034D0006172616D28293A52656164204552520D2E
:1034E0000A0000002DE9F0413748406DC0F3C027C5
:1034F0000FB1FF2561E03448406BC0F3001080003D
:103500003149496BC1F3400140EA41002E49496B02
:1035100001F0010140EA01062B48006A2B490840EE
:10352000294908622820FFF76DFA032E04D0052EE2
:1035300016D0062E3ED128E0022005F06FF90024B7
:103540000AE02046FFF766FA08B1FF2502E02048AE
:10355000055D03E0601CC4B2062CF2DB00BF2BE06B
:10356000012005F05BF900240BE02046FFF752FA3A
:1035700008B1FF2503E01648801F055D03E0601CCD
:10358000C4B2062CF1DB00BF16E0002005F046F9BE
:1035900000240BE02046FFF73DFA08B1FF2503E0C9
:1035A0000B480C38055D03E0601CC4B2062CF1DB4F
:1035B00000BF01E0FF2500BF00BFFFF72FF805F0B7
:1035C00061F92846BDE8F08100C00920FF38FEFF00
:1035D00008AC000010B504461148006840F0807047
:1035E0000F4908600846C06940F08070C86184B126
:1035F000FFF714F805F046F90A48006940F4800026
:1036000008490861022008490860132004F092FF6D
:1036100005E0022004490860132004F07FFF10BD7C
:1036200000C0092000C0024040C10F4010B5FEF7A5
:10363000F5FF05F027F91D490120FFF71BFC1C4988
:103640000220FFF717FC1B48006C20F4806019492A
:103650000864002201210A2006F030FD16490860A6
:103660001648006940F4800014490861022014499A
:10367000086000201349C1F84C01022010490839A4
:103680000860132004F056FF13200821002807DAF1
:10369000CA06140E0C4A00F00F031B1FD45403E09B
:1036A000CA06130E094A135400BF10BD80A90300B7
:1036B000407E050000C009208CC0072000C00240E9
:1036C00048C10F4000C00F4018ED00E000E400E0EA
:1036D0000949096C41F00401074A116428B11146F7
:1036E000896D41F00401916505E00349C96D41F020
:1036F0000401014AD165704700C009202DE9F04757
:1037000007460C469046994600250FE03E4609E0E4
:103710006019C1B2304600F011FA002005F004F83B
:10372000701CC6B24645F3DD681CC5B2A9EB0400A7
:10373000A842EBDABDE8F08770B500240EE0214620
:10374000002000F0FBF9002504E0002004F0ECFF6D
:10375000681CC5B2F02DF8DB601CC4B2102CEEDB87
:1037600070BD70B504460E463146204600F0E6F9BD
:10377000002504E0082004F0D7FF681CC5B2C4F19E
:10378000F000A842F6DC70BD10B5E22004F09AFF0C
:10379000142006F05FFB262004F094FF2F2004F095
:1037A00091FFEA2004F08EFF812004F08BFF72204D
:1037B00004F088FFC82004F085FF402004F082FF59
:1037C000AF2004F07FFFFFF7B7FF0120FFF780FF76
:1037D00010BD00002DE9F04705460F46904699467A
:1037E00041463248FCF704FF82463048824501D802
:1037F000BDE8F0872D48AAEB00004FF6FF7101EA03
:103800000016B9F1000F29D000240DE03146731CD9
:103810009EB2274B595CC943CAB22919C8B239466E
:1038200000F080F9601CC4B2082CEFDB002412E029
:10383000334606F1010C1FFA8CF6DFF874C01CF851
:103840000330DB43DAB27B1CD9B22B19D8B200F0BB
:1038500069F9601CC4B2082CEADB24E000240BE008
:103860003146731C9EB2124B5A5C2919C8B23946B4
:1038700000F058F9601CC4B2082CF1DB002410E001
:10388000334606F1010C1FFA8CF6DFF824C01CF851
:1038900003207B1CD9B22B19D8B200F043F9601C6D
:1038A000C4B2082CECDB00BFA2E700000EAC0000A5
:1038B0006BAC00002DE9F04705460F4690469A464E
:1038C00098F80000302803DB98F80000392803DD61
:1038D00098F800002E286AD141465E48FCF788FE21
:1038E00081465C49894501D8BDE8F0875948A9EB74
:1038F00000004FF6FF7101EA8016BAF1000F57D0B1
:1039000000240DE03146731C9EB2534B595CC943F1
:10391000CAB22919C8B2394600F004F9601CC4B211
:10392000102CEFDB002412E0334606F1010C1FFAE5
:103930008CF6DFF824C11CF80330DB43DAB27B1CC1
:10394000D9B22B19D8B200F0EDF8601CC4B2102C1B
:10395000EADB002412E0334606F1010C1FFA8CF674
:10396000DFF8F4C01CF80330DB43DAB2FB1CD9B239
:103970002B19D8B200F0D6F8601CC4B2102CEADBC8
:10398000002412E0334606F1010C1FFA8CF6DFF832
:10399000C8C01CF80330DB43DAB23B1DD9B22B1987
:1039A000D8B200F0BFF8601CC4B2102CEADB4EE0C5
:1039B00000240BE03146731C9EB2274B5A5C291938
:1039C000C8B2394600F0AEF8601CC4B2102CF1DB6E
:1039D000002410E0334606F1010C1FFA8CF6DFF8E4
:1039E00078C01CF803207B1CD9B22B19D8B200F088
:1039F00099F8601CC4B2102CECDB002410E03346B4
:103A000006F1010C1FFA8CF6DFF84CC01CF80320FD
:103A1000BB1CD9B22B19D8B200F084F8601CC4B218
:103A2000102CECDB002410E0334606F1010C1FFAE9
:103A30008CF6DFF824C01CF80320FB1CD9B22B192C
:103A4000D8B200F06FF8601CC4B2102CECDB00BFE1
:103A50004AE700002BB2000037B200002DE9F04722
:103A600005460F469046994641462C48FCF7C0FD56
:103A700082462A48824503D3AAEB0000060101E0F2
:103A8000BDE8F087B9F1000F25D000240CE03146E5
:103A9000761C234B595CC943CAB22919C8B23946AE
:103AA00000F040F8601CC4B2102CF0DB00240FE0E2
:103AB0003346761CDFF868C01CF80330DB43DAB20B
:103AC0007B1CD9B22B19D8B200F02CF8601CC4B200
:103AD000102CEDDB20E000240AE03146761C104B70
:103AE0005A5C2919C8B2394600F01CF8601CC4B2EF
:103AF000102CF2DB00240DE03346761CDFF820C0EA
:103B00001CF803207B1CD9B22B19D8B200F00AF89C
:103B1000601CC4B2102CEFDB00BFB1E777B500002A
:103B200066B7000070B505460E4614463146284675
:103B300000F004F8204604F0F7FD70BD70B50446AF
:103B40000D4645F0B00004F0BDFD102141EA2410FF
:103B500004F0B8FD04F00F0004F0B4FD70BD0000E7
:103B600070B59EB0002406E001205049085501A917
:103B70000855601C84B2302CF6DB002409E00821D3
:103B80004A483030015501AA04F130001154601C3C
:103B900084B2302CF3DB002408E044486030045544
:103BA00004F1600001AA1454601C84B2072CF4DBF9
:103BB00000240DE004F13100C1B23C4867300155EA
:103BC00004F13100C1B2363001AA1154601C84B234
:103BD000062CEFDB0020354981F86D008DF871006F
:103BE000012081F86E008DF8720081F86F008DF869
:103BF000730081F870008DF87400712101A8FEF740
:103C000011FE064630128DF87500F0B28DF8760080
:103C1000732301AA0021A020FDF785FF05464DB9B9
:103C2000142006F017F9732301AA0021A020FDF744
:103C30007AFF05461EA005F037FA00242EE001A801
:103C4000015D22A005F030FA2F2C02D121A005F051
:103C50002BFA5F2C02D123A005F026FA662C02D1A4
:103C600024A005F021FA6C2C02D124A005F01CFA46
:103C70006D2C02D124A005F017FA6E2C02D125A0DC
:103C800005F012FA6F2C02D125A005F00DFA702C68
:103C900002D126A005F008FA601C84B2732CCEDB9A
:103CA00026A005F001FA1EB070BD0000CCC00720B0
:103CB0004C6F616444656661756C74566D635061E8
:103CC00072616D28293A0D0A00000000202530326B
:103CD00058000000202D2D63686E20636F6E6669AA
:103CE000670D0A00202D2D4D617820636170610DF4
:103CF0000A000000202D2D49440D0A00202D2D50D2
:103D000057440D0A00000000202D2D4C616E0D0A55
:103D100000000000202D2D42696C6C0D0A0000008F
:103D2000202D2D436F696E0D0A000000202D2D43BC
:103D30006173686C6573730D0A0000000D0A000062
:103D400070B5A8B05FA005F0AFF964A005F0ACF9BC
:103D5000002407E0634830F8141063A005F0A4F9CC
:103D6000601C84B2302CF5DB5BA005F09DF95FA0F0
:103D700005F09AF9002407E05A486030015D5AA026
:103D800005F092F9601C84B2302CF5DB52A005F0EE
:103D90008BF9002416E0534830F81400001201A9F2
:103DA0000855504830F81400C1B201AA04F130009F
:103DB00011544C4830F8140010B901204F49487094
:103DC000601C84B2302CE6DB002408E045486030FB
:103DD000015D01AA04F160001154601C84B2302C12
:103DE000F4DB4048B0F8900000128DF894003D4894
:103DF000B0F89000C0B28DF895003A48B0F8901035
:103E00003FA005F051F93748B0F8920000128DF844
:103E100096003448B0F89200C0B28DF8970031484F
:103E2000B0F892103FA005F03FF92E48B0F894008A
:103E300000128DF898002B48B0F89400C0B28DF8AD
:103E400099002848B0F894103FA005F02DF92548B6
:103E500090F896008DF89A00224890F8961043A0AA
:103E600005F022F91F4890F897008DF89B001D4837
:103E700090F8971048A005F017F9982101A8FEF7CF
:103E8000D1FC064630128DF89C00F0B28DF89D00F2
:103E90009A2301AA4FF48071A020FDF744FE054645
:103EA0006DB9142005F0D6FF9A2301AA4FF4807152
:103EB000A020FDF738FE054644A005F0F5F828B02F
:103EC00070BD00004C6F61644E657754726164652B
:103ED000506172616D28293A0D0A000050726963C1
:103EE000653A000046C107202564200052656D61D7
:103EF000696E476F6F64733A0000000000C00720CE
:103F00005472616465506172616D2E5479706542BE
:103F1000696C6C457363726F77203D20253034588F
:103F20000D0A00005472616465506172616D2E5417
:103F300079706542696C6C456E61626C65203D20EC
:103F4000253034580D0A0000547261646550617266
:103F5000616D2E54797065436F696E456E61626C58
:103F600065203D20253034580D0A000054726164EC
:103F700065506172616D2E5365727669636557682D
:103F8000656E4E6F4368616E676572203D20253017
:103F900032580D0A0000000054726164655061726D
:103FA000616D2E536572766963655768656E426907
:103FB0006C6C537461636B6572497346756C6C20ED
:103FC0003D20253032580D0A000000004C6F61641E
:103FD0004E65775472616465506172616D28293A4B
:103FE0006572720D0A00000070B59EB0002405E0F5
:103FF0004F48005D01A90855601C84B2302CF7DBE6
:10400000002408E04A483030015D01AA04F1300084
:104010001154601C84B2302CF4DB002408E04448C6
:104020006030015D04F1600001AA1154601C84B28B
:10403000072CF4DB002408E03D486730015D04F103
:10404000670001AA1154601C84B2062CF4DB3848C6
:1040500090F86D008DF87100354890F86E008DF87D
:104060007200334890F86F008DF87300304890F874
:1040700070008DF87400712101A8FEF7D3FB06468D
:1040800030128DF87500F0B28DF87600732301AA16
:104090000021A020FDF747FD05466DB9142005F06D
:1040A000D9FE732301AA0021A020FDF73CFD05469F
:1040B00020A004F0F9FF38E024A004F0F5FF00246C
:1040C0002EE001A8015D27A004F0EEFF2F2C02D105
:1040D00026A004F0E9FF5F2C02D128A004F0E4FF41
:1040E000662C02D129A004F0DFFF6C2C02D129A09C
:1040F00004F0DAFF6D2C02D129A004F0D5FF6E2C5C
:1041000002D12AA004F0D0FF6F2C02D12AA004F023
:10411000CBFF702C02D12BA004F0C6FF601C84B230
:10412000732CCEDB2BA004F0BFFF1EB070BD0000CF
:10413000CCC007204C6F61644E6577566D6350614B
:1041400072616D28293A6572720D0A004C6F6164C4
:104150004E6577566D63506172616D28293A0D0A7C
:10416000000000002025303258000000202D2D6373
:10417000686E20636F6E6669670D0A00202D2D4DF5
:10418000617820636170610D0A000000202D2D49C7
:10419000440D0A00202D2D5057440D0A0000000048
:1041A000202D2D4C616E0D0A00000000202D2D42A7
:1041B000696C6C0D0A000000202D2D436F696E0D97
:1041C0000A000000202D2D436173686C6573730D28
:1041D0000A0000000D0A00002DE9FE43FDF7C6FCB1
:1041E000584890F86D00584951F8200000231A46AD
:1041F000194600901846FDF7C9FC02210020FDF782
:10420000B9FC504890F86D104F48083050F8210024
:1042100000231A46032100901020FDF7B7FC4948FF
:1042200090F86D104848183050F8210000231A46C5
:104230000E2100901020FDF7A9FC002448264FF025
:1042400007087BE0FDF780FC01A9085501A8005D87
:10425000002870D001A8005D3E2800D16FE001A8C1
:10426000005D3C2858D1052C1FDA0823EF220721D6
:104270000020FDF76DFC334890F86D103248103087
:1042800050F8210000231A46072100903020FDF746
:104290007DFC642005F0DEFD0823EF2207210020CD
:1042A000FDF756FC4826002445E0002700250CE0D9
:1042B00001A8415D23486730405D814201D101275B
:1042C00001E0002703E0681CC5B2062DF0DB00BF4B
:1042D000FFB90823EF2207210020FDF739FC194818
:1042E00090F86D101848103050F8210000231A463D
:1042F000072100903020FDF749FC642005F0AAFD5D
:104300000823EF2207210020FDF722FC4826002485
:1043100011E0FEF7CDFA12E0052C0CDC0BA0002317
:104320001A46414600903046FDF730FC06F1100079
:10433000C6B2601CC4B20A2005F08CFD82E700BF43
:10434000BDE8FE83CCC0072094A700002A0000002F
:104350002DE9F05F05460E46174698464FF0000BD4
:1043600003F0C2FCDA46A1202749087095F80090B6
:104370000EB1242E02DD5846BDE8F09F28780121B9
:1043800004F08AF895F80090012409E0285D0021E6
:1043900004F082F8285D484400F0FF09601CC4B2B4
:1043A000B442F3DB0021484604F076F82821174890
:1043B00004F07CFA21E014480078A3281AD14FF0C9
:1043C000010B13480078002805DD11480078401ED5
:1043D00000F0FF0A01E04FF0000A002405E00D485C
:1043E000005D07F8010B601CC4B25445F7DB88F888
:1043F00000A006E0032005F02DFD04480068002819
:10440000D9D100BF5846B7E7C8C0072090C00720E1
:10441000C6C007201CC407202DE9FF5F00200390C1
:104420008346FCE34FF0000BFDF7A0FBFD4890F83E
:104430006D00FD4951F8200000231A4619460090EE
:104440001846FDF7A3FB02210020FDF793FBF5487A
:1044500090F86E00F34991F86D20F349083151F856
:10446000221000231A46CDE9001003211020FDF789
:104470008DFBEC4890F86F00EA4991F86D20EA490D
:10448000103151F8221000231A46CDE90010052101
:104490001020FDF77BFBE34890F87000E14991F8AC
:1044A0006D20E149183151F8221000231A46CDE958
:1044B000001007211020FDF769FBDA4890F86D0025
:1044C000D84991F86D20D849203151F822100023A5
:1044D0001A46CDE9001009211020FDF757FBD148FD
:1044E00090F86D00CF4991F86D20CF49283151F8EF
:1044F000221000231A46CDE9001009218020FDF783
:1045000045FBC84890F86D10C748603050F821004E
:1045100000231A460C2100901020FDF737FBC148FC
:1045200090F86D10C048683050F8210000231A46FA
:104530000E2100901846FDF729FBF7E3FDF704FB79
:1045400004463E2C02D101200390F0E3A4F1410087
:10455000052871D2DFE800F0035DB8F5F400B1483A
:1045600090F86E00AF4991F86D20AF49083151F8CD
:10457000221001230022CDE9001003211020FDF7B5
:1045800005FB43E0FDF7E0FA04463C2C01D03E2C4D
:1045900006D14FF0010B3C2C01D1FFF725FD36E091
:1045A000302C02D0312C2CD115E000209D4981F80F
:1045B0006E00084690F86E0091F86D209A49083117
:1045C00051F8221001230022CDE900100321102010
:1045D000FDF7DCFA16E00120924981F86E000846EA
:1045E00090F86E0091F86D208F49083151F8221033
:1045F00001230022CDE9001003211020FDF7C6FAA7
:1046000000E000BF00BF142005F024FCBAE700BFA3
:10461000FEE3844890F86F00824991F86D2082494A
:10462000103151F8221001230022CDE9001005219C
:104630001020FDF7ABFA44E0EBE3FDF785FA044602
:104640003C2C01D03E2C06D14FF0010B3C2C01D16B
:10465000FFF7CAFC36E0302C02D0312C2CD115E00B
:104660000020704981F86F00084690F86F0091F8BB
:104670006D206D49103151F8221001230022CDE93F
:10468000001005211020FDF781FA16E00120654990
:1046900081F86F00084690F86F0091F86D2062492C
:1046A000103151F8221001230022CDE9001005211C
:1046B0001020FDF76BFA00E000BF00BF142005F0EA
:1046C000C9FBBAE700BFC1E3564890F870005549EE
:1046D00091F86D205449183151F82210012300221D
:1046E000CDE9001007211020FDF750FA45E0FDF755
:1046F0002BFA04463C2C01D03E2C06D14FF0010B86
:104700003C2C01D1FFF770FC38E0302C02D0312C6A
:104710002ED117E00020434981F87000084690F838
:10472000700091F86D204049183151F82210012392
:104730000022CDE9001007211020FDF727FA18E02C
:104740007CE01DE00120374981F87000084690F8B0
:10475000700091F86D203449183151F8221001236E
:104760000022CDE9001007211020FDF70FFA00E02C
:1047700000BF00BF142005F06DFBB8E700BF65E384
:10478000284890F86D00274991F86D20264920317E
:1047900051F8221001230022CDE900100921102038
:1047A000FDF7F4F947E0FDF7CFF904463C2C01D0C2
:1047B0003E2C06D14FF0010B3C2C01D1FFF714FC2D
:1047C0003AE0302C02D0312C30D115E000201549D0
:1047D00081F86D00084690F86D0091F86D2012493F
:1047E000203151F8221001230022CDE900100921C7
:1047F0001020FDF7CBF91AE001200A4981F86D007D
:10480000084690F86D0091F86D200749203151F865
:10481000221001230022CDE9001009211020FDF70C
:10482000B5F904E0CCC0072014A8000000BF00BF09
:10483000142005F00FFBB6E700BF07E302E30020FA
:104840000290FDF793F9FB4890F86D10FA4850F884
:10485000210000231A46194600901846FDF796F9E4
:1048600002210020FDF786F9F448FDF7E3FBF34849
:104870008079F249497900EB0120EE4991F86D20E9
:10488000ED49083151F8221000231A46CDE90010F5
:1048900003211020FDF77AF9E8480079E54991F8FD
:1048A0006D20E549103151F8221000231A46CDE958
:1048B000001005211020FDF769F9E048C078DD49B6
:1048C00091F86D20DC49183151F8221000231A4666
:1048D000CDE9001007211020FDF758F9D74880785E
:1048E000D44991F86D20D449203151F82210002389
:1048F0001A46CDE9001009211020FDF747F9CF48ED
:104900004078CC4991F86D20CB49283151F82210DC
:1049100000231A46CDE900100B211020FDF736F9CF
:10492000C44890F86D10C448383050F82100002376
:104930001A460E2100901846FDF728F97CE2FDF793
:1049400003F904463C2C01D03E2C06D14FF0010B5C
:104950003C2C01D1FFF748FB6FE2A4F14100052890
:1049600077D2DFE800F00379EBFEFD00B3488079F1
:10497000B249497900EB0120AE4991F86D20AE496A
:10498000083151F8221001230022CDE90010032143
:104990001020FDF7FBF80025002659E0FDF7D4F8BC
:1049A00004463C2C01D03E2C0BD13C2C06D13012BD
:1049B000A24948718E710846FDF742FB0120029022
:1049C00048E0302C41DB392C3FDC032D20DA05B9DF
:1049D00000260423EF2203210020FDF7B9F8A4F1FB
:1049E000300006EB860100EB410086B2914890F85A
:1049F0006D109148083050F8210001230022032156
:104A0000CDE900061020FDF7C1F8681CC5B21CE016
:104A10000423EF2203210020FDF79AF8A4F13000CF
:104A200006EB860100EB410086B2824890F86D10DB
:104A30008148083050F82100012300220321CDE9EC
:104A400000061020FDF7A2F80025142005F002FA58
:104A5000A4E7E8E100BFE7E10623EF2205210020FB
:104A6000FDF776F8002775480079724991F86D20B6
:104A70007149103151F8221001230022CDE90010B4
:104A800005211020FDF782F8002554E0FDF75CF8C1
:104A900004463C2C01D03E2C0CD13C2C07D10C2FD1
:104AA00005DC012F03DB65480771FDF7C9FA01201A
:104AB000029041E0302C3BDB392C39DCDDB900279A
:104AC0000623EF2205210020FDF742F8A4F1300073
:104AD000C7B2584890F86D105748103050F8210070
:104AE000012300220521CDE900071020FDF74EF833
:104AF000681CC5B21CE00623EF2205210020FDF74B
:104B000027F8A4F1300007EB870100EB4100C7B2A2
:104B1000484890F86D104848103050F821000123A3
:104B200000220521CDE900071020FDF72FF8002510
:104B3000142005F08FF9A9E700BF75E10823EF22E3
:104B400007210020FDF704F84FF000083B48C0782B
:104B5000384991F86D203849183151F8221001E098
:104B6000E8E06FE001230022CDE9001007211020CA
:104B7000FDF70CF800255CE0FCF7E6FF04463C2C52
:104B800001D03E2C0FD13C2C0AD1B8F11F0F07DC0D
:104B9000B8F1010F04DB294880F80380FDF750FAD3
:104BA000012002904CE0302C40DB392C3EDCEDB98A
:104BB0004FF000080823EF2207210020FCF7C8FF70
:104BC000A4F1300000F0FF081A4890F86D101A4860
:104BD000183050F82100012300220721CDE90008F8
:104BE0001020FCF7D3FF681CC5B21FE00823EF229A
:104BF00007210020FCF7ACFFA4F1300008EB88018E
:104C000000EB410000F0FF080A4890F86D100A48D8
:104C1000183050F8210001230022072100E026E18E
:104C2000CDE900081020FCF7B1FF0025142005F0A5
:104C300011F9A1E7CCC0072044A8000004C0072058
:104C400000BFF1E00A23EF2209210020FCF780FFDA
:104C50004FF0000988488078884991F86D2088498C
:104C600051F8221001230022CDE900100921102063
:104C7000FCF78CFF002558E0FCF766FF04463C2C4F
:104C800001D03E2C0FD13C2C0AD1B9F1170F07DC13
:104C9000B9F1010F04DB784880F80290FDF7D0F9F4
:104CA0000120029044E0302C3CDB392C3ADCE5B9A1
:104CB0004FF000090A23EF2209210020FCF748FFEA
:104CC000A4F1300000F0FF096C4890F86D106C48BA
:104CD00050F82100012300220921CDE9000910200C
:104CE000FCF754FF681CC5B21CE00A23EF2209211F
:104CF0000020FCF72DFFA4F1300009EB890100EB47
:104D0000410000F0FF095D4890F86D105C4850F8D4
:104D10002100012300220921CDE900091020FCF720
:104D200035FF0025142005F095F8A5E796E097E0FB
:104D300000BF79E00C23EF220B210020FCF708FFD5
:104D40004FF0000A4C4840784C4991F86D204C498E
:104D5000083151F8221001230022CDE900100B2167
:104D60001020FCF713FF00255AE0FCF7EDFE044687
:104D70003C2C01D03E2C0CD13C2C07D1BAF13B0F7E
:104D800004DC3D4880F801A0FDF75AF901200290AB
:104D900047E0302C41DB392C3FDCEDB94FF0000A05
:104DA0000C23EF220B210020FCF7D2FEA4F13000EF
:104DB00000F0FF0A314890F86D103148083050F883
:104DC0002100012300220B21CDE9000A1020FCF76D
:104DD000DDFE681CC5B220E00C23EF220B21002071
:104DE000FCF7B6FEA4F130000AEB8A0100EB4100AB
:104DF00000F0FF0A214890F86D102148083050F863
:104E00002100012300220B21CDE9000A102001E03E
:104E10001CE01AE0FCF7BAFE0025142005F01AF891
:104E2000A3E700BF00E000BF00BF142005F012F8A8
:104E30000298012800D100E081E500BFBBF1010F1D
:104E400000D100E0FBE400BF00E000BF00BFBBF109
:104E5000010F00D104E0142004F0FCFFFFF76EBB4B
:104E600000BF039800B104E0142004F0F3FFFFF743
:104E7000D9BA00BFBDE8FF9F04C00720CCC00720FF
:104E800064A8000030B58BB000240EE05748005DE8
:104E900000F00F015548005D001100EB800001EBB0
:104EA000400009A90855601CC4B2072CEEDBFCF7D2
:104EB0005DFE4E48603890F86D004D4951F8200075
:104EC00000231A46194600901846FCF75FFE02219F
:104ED0000020FCF74FFE4548603890F86D104448BC
:104EE000083050F8210000231A46032100901020BA
:104EF000FCF74CFE3D49603991F86D203C49083182
:104F000051F82200FBF7AAFB102101EBC000C5B24B
:104F100038A000231A46032100902846FCF736FEED
:104F20003248603890F86D103148103050F8210048
:104F300000231A46052100901020FCF727FE2B497C
:104F4000603991F86D202A49103151F82200FBF7A1
:104F500085FB102101EBC000C5B29DF82A009DF829
:104F600029109DF828209DF82730CDE90432CDE99D
:104F700006109DF826009DF825109DF824201FA3FB
:104F8000CDE90032CDE9021000231A46052128465A
:104F9000FCF7FCFD1548603890F86D101448183087
:104FA00050F8210000231A46072100901020FCF73A
:104FB000EDFD0E48603890F86D100D48203050F827
:104FC000210000231A460E2100901846FCF7DEFD52
:104FD00007E0FCF7B9FD3E2800D103E0142004F0FF
:104FE00039FFF6E700BF0BB030BD00002CC1072031
:104FF000ECA700002056312E3030000025642564D7
:10500000256425642564256425640000F8B5002521
:1050100000263EE10026FCF7A9FD9F4890F86D00B0
:105020009E4951F8200000231A4619460090184660
:10503000FCF7ACFD02210020FCF79CFD964890F89F
:105040006D109648083050F8210000231A460321BD
:1050500000901020FCF79AFD8F4890F86D108F4853
:10506000103050F8210000231A460521009010202E
:10507000FCF78CFD884890F86D108848183050F87F
:10508000210000231A46072100901020FCF77EFD26
:10509000814890F86D108148203050F8210000239D
:1050A0001A46092100901020FCF770FD7A4890F80C
:1050B0006D107A48283050F8210000231A460E213E
:1050C00000901846FCF762FDDCE0FCF73DFD04466D
:1050D0003E2C01D10125D6E0412C06D0422C60D0D7
:1050E000432C7DD0442C7CD1BFE003F091FDFCF734
:1050F0003DFD694890F86D00684951F82000002393
:105100001A46194600901846FCF740FD022100207F
:10511000FCF730FD604890F86D106048083050F89A
:10512000210000231A46032100901020FCF72EFDD9
:10513000594890F86D105948103050F8210000235C
:105140001A46052100901020FCF720FD524890F8E7
:105150006D105248183050F8210000231A460721DC
:1051600000901020FCF712FD4B4890F86D104B4852
:10517000203050F8210000231A4609210090102009
:10518000FCF704FD444890F86D104448283050F86E
:10519000210000231A460E2100901846FCF7F6FC69
:1051A00069E003F001FEFCF7E1FC3B4890F86D007C
:1051B0003A4951F8200000231A4619460090184633
:1051C000FCF7E4FC02210020FCF7D4FC324890F804
:1051D0006D103248083050F8210000231A4601E0D3
:1051E0003EE047E0032100901020FCF7CFFC2A4866
:1051F00090F86D102948103050F8210000231A460D
:10520000052100901020FCF7C1FC234890F86D1098
:105210002248183050F8210000231A460721009038
:105220001020FCF7B3FC1C4890F86D101B48203090
:1052300050F8210000231A46092100901020FCF7A5
:10524000A5FC154890F86D101448283050F821003E
:1052500000231A460E2100901846FCF797FC0AE03E
:1052600002E0142004F0F6FDFBE702E0142004F055
:10527000F1FDFBE700BF00BF012E00D103E01420C9
:1052800004F0E8FD21E700BF05B103E0142004F0BD
:10529000E1FDBFE600BFF8BDCCC0072084A8000038
:1052A00010B598B00020169015901490012013901E
:1052B0000020119010900F900D900990069002F030
:1052C00019B800201690FCF751FCF74890F86D00D3
:1052D000F64951F8200000231A4619460090184656
:1052E000FCF754FC02210020FCF744FCEE4890F847
:1052F0006D10EE48083050F8210000231A460321B3
:1053000000900F20FCF742FCE74890F86D10E7484A
:10531000103050F8210000231A46052100900F207C
:10532000FCF734FCE04890F86D10E048183050F875
:10533000210000231A46072100900F20FCF726FCCD
:10534000D94890F86D10D948203050F8210000233A
:105350001A46092100900F20FCF718FCD24890F85B
:105360006D10D248283050F8210000231A460B2136
:1053700000900F20FCF70AFCCB4890F86D10CB484A
:10538000303050F8210000231A460E2100901846B4
:10539000FCF7FCFB0020159001F0A6BFFCF7D4FB46
:1053A000179017983E2803D10120169001F09EBF58
:1053B00017984138052881F09187DFE810F0050043
:1053C000AB033207C70ABB0CA0E300201490FCF724
:1053D000CDFBB54890F86D00B54951F82000002389
:1053E0001A46194600901846FCF7D0FB022100200F
:1053F000FCF7C0FBAC4890F86D10AD48083050F891
:10540000210000231A46032100900F20FCF7BEFB69
:10541000A54890F86D10A648403050F821000023B0
:105420001A460E2100901846FCF7B0FB142004F039
:1054300011FD0020119010900F900D9060E3FCF78B
:1054400083FB179017983E2802D10120159058E34E
:105450000F98E8B91798412817DB1798462814DCED
:1054600001200F90179811908F4991F86D20119895
:105470008F49103151F8221000231A46CDE900104F
:1054800003210F20FCF782FB23E000200D9020E099
:10549000179831281BDB1798382818DC17983038F4
:1054A000C0B21090804A92F86D30DDE91010804A49
:1054B000183252F823200023CDE9002002911A4629
:1054C00003210F20FCF762FB01200D9001E000207A
:1054D0000D900D98012870D10CE300200D901098CC
:1054E000411E1198401E01EBC000C0B2129004236F
:1054F000EF2203210020FCF72BFB6B4A92F86D3062
:10550000DDE910016A4A203252F823200023CDE958
:10551000002102901A4603210F20FCF737FB0923D4
:10552000EF2206210020FCF713FB5F491298085C6C
:1055300091F86D205E49283151F8221000231A4657
:10554000CDE9001006210F20FCF720FB5649303131
:105550001298085C303991F86D205549303151F876
:10556000221000231A46CDE9001008210F20FCF775
:105570000DFB5049129831F810000A2190FBF1F20E
:1055800001FB12004B490590129831F810000A21D6
:1055900090FBF1F00490444A92F86D300599444A2A
:1055A000383252F823200023CDE9002002911A4618
:1055B0000A210F20FCF7EAFA96E29DE2142004F09B
:1055C00049FC00201390FCF7BFFA179017983E286B
:1055D00002D10120149088E21798412804D0422873
:1055E00061D0432868D164E10B23EF22062100201B
:1055F000FCF7AEFA2C491298085C91F86D202C4902
:10560000283151F8221001230022CDE90010062193
:105610000F20FCF7BBFA244830301299405C224935
:1056200091F86D202249303151F8221000231A469A
:10563000CDE9001008210F20FCF7A8FA1D491298A7
:1056400031F810000A2190FBF1F201FB1200194918
:105650000590129831F810000A2190FBF1F00490A7
:10566000114A92F86D300599114A383252F82320C8
:105670000023CDE9002002911A460A210F20FCF7F1
:1056800085FA4FE0FCF760FA179017983C2802D093
:1056900017983E2811D10120139017983C2801D16A
:1056A000FEF7A2FC3FE040E0CCC00720FCA90000D0
:1056B00034AA000046C107200CE21798302802D017
:1056C00031282AD114E00021FE4A129811541146C3
:1056D0001298085C91F86D20FB4951F822100123C3
:1056E0000022CDE9001006210F20FCF74FFA15E04B
:1056F0000121F44A1298115411461298085C91F84D
:105700006D20F14951F8221001230022CDE900104B
:1057100006210F20FCF73AFA00E000BF00BF14207A
:1057200004F098FBAEE700BFD5E1E64830301299AF
:10573000405C0E900B23EF2206210020FCF708FAB4
:10574000E0491298085C91F86D20DF4951F8221069
:1057500000231A46CDE9001006210F20FCF716FAA7
:10576000D84830301299405CD64991F86D20D6491E
:10577000083151F8221001230022CDE90010082140
:105780000F20FCF703FAD149129831F810000A21D2
:1057900090FBF1F201FB1200CC490590129831F810
:1057A00010000A2190FBF1F00490C64A92F86D3087
:1057B000DDE90410C44A103252F823200023CDE959
:1057C000002102901A460A210F20FCF7DFF96DE054
:1057D000FCF7BAF9179017983C2802D017983E2882
:1057E00013D10120139017983C280DD1B5483030C3
:1057F0001299415C0E98814206D0B2493031129A1A
:105800000E988854FEF7F0FB51E00D9820BB1798D6
:10581000302848DD1798392845DC00200E900120FB
:105820000D9017983038C0B20E900923EF2208214E
:105830000020FCF78DF9A34991F86D200E98A2493C
:10584000083151F8221001230022CDE9001008216F
:105850000F20FCF79BF926E01798302823DB1798D8
:10586000392820DC00200D90179830380E9901EB74
:10587000810100EB4100C0B20E900923EF22082104
:105880000020FCF765F98F4991F86D200E988E493C
:10589000083151F8221001230022CDE9001008211F
:1058A0000F20FCF773F9142004F0D4FA90E700BF3E
:1058B00011E10B23EF2206210020FCF749F9814971
:1058C0001298085C91F86D207F4951F8221000234E
:1058D0001A46CDE9001006210F20FCF757F9794848
:1058E00030301299405C774991F86D207649083143
:1058F00051F8221000231A46CDE9001008210F208C
:10590000FCF744F97149129831F810000A2190FB14
:10591000F1F201FB12006D490590129831F8100068
:105920000A2190FBF1F00490664A92F86D30DDE9AF
:105930000410654A103252F823200123CDE90021DA
:10594000029000220A210F20FCF720F90020099084
:1059500006900A900B90142004F07CFAB0E014201A
:1059600004F078FAFCF7F0F8179017983E2802D068
:1059700017983C2814D117983C280ED153491298F7
:1059800031F810100698814207D0069881B24F4A2C
:10599000129822F81010FEF7D3F90120139097E027
:1059A0001798302863DB1798392860DC0998052898
:1059B0005EDA00200C900DE00C98C0F103000AA9FB
:1059C000095C0C98C0F104000AAA11540C98401C00
:1059D000C0B20C900C980428EEDB17983038C0B297
:1059E0008DF828000998401CC0B209909DF82C0041
:1059F00042F2107148439DF82B1001EB4102C2EBBB
:105A0000C11100EBC1009DF82A1001EBC10202EBAD
:105A1000011100EB81009DF8291001EB810100EBE1
:105A200041009DF82810084406900B23EF220A211C
:105A30000020FCF78DF80A210698B0FBF1F201FB7B
:105A4000120005900698B0FBF1F004901D4A92F800
:105A50006D3005991C4A103252F823200123CDE9FC
:105A60000020029100220A210F20FCF78FF827E086
:105A7000002006900C9007E000210AAA0C9811540F
:105A80000C98401CC0B20C900C980428F4DB0B233B
:105A9000EF220A210020FCF75BF80021094890F86A
:105AA0006D300948103050F82300CDE90001012382
:105AB0000A4602910A210F20FCF768F8002009909D
:105AC0004DE70000CCC007205CAA000046C10720BB
:105AD00000BF00E000BF00BF1498012800D104E01F
