:020000040000FA
:1000000068C60720AD020000B5020000B70200007C
:10001000B9020000BB020000BD02000000000000A9
:1000200000000000000000000000000015020000B9
:10003000C1020000000000005902000089750000A4
:10004000C7020000F176000039770000F577000064
:10005000457800008D790000C7020000317A000069
:10006000C7020000C7020000B5220000C70200005E
:10007000C7020000C7020000C7020000C70200005C
:10008000C7020000C7020000C7020000D11E000026
:10009000C7020000C7020000C7020000C70200003C
:1000A000C7020000C7020000C7020000C70200002C
:1000B000C7020000C7020000C7020000C70200001C
:1000C000C7020000C7020000C702000000F002F8EB
:1000D00000F090F80AA090E8000C82448344AAF152
:1000E0000107DA4501D100F085F8AFF2090EBAE850
:1000F0000F0013F0010F18BFFB1A43F0010318475C
:10010000E0CC000010CD0000103A24BF78C878C1C0
:10011000FAD8520724BF30C830C144BF04680C600D
:10012000704700000023002400250026103A28BF55
:1001300078C1FBD8520728BF30C148BF0B60704759
:100140006E2900F04683702900F09F84662908F02C
:100150002787652908F02487672908F02187612906
:10016000AFF3008003681B0A28BF41F080016929B2
:1001700000F00281642900F0FF80752900F0FC8006
:100180006F2900F02D84782900F06B84E92900F0B4
:10019000C783E42900F0C483F52900F0C183EF2967
:1001A00000F02A84F82900F06A840368DB0928BF7C
:1001B00041F08001632900F04883732900F04D83EA
:1001C000E32900F02287F32900F0278700207047F9
:1001D0001FB500F073FF04000020002108F0CAFEE4
:1001E000401C60600020002108F0AEFEE0601FBDF2
:1001F00010B510BD00F035FF1146FFF7E9FF07F01D
:10020000EBFD01F00DF803B4FFF7F2FF03BC01F0C2
:1002100055F80000224B19680868B0E8F00F80F329
:100220000988BFF36F8F4FF0000080F311884EF004
:100230000D0E70470000000006480068006880F35B
:10024000088862B661B6BFF34F8FBFF36F8F00DFD0
:1002500000BF00BF08ED00E0EFF30980BFF36F8F30
:100260000F4B1A6820E9F00F106008B54FF0280016
:1002700080F31188BFF34F8FBFF36F8F08F0C8FA78
:100280004FF0000080F31188BDE808401968086845
:10029000B0E8F00F80F30988BFF36F8F704700BF9D
:1002A0000CC00720EFF30580704700000948804725
:1002B00009480047FEE7FEE7FEE7FEE7FEE7FEE748
:1002C000FEE7FEE7FEE7FEE704480549034A054B63
:1002D00070470000BD750000CD00000068C4072015
:1002E00068C6072068C4072002F0FF0343EA032220
:1002F00042EA024200F0B8B970477047FFFFFFFFC3
:100300001CB50C46064B7B4469460090204600F025
:100310007AFA04460020694600F088FA20461CBD9F
:100320002305000070B50C460546012A05D0287843
:10033000800600D5EA69002302E0012305E05B1C8A
:10034000934202D2E05C0028F9D1A869E618C01AED
:10035000A861286A18442862284600F0A8F904E039
:10036000D5E9012114F8010B9047B442F8D328468F
:1003700000F0B3F970BD00002DE9F04106460024FD
:1003800010687529314616A510D000F0B7F900287D
:1003900002DA404213A507E031688A0701D512A5A9
:1003A00002E0490704D511A5012401E000F0AFF9EE
:1003B00000210A2206F1240709E0B0FBF2FCB0FBA1
:1003C000F2F302FB1C00303078541846491C002818
:1003D000F3D123462A463046BDE8F04100F0A0B9EB
:1003E000000000002D0000002B0000002000000095
:1003F0002DE9F05F894604464FF0000ADFF874B13A
:10040000FB44C0F820A02046E1688847002874D04B
:10041000252806D0D4E901219047206A401C20629B
:10042000F1E700265F462046E16888472028054618
:1004300007DB312D05D2781910F8200C08B10643DE
:10044000F1E7B00701D526F00406C4F81CA0002788
:10045000C4F818A02A2D09D0284607F0B5FC38B3F7
:1004600004EB8708303DC8F8185019E059F8041B10
:10047000204604EB87029161E1688847012F054619
:1004800018D1E069002820DA26F020061DE0D8F80F
:10049000180000EB800005EB40003038C8F8180069
:1004A0002046E1688847054607F08EFC0028EED11B
:1004B000012F0AD02E2D08D12046E16888477F1CE5
:1004C0000546022F46F02006C4DBA069002803DAA7
:1004D000404246F00106A061F00701D026F0100668
:1004E0006C2D0BD0682D09D04C2D39D06A2D35D00C
:1004F000742D35D07A2D33D016E038E0E1682F46E0
:1005000020468847B842054609D16C2F26D04FF4C3
:100510008060E168064320468847054604E06C2F6A
:100520001AD04FF4807006430DB3A5F1410019288D
:1005300002D8203546F400664A4629462046266001
:100540004E46FFF7FDFD80B101280BD0F61D26F0C9
:10055000070000F1080956E74020E4E78020D8E7CB
:100560000020D6E706F104094DE7284652E7206A45
:10057000BDE8F09F5ABA000030B505460B462A4642
:1005800013F8014B12F8010B08B1A042F8D01CB1CE
:10059000002802D06D1CF1E7284630BD10B5431C81
:1005A00002E010F8011B71B18107FAD14FF001325E
:1005B00002C88C1A8C4314EAC211F9D0C01A0A0678
:1005C00003D0C01E10BDC01A10BD0A0401D0801E89
:1005D00010BD0902FCD0401E10BD032A40F230803D
:1005E00010F0030C00F0158011F8013BBCF1020F74
:1005F000624498BF11F801CB00F8013B38BF11F8F5
:10060000013BA2F1040298BF00F801CB38BF00F80B
:10061000013B11F0030300F04382083AC0F0088068
:1006200051F8043B083A51F804CBA0E80810F5E76C
:10063000121D5CBF51F8043B40F8043BAFF300804F
:10064000D20724BF11F8013B11F801CB48BF11F8C4
:10065000012B24BF00F8013B00F801CB48BF00F894
:10066000012B70474FF000020429C0F0128010F0F7
:10067000030C00F04982CCF1040CBCF1020F18BF4E
:1006800000F8012BA8BF20F8022BA1EB0C0100F011
:100690003BBA5FEAC17C24BF00F8012B00F8012BB4
:1006A00048BF00F8012B704770477047704770B51E
:1006B000044685690068C10601D5302600E0202681
:1006C000C00707D070BDD4E9012130469047206AA9
:1006D000401C20626D1EF6D570BD70B5044685695C
:1006E0000078C00707D170BDD4E9012120209047D0
:1006F000206A401C20626D1EF6D570BD09684A054F
:1007000001D540B27047C905FCD500B270470968F1
:100710004A0501D5C0B27047C905FCD580B2704703
:100720002DE9F0470D4699469246044600F124080B
:100730000168880604D5E06921F01001216000E01D
:100740000120A84201DD471B00E00027A1697A19BA
:1007500002EB0900081AA0612078C00602D42046E6
:10076000FFF7A5FF002608E0D4E901211AF80600EA
:100770009047206A401C761C20624E45F4DB2078AE
:10078000C0060AD52046FFF792FF06E0D4E9012112
:1007900030209047206A401C2062381EA7F10107D4
:1007A000F4DC07E0D4E9012118F805009047206A3D
:1007B000401C2062281EA5F10105F3DC2046FFF74E
:1007C0008CFF2078000602D50220BDE8F0870120CA
:1007D000FBE711680268006A530501D508700AE05A
:1007E000D30501D5088006E0130603D5C217C1E979
:1007F000000200E0086001207047000001694A1C07
:1008000002610878704700B58FB0CDE90131002151
:10081000059105497944CDE9031011466846FFF773
:10082000E7FD0FB000BD0000E5FFFFFF0A6802F81A
:10083000010B0A60704710B5436913B1AFF3008034
:1008400001E0FFF76FFD012010BD127800F12401D7
:100850000A7000224A700122EDE711684FF0FF3262
:10086000E9E700002DE9FF5F15468A460446DFF8F8
:10087000AC80F8440027D8E900103E46CDE90010CE
:1008800010E03AF816106A4602A800F0CAFB411CB4
:1008900007D02178890603D5E269391891420DD82D
:1008A0000744761C2078800602D5E069B84205DD51
:1008B000AE42E6DB3AF816000028E2D1A069C01B80
:1008C000A0612046FFF7F3FED8E90010CDE9001043
:1008D000002017E03AF818106A4602A800F0A1FBC1
:1008E000B0F1FF3F81460BD000250DF1080B05E06C
:1008F000D4E901211BF8050090476D1C4D45F7D345
:1009000008F10100B0428046E4DB206A38442062EE
:100910002046FFF7E2FEBDE8FF9F0000FAB50000A9
:100920002DE9F0418046D21D22F007020025D2E9D0
:100930000002F52915A614D0011E72F1000106DA95
:100940000023D0EB030063EB020211A608E0D8F805
:1009500000108B0701D50FA602E0490701D50EA6AE
:1009600001251146002408F1240704E000F0F1F805
:1009700030323A55641C50EA0102F7D12B46324618
:1009800021464046BDE8F041FFF7CABE0000000026
:100990002D0000002B0000002000000030B40021DA
:1009A00000F1240408E002F00705D208303542EADD
:1009B0004372DB086554491C52EA0305F3D104680D
:1009C000002310A2250708D504F020040C4304D00E
:1009D000C46901230CA2641EC46130BCFFF7A0BE31
:1009E00010B5044621461068FFF791FE02462046E6
:1009F000BDE810400023D1E7D21D22F00701D1E964
:100A00000023CBE70000000030000000F0B40D46EA
:100A10000188090502D5214C7C4402E01F4C7C442E
:100A20000E34002100F1240608E002F00F0712093D
:100A3000E75D42EA03721B097754491C52EA030737
:100A4000F3D102780023120704D5702D06D009B126
:100A5000022311342246F0BCFFF762BE012310349A
:100A6000F8E770B504460D4621461068FFF74FFEC3
:100A7000024629462046BDE870400023C6E7D21D45
:100A800022F00703D3E90023C0E70368126843F0AC
:100A9000200303600823C3610023B7E75CB40000B0
:100AA00010B5203AC0F00B80B1E81850203AA0E809
:100AB0001850B1E81850A0E81850BFF4F5AF5FEA3D
:100AC000027C24BFB1E81850A0E8185044BF18C9F0
:100AD00018C0BDE810405FEA827C24BF51F8043B97
:100AE00040F8043B08BF7047D20728BF31F8023BEB
:100AF00048BF11F8012B28BF20F8023B48BF00F87F
:100B0000012B70474FF0000200B5134694469646FD
:100B1000203922BFA0E80C50A0E80C50B1F1200110
:100B2000BFF4F7AF090728BFA0E80C5048BF0CC0BE
:100B30005DF804EB890028BF40F8042B08BF70471C
:100B400048BF20F8022B11F0804F18BF00F8012B8E
:100B5000704730B5B0F10A024FEA900E71F1000310
:100B60004EEA817EB0EB0E0061EB91014FEA101E60
:100B70004EEA017E10EB0E0041EB11114FEA102EF0
:100B80004EEA016E10EB0E0041EB11214FEA104EC0
:100B90004EEA014E10EB0E0041EB1141401841F1BD
:100BA00000014FEAD00040EA41704FEAD10110EB5A
:100BB00080054FEA810444EA907444EB01046D1906
:100BC00044EB0404521BA3414FF0000348BF0A3218
:100BD00000D530BD401C41F1000130BD70472DE90A
:100BE000FF4F0C461E464FF0FF378BB0D2E9000195
:100BF000DDF860800A908A46C1F30A5505B93D4682
:100C0000002108464FF00000BAF1000F00F4400048
:100C100005DA00EB80004FF4400101EA50004FEA92
:100C20009059B9F1010F00DDB9460A9850EA4A001F
:100C30000ED044F61050A5F2FF3545432F14B8F1FD
:100C4000000F1ED07542291E1EDDC9F100021CE0F6
:100C5000B8F1010F4FF0000001D0302103E0F24362
:100C600005E02154401CB042FBDB3046002200214D
:100C700021540B99C1F80880C1E900200FB0BDE8EC
:100C8000F08FBD1B6D1CDEE74A4600DA694206A8FC
:100C900000F058FA06AB93E8070003AB83E80700BF
:100CA00050460A9900F010FB8DE80700A0F50050AF
:100CB0001F3800900398002D09DD42F21F014A46BB
:100CC000084403A90390684600F06FFD08E0A0F512
:100CD00000504A461F3803A90390684600F079FD8A
:100CE0008DE807000004000C03D04FF0FF304108EE
:100CF00000E01046B8F1000F03D000220092154624
:100D00001EE0751E05D4FFF724FF303262556D1EBC
:100D1000F9D5B3460122084302D000227F1C04E02B
:100D20002078302801D100227F1E002A099786D022
:100D30001DE0112D07DAFFF70CFF303262556D1CF4
:100D400050EA0102F5D1084302D00098C8B10EE084
:100D50000021681E05E0235C625C63542254401E3F
:100D6000491C8142F7DBAB46A81B401E09900020BE
:100D700004F80B000B98099AC0F80880C0E9002B12
:100D80007CE711264FF0000859E72DE9F04F88461F
:100D90000446D21D22F0070191B0D1E90001CDE94E
:100DA0000A0106F0FDFF02460B98C00F01D02D206E
:100DB00007E02068810701D52B2002E0202101EA0D
:100DC000C000032A099001D0072A05DB03464146EB
:100DD000204600F077F90BE12078800601D5E06924
:100DE00000E00620B8F1650F814606D0B8F1660F25
:100DF00018D0B8F1670F70D131E00020B9F1110FB0
:100E0000009001DB112301E009F101030AAA01A905
:100E10000CA8FFF7E4FEDDE90C70002609F10105DE
:100E2000834647E001204B4600904FF000470AAA56
:100E300001A90CA8FFF7D3FEDDE90DB00C995D46C2
:100E4000002610B909F101000D18B9EB050003D413
:100E5000C0F1FF3609F10105A5EB09002BE0B9F15E
:100E6000010F01DA4FF001090020B9F1110F0090D4
:100E7000484601DD112300E003460AAA01A90CA897
:100E8000FFF7ADFEDDE90C704D4600268346207865
:100E900000070AD4AB4500DA5D4601A8012D04DD48
:100EA000411911F8011C302907D04F4502DA17F11A
:100EB000040F04DA012082460FE06D1EEEE7002FDA
:100EC00002DCED1B3E4403E0781CA84200DD7D1CE3
:100ED000B81B00F1010A4FF000472078000703D447
:100EE000AA4501DB4FF0FF3A0021B7F1004F0DF1A9
:100EF00043088DF8431024D002202B23002F01DA61
:100F00007F422D230A21021EA0F1010000DC5FB107
:100F100097FBF1FC97FBF1F201FB1C7C17460CF1EF
:100F2000300C08F801CDEEE7A8F10100037021882C
:100F3000090501D5452100E06521A0F1010800F86F
:100F4000011C09980FA9A1EB0807FF1D00B10120A2
:100F5000411901EBEA70A1693844081A401EA061EA
:100F60002078C00602D42046FFF7A1FB099828B1DB
:100F7000D4E901219047206A401C20622078C006F5
:100F800022D52046FFF793FB1EE0002E04DBB3457D
:100F900002DD01A8805D00E03020D4E90121904706
:100FA000206A401C2062761CAAF101005FEA000A58
:100FB0000AD100F083F8C0680168405CD4E90121DF
:100FC0009047206A401C2062281EA5F10105DCDC48
:100FD00007E0D4E9012118F8010B9047206A401C72
:100FE0002062381EA7F10107F3DC2046FFF775FBEE
:100FF000032011B043E610B5436913B1AFF300808D
:1010000001E0FFF72FFC012010BD128800F1240140
:1010100082840022C2840122EDE711684FF0FF3282
:10102000E9E770B516460C46054600F03FF8036840
:1010300093F80101012806D0FF2C0FD8185D68B184
:1010400001202C7070BDD3F807013246214603F20F
:10105000071303442846BDE8704018474FF0FF309F
:1010600070BD754600F0E6F8AE4605006946534689
:1010700020F00700854618B020B5FFF725F9BDE838
:1010800020404FF000064FF000074FF000084FF0EF
:10109000000B21F00701AC46ACE8C009ACE8C00980
:1010A000ACE8C009ACE8C0098D46704710B500F047
:1010B00005F8001D10BD00BFBD7E00000048704750
:1010C00028C407202DE9F0411F4604460326016885
:1010D000072A01F4006004DB08B116A505E016A597
:1010E00003E008B115A500E015A521F0100020606F
:1010F000A069C01EA0610FB1401EA0612046FFF78D
:10110000D6FA4FB1D4E9012138469047206A401CF5
:101110002062C01C206206E0206AFAE7D4E90121BF
:1011200015F8010B9047761EF8D22046FFF7D5FA46
:10113000BDE8F0814E414E006E616E00494E4600A2
:10114000696E66002DE9F047814616468AB033483D
:1011500078440DC88DE80D0030487844801C03ACFD
:101160000DC884E80D0041F69B300844372190FB00
:10117000F1F290FBF1F5A5F1800501FB12041B3C97
:1011800002D56442012000E00020DFF890A08046F4
:101190000027FA44AAF1BE0A0DE0E00709D0324662
:1011A000684607EB47010AEB810100F012FB8DE86E
:1011B000070064107F1C002CEFD1184F7F44AC3F18
:1011C00018E0E80714D007EB04100DF1180A90E8B6
:1011D0000E008AE80E00C068F04201D1981908900C
:1011E000324606A903A800F0F4FA03AB83E807002F
:1011F0006D10641C002DE4D132466946B8F1000F31
:1012000003A802D000F0D1FA01E000F0E2FAC9E947
:101210000001C9F808200AB0BDE8F087C8AD000099
:1012200010B50446AFF300802046BDE81040FEF73D
:10123000EABF00000048704708C407204FF0013C97
:1012400050F8042B51F8043B9A4221D1A2EB0C0335
:10125000934313EACC1317D150F8042B51F8043BF5
:101260009A4215D1A2EB0C03934313EACC130BD192
:1012700050F8042B51F8043B9A4209D1A2EB0C031D
:10128000934313EACC13DBD04FF00000704700BF4C
:10129000D01A01BAB1FA81F101F0180122FA01F075
:1012A000CB40C1F12001DBB2C0B2C01A2CFA01F36D
:1012B000D11A914311EAC311E6D1704701491820B0
:1012C000ABBEFEE7260002005FEA400C08BF91F0CB
:1012D000000F4FEA8C234FEAC12243EA51514FEAF3
:1012E0001C5018BF00F5F0404FEA300018BF41F025
:1012F00000415FEA6C5C00F02980BCF1FF3F08BF51
:1013000040F080407047130C06BF12044FF0100CE1
:101310004FF0000C130E04BF12020CF1080C130F57
:1013200004BF12010CF1040C930F04BF92000CF1E6
:10133000020CD30F04BF52000CF1010C11464FF008
:101340000002A0F11F00A0EB0C00704711F0004F4D
:1013500008BF704731F000413FF4D5AF0B0C06BF1A
:1013600009044FF0100C4FF0000C0B0E04BF0902E3
:101370000CF1080C0B0F04BF09010CF1040C8B0FCE
:1013800004BF89000CF1020CCB0F04BF49000CF123
:10139000010CCCF12003A0EB0C0022FA03F302FABB
:1013A0000CF241EA030100F10100704720F07F4C8C
:1013B00080EA030023F07F47ACEB070303F57C537F
:1013C00000F0004003F1FF032DE980494FEA154B7F
:1013D00009B44FEA144325EA0B4E24EA03480FF2FE
:1013E000042606EB132749083E785FEA320203FB26
:1013F0000667C7F5000707FB06F64FEA54374FEAC2
:10140000D64606F1020607FB066CCCF1005C4FEAFB
:101410001C472CEA074C07FB06F40CFB06F504EB13
:1014200015464FEA961634BF00204FF000404FEAB1
:10143000D13706FB07FC4FEA1C4C0CFB0BF7D21B09
:1014400003FB0CF761EB07010CFB0EF7B0EB074059
:1014500072EB17420CFB08F734BFA2EB0742B2EB6A
:10146000074261EB17414FEA0C444FEA910706FB34
:1014700007FC4FEA1C4C0CFB0BF7B0EBC74072EBC0
:10148000573203FB0CF734BFA2EBC742B2EBC742A3
:1014900061EB57310CFB0EF7B0EBC70072EB5772E4
:1014A0000CFB08F734BFA2EBC702B2EBC70261EB3B
:1014B0005771039F4FEA816141EA921104EBCC041A
:1014C0004FEAD1374FEA826206FB07FC42EA9012EC
:1014D0004FEA80604FEA1C4C0CFB0BF7D21B03FB5E
:1014E0000CF761EB07010CFB0EF7B0EB074072EB5A
:1014F00017420CFB08F734BFA2EB0742B2EB0742DE
:1015000061EB17414FEA8C554FEA910704EB9C249D
:1015100006FB07FC4FEA1C4C0CFB0BF7B0EBC7407B
:1015200072EB573203FB0CF734BFA2EBC742B2EBAE
:10153000C74261EB57310CFB0EF7B0EBC70072EB03
:1015400057720CFB08F734BFA2EBC702B2EBC7021D
:1015500061EB577115EB4C254FEA816141EA92111D
:101560004FEA82624FEAD13742EA901206FB07FC4B
:1015700044F100044FEA80604FEA1C4C0CFB0BF76F
:10158000D21B03FB0CF761EB07010CFB0EF7B0EB72
:10159000074072EB17420CFB08F734BFA2EB07427F
:1015A000B2EB074261EB174115EB1C154FEA813195
:1015B00041EA92414FEA823242EA90424FEA803059
:1015C0004FEA0C7644F1000448EA03434EEA0B4824
:1015D0004FF0000EB2EB080C71EB030724BF62461C
:1015E00039464EEB0E0E4FF0000B001852414941A8
:1015F0004BEB0B0BB2EB080C71EB03077BF1000B11
:1016000024BF624639464EEB0E0E4FF0000B001819
:10161000524149414BEB0B0BB2EB080C71EB03074A
:101620007BF1000B24BF624639464EEB0E0E51EAA9
:10163000020718BF46F0010616EB0E7655F10002C0
:1016400054F1000103D5BDE88901BDE80088BDE87B
:101650008901BDE80048B619524141EB0101A3F1EF
:101660000103704780807F7E7D7C7B7A79787776F6
:1016700076757473727171706F6E6E6D6C6C6B6A6F
:101680006A6968686766666564646363626161600D
:10169000605F5F5E5E5D5D5C5C5B5B5A5A5959588A
:1016A00058575756565555555454535352525251F4
:1016B000515050504F4F4F4E4E4D4D4D4C4C4C4B4A
:1016C0004B4B4A4A4A494949484848474747474691
:1016D00046464545454444444443434343424242CD
:1016E00042414141002B26D4770021D01CB54FEA5E
:1016F000370703B44FF010004FF010014FF0000017
:101700000FBCBDE810400BF1010BBBF1010F08BF8E
:101710005FEA170722BF12F1010211F101014FF038
:10172000004143F1000300F0004043EA000070472D
:10173000F9D35708DAE746EA064613F1400F4FEAB5
:1017400016461FDD13F1200FDFBF16430A460021A6
:1017500020335B42C8D0C3F1200746EA064602FAAE
:1017600007F74FEA164646EA0706C3F1200722FAB2
:1017700003F201FA07F721FA03F14FF0000342EAFE
:101780000702B1E746EA020646EA06464FEA16466F
:1017900046EA0106BCBF46EA0646360C4FF0000397
:1017A0004FF000024FF000019EE72DE9C04893463C
:1017B00030B491E8380007C831EA400C48BF34EA39
:1017C000430C03D5FFF7F2FDFFF78CFFF0BCBDE83B
:1017D00000882DE9C048934630B491E8380007C826
:1017E00010F0804F08BF13F0804F03D100F005F8D0
:1017F000FFF778FFF0BCBDE8008820F07F4780EA63
:10180000030023F07F4C07EB0C03A3F57C5300F09F
:101810000040A3F1FE0392F0000F00F0B38095F0BA
:10182000000F00F077802DE901494FEA11404FEA9F
:10183000144621EA004800FB06FC24EA064708FBA0
:1018400006F607FB08F800FB07F718EB06484CEB19
:10185000164C4FEA124B18EB07484FEA15464CEB73
:10186000174022EA0B4E0BFB06FC25EA06470EFB4F
:1018700006F607FB0EFE0BFB07F71EEB064E4CEBC6
:10188000164C4FF000061EEB074E4CEB174B18EBB7
:101890000B0840F1000018EB0E0B58EB000840F16C
:1018A00000008F1A4FF000013CBFC943661B14BFF4
:1018B000B5EB040C00213CBFC943F61B4FEA1744AB
:1018C0004EEA8E0E27EA04454FEA1C4704FB0762E6
:1018D0002CEA074C05FB07F70CFB05F604FB0CFC98
:1018E00016EB074642EB174216EB0C4642EB1C4246
:1018F0001BEB060658EB0202414146EA9E0601D563
:10190000BDE80189B619524141EB0101A3F1010380
:10191000BDE801894FEA14454FEA114724EA05461C
:1019200021EA074C05FB07F406FB07F70CFB06F161
:1019300005FB0CFC11EB074144EB17444FEA12473F
:1019400011EB0C4144EB1C4422EA074C05FB07F267
:1019500006FB07F70CFB06F605FB0CFC16EB07462F
:1019600042EB174216EB0C4642EB1C456A1854F149
:10197000000148BF7047B619524141EB0101A3F184
:101980000103704795F0000F37D04FEA11424FEA3C
:10199000144721EA024624EA074C02FB07F106FB42
:1019A00007F70CFB06F402FB0CFC14EB074441EBBD
:1019B00017414FEA154714EB0C4441EB1C4125EA53
:1019C000074C02FB07F506FB07F70CFB06F602FBCC
:1019D0000CFC16EB074645EB174516EB0C4645EBA2
:1019E0001C42121951F1000148BF7047B61952410B
:1019F00041EB0101A3F1010370474FEA14454FEA9F
:101A0000114724EA054621EA074C05FB07F106FBCE
:101A100007F70CFB06F24FF0000605FB0CFC12EB7F
:101A2000074241EB174112EB0C4251EB1C4148BFFE
:101A30007047921841EB0101A3F10103704710B503
:101A400000F0CAF910BD70B505460C4625B1012D50
:101A500006D0022D06D104E0204600F00BFF02E084
:101A600001E000E000BF00BF70BD70B50446002576
:101A700024B1012C06D0022C06D104E006F05AF85D
:101A8000054602E001E000E000BF00BF284670BD4F
:101A900010B500F033FB10BDF8B507460C461546EF
:101AA0001E462B46224602213846009600F05AFB7D
:101AB000F8BDF8B507460C4615461E462B4622468D
:101AC00002213846009600F0A3FBF8BD10B501F0E6
:101AD000DBF810BD10B505F0F3FC10BD2DE9F041A9
:101AE00004460D4616461F463B46324629462046CA
:101AF00001F032F9BDE8F08110B501F04BF910BDED
:101B000070B504460D462946204601F058F970BDCF
:101B100010B501F067F910BD2DE9F0438FB005460F
:101B20000F4616469846002417A8009001A8009A70
:101B30001699FEF7E5FB1FFA80F90020009000BF20
:101B40003FE001A8005DA0281DDA2046611CCCB250
:101B500001A9085C8DF8380000208DF839004EB9D5
:101B600043460EAA3946284601F062F905F10800FD
:101B7000C5B208E043460EAA3946284601F0C8F926
:101B800005F11000C5B201A8005DA02819DB2046B0
:101B9000611CCCB201A9085C8DF834002046611CA0
:101BA000CCB201A9085C8DF8350000208DF8360014
:101BB00043460DAA3946284601F07EFA05F1100089
:101BC000C5B24C45BDDB0FB0BDE8F08370B58CB03D
:101BD00004460D4634208DF82800200A8DF829008F
:101BE000E0B28DF82A00280A8DF82B00E8B28DF8B3
:101BF0002C006B4601AA05210AA801F0D7FE064673
:101C000030460CB070BD30B58DB0044637208DF82D
:101C10002C0001208DF82D0020788DF82E006078A2
:101C20008DF82F00A0788DF83000E0788DF8310025
:101C300001AB02AA06210BA801F0B8FE0546284612
:101C40000DB030BDF8B504460D4637208DF80000C4
:101C500002208DF801002B4622460221684601F041
:101C6000A5FE06463046F8BDF8B504460D463320BD
:101C700000902B4622460121684601F097FE064659
:101C80003046F8BD3EB5302002906B4601AA0121D6
:101C900002A801F08BFE044620463EBDF8B504467E
:101CA0000D46312000902B4622460121684601F066
:101CB0007DFE06463046F8BDF8B504460D46362092
:101CC00000902B4622460121684601F06FFE064631
:101CD0003046F8BD10B505F06FFA1A48006840F0BC
:101CE00080701849C439C1F8C400802016490873AF
:101CF000002008717D2008704120134928310870A8
:101D00000320114908730720087205204860072046
:101D1000012181404209920002F1E022C2F8001143
:101D200000BF0521002807DACA06140E074A00F092
:101D30000F031B1FD45403E0CA06130E044A1354A6
:101D400000BF10BDC4C00F400080094018ED00E086
:101D500000E400E010B50446204605F07BFB10BD12
:101D600010B50446204605F091FB10BD10B505F0F6
:101D7000ADFA10BD70B504460D46082C06DA0448CD
:101D800040F824500121002005F0A6FD70BD0000A0
:101D9000C4C3072010B5044614B1012C0AD104E0D5
:101DA0000649002000F094FB05E00449032000F000
:101DB0008FFB00E000BF00BF10BD000080A9030042
:101DC0000146082903DA034850F821007047002033
:101DD000FCE70000C4C3072010B50848006840F0C5
:101DE0008070064908600846806940F0807088610C
:101DF0000121022005F070FD10BD000000C0092087
:101E00001E48006A40F480701C4908620846C06B96
:101E100040F48070C8630846006A40F400700862AD
:101E20000846C06B40F40070C8630846006A40F47E
:101E3000806008620846C06B40F48060C863084652
:101E4000006A40F4804008620846C06B40F480405D
:101E5000C8630846006A40F4004008620846C06B48
:101E600040F40040C8630846006A40F480300862CD
:101E70000846C06B40F48030C863704700C009203A
:101E800070B502460B460020002500211CE0565C80
:101E90003502002414E080EA050636B2002E05DA89
:101EA00042F2021686EA4006B0B203E04FF6FF7631
:101EB00006EA40004FF6FF7606EA4505661CB4B216
:101EC000082CE8DB4E1CB1B29942E0D370BD000093
:101ED00010B502200A490860132005F0C1F909482D
:101EE000006920F48000074908610748006C20F46D
:101EF0000060054908640121084605F0EDFC10BDAD
:101F000040C10F4000C0024000C00920F8B50025C4
:101F1000002694E0FFF7F0FD4A4890F86D004A492A
:101F200051F8200000231A46194600901846FFF782
:101F3000F3FD02210020FFF7E3FD424890F86D1009
:101F40004148083050F8210000231A460321009030
:101F50001020FFF7E1FD3B4890F86D103A48103033
:101F600050F8210000231A46052100901020FFF7A9
:101F7000D3FD344890F86D103348183050F82100E4
:101F800000231A46072100901020FFF7C5FD2D48B9
:101F900090F86D102C48203050F8210000231A468C
:101FA000092100901020FFF7B7FD264890F86D102A
:101FB0002548283050F8210000231A460B210090B4
:101FC0001020FFF7A9FD1F4890F86D101E48303013
:101FD00050F8210000231A460E2100901846FFF702
:101FE0009BFD27E00026FFF775FD04463E2C01D13E
:101FF000012520E0A4F14100052813D2DFE800F01C
:102000000306090C0F000126104F0DE00126104FAA
:102010000AE001260F4F07E001260F4F04E00126DA
:102020000E4F01E0002600BF00BF06B103E00A200A
:1020300006F020FBD6E700BF05B101E0B84769E72D
:1020400000BFF8BDA8C00720D48F0000E144000005
:10205000753A0000694600001948000095680000C4
:10206000002102E000BF4A1CD1B28142FADB704776
:102070000246062A3AD2DFE802F0030C151E27308A
:102080001D48406BC0F3002008B1012100E0002191
:102090002EE01948406BC0F3402008B1012100E058
:1020A000002125E01448406BC0F3802008B10121D5
:1020B00000E000211CE01048406BC0F3803008B104
:1020C000012100E0002113E00B48406BC0F3C03059
:1020D00008B1012100E000210AE00748406BC0F38D
:1020E000004008B1012100E0002101E0012100BF12
:1020F00000BFC8B27047000000C0092010B51548E5
:10210000006840F080001349C439C1F8C4001E20A3
:102110001149086148612C208861402008600A202C
:10212000012181404209920002F1E022C2F800112F
:1021300000BF0321002807DACA06140E074A00F080
:102140000F031B1FD45403E0CA06130E044A135492
:1021500000BF10BDC4C00F4000C0014018ED00E03A
:1021600000E400E02DE9F04105460E4614461F4606
:10217000DDF81880B8F1000F37D0012E07D1681CA8
:102180001B4908701B48046001201B490870022E7F
:1021900007D1681C164908701648046002201649C9
:1021A0000870032E0CD10E2000EAD4102844401CE5
:1021B0000F490870E0B20F49086001200E4908700D
:1021C0000E4807600E48C0F8008001200D490870D5
:1021D00000200D4908702C200C498861602008609F
:1021E000642005F0C1FDBDE8F0810020FBE70000A0
:1021F0008CC0072090C0072094C0072098C00720FB
:102200009CC00720A1C00720A0C0072000C001403B
:102210002DE9F04105460E4614461F46DDF81880AC
:10222000B8F1000F34D0012E06D11A4805701A48B3
:102230000460012019490870022E06D11548057066
:1022400015480460022015490870032E0BD10E209A
:1022500000EAD41028440F490870E0B20E49086023
:1022600001200E4908700E4807600E48C0F8008033
:1022700002200D49087000200C4908702C200C49E0
:10228000886160200860642005F06EFDBDE8F08183
:102290000020FBE78CC0072090C0072094C00720D7
:1022A00098C007209CC00720A1C00720A0C007201D
:1022B00000C001407E48406800F0F80000F00701CF
:1022C000002979D1C0100C2876D2DFE800F0EE06A4
:1022D0001920B421B5B6A5B7BEDB76480078012831
:1022E00006D17548007800F0FE007149886003E06F
:1022F000714800786E49886028206D498861D5E072
:102300006D4800786A49886028208861CEE000BF67
:1023100068480078E8B96948006890B16848006882
:1023200000786349886066480068401C644908601A
:1023300028205F49886161480068401E5F49086045
:1023400007E010205A4908602820886101205D4973
:1023500008705848007801282FD15B48007802287F
:102360000DD15A480068C0F30720514988602820E1
:10237000886155480078401E5349087096E05248DD
:10238000007801280CD151480068C0B248498860E3
:10239000282088614C480078401E4B49087085E031
:1023A0004948007848B908204149886120200860E0
:1023B00000204049087079E077E03E480078022824
:1023C00029D141480078002825DD3F4800780228BF
:1023D0000DD13E480068C0F30720354988602820A9
:1023E000886139480078401E374908705EE03648F9
:1023F000007801280FD135480068C0B22C498860A8
:102400002820886130480078401E2F49087000203D
:10241000284908704AE049E028480068012803D8A4
:1024200004202349886102E0042021490860282013
:102430001F4988613AE000BF00BF00BF28201C4947
:102440008861FF201F49087030E0194880681C49E6
:10245000096808701A480068401C19490860174844
:102460000068401E1549086008460068012803D12D
:102470002C200F49886104E004200D4908602820C1
:10248000886113E00A4880680D49096808700C48A3
:102490000068401C0A49086010200549086028208F
:1024A000886101200749087000E000BF00BF704745
:1024B00000C00140A1C007208CC007209CC007209D
:1024C00098C00720A0C0072094C0072090C0072014
:1024D00070B505460C4635B1012D1ED0022D34D005
:1024E000032D72D150E002204FF0402148600120BE
:1024F0000860002008678860C8600846846103207F
:102500004861012004F0C3FE0721012004F0CAFE47
:1025100000204FF04021486058E002202C494860DC
:1025200001200860002008678860C8600846846150
:1025300003204861022004F0AAFE0621022004F0D4
:10254000B1FE00202249486040E02248006840F483
:1025500080002049C439C1F8C40002201E494860E7
:1025600001200860002008678860C8600846846110
:102570000320486104F08BFE0221032004F092FE48
:1025800001201549486021E01248006840F400002D
:102590001049C439C1F8C400022010494860012024
:1025A0000860002008678860C860084684610320CE
:1025B0004861042004F06BFE0421084604F072FE1A
:1025C00001200649486001E0FFE700BF00BF70BD81
:1025D00000800040C4C00F40000009400040094096
:1025E00070B5A8B09A2301AA4FF48071A020FFF71C
:1025F00053FA0646002E6FD0982101A8FFF740FC41
:1026000005469DF89D10E8B2814277D19DF89C0067
:10261000B0EB252FF9D1002412E001A904F130001C
:10262000085C095D00EB0120474921F814000846C9
:1026300030F8140010B9012044494870601C84B27D
:10264000302CEADB002408E001A904F16000095CF9
:102650003D4860300155601C84B2302CF4DB9DF89D
:1026600095009DF8941000EB01203749A1F89000E7
:102670009DF897009DF8961000EB01203249A1F8D3
:1026800092009DF899009DF8981000EB01202E49CA
:10269000A1F894009DF89A0081F896009DF89B009F
:1026A00081F897002AA005F057F92FA005F054F9FA
:1026B000002407E0244830F814102DA005F04CF950
:1026C000601C84B2302CF5DB26A005F045F929A06A
:1026D00005F042F9002408E031E01B486030015D5C
:1026E00023A005F039F9601C84B2302CF5DB1DA065
:1026F00005F032F91448B0F8901000E01BE021A07A
:1027000005F02AF91048B0F8921027A005F024F936
:102710000D48B0F894102DA005F01EF90A4890F865
:10272000961033A005F018F9074890F897103AA0D2
:1027300005F012F906E044A005F00EF902E042A00F
:1027400005F00AF928B070BD22C1072000C007209B
:10275000496E69745472616465506172616D2829B3
:10276000204F6B3A0D0A000050726963653A000011
:102770002564200052656D61696E476F6F64733A1E
:10278000000000005472616465506172616D2E54E6
:1027900079706542696C6C457363726F77203D2078
:1027A000253034580D0A000054726164655061721E
:1027B000616D2E5479706542696C6C456E61626C16
:1027C00065203D20253034580D0A000054726164A4
:1027D00065506172616D2E54797065436F696E4505
:1027E0006E61626C65203D20253034580D0A000072
:1027F0005472616465506172616D2E5365727669C1
:1028000063655768656E4E6F4368616E67657220D9
:102810003D2025640D0A00005472616465506172A8
:10282000616D2E536572766963655768656E42699E
:102830006C6C537461636B6572497346756C6C2084
:102840003D2025640D0A0000496E6974547261646C
:1028500065506172616D28293A52656164206F6B21
:1028600020627574206461746120697320657272DE
:102870000D0A000070B504461D48006840F00800CD
:102880001B49C439C1F8C40083201A4908731A4887
:10289000B0FBF4F5280A08710D7003200873872037
:1028A00008720520012181404209920002F1E022D4
:1028B000C2F8001100BF0A21002807DACA06160E66
:1028C0000E4A00F00F031B1FD65403E0CA06130E76
:1028D0000B4A135400BF01200649486000200949F3
:1028E00008700949087040210848FDF7BBFE70BD1B
:1028F000C4C00F4000C0004060E3160018ED00E0C7
:1029000000E400E064C0072065C0072084C30720FE
:1029100070B59EB0732301AA0021A020FFF7BCF878
:102920000646002E7DD0712101A8FFF7A9FA0546C1
:102930009DF87600E9B2884274D19DF87500B0EB3D
:10294000252F7FD1002405E001A8005D44490855EA
:10295000601C84B2302CF7DB302408E001A904F1BC
:102960003000095C3E4830300155601C84B2602C58
:10297000F4DB602408E004F1600001A9095C384838
:1029800060300155601C84B2672CF4DB672408E0DA
:1029900004F1670001A9095C314867300155601CEA
:1029A00084B26D2CF4DB9DF871002D4981F86D0027
:1029B0009DF8720081F86E009DF8730081F86F0039
:1029C0009DF8740081F87000294626A004F0C4FF29
:1029D000002431E001A8015D2AA004F0BDFF2F2CE6
:1029E00002D12AA004F0B8FF5F2C02D12BA004F082
:1029F000B3FF662C02D12DA004F0AEFF6C2C02D1E7
:102A00002CA004F0A9FF6D2C02D12DA004F0A4FF8E
:102A10006E2C02D12DA004F09FFF6F2C05D12EA0AB
:102A200001E015E00EE004F097FF702C02D12DA01C
:102A300004F092FF601C84B2732CCBDB2DA004F059
:102A40008BFF0AE02CA004F087FF00F0B7FB04E046
:102A500034A004F081FF00F0B1FB1EB070BD000097
:102A6000A8C00720496E6974566D63506172616D2C
:102A700028293A52656164204F4B28253034582963
:102A80003A0D0A002025303258000000202D2D6319
:102A9000686E20636F6E6669670D0A00202D2D4DEC
:102AA000617820636170610D0A000000202D2D49BE
:102AB000440D0A00202D2D5057440D0A000000003F
:102AC000202D2D4C616E0D0A00000000202D2D429E
:102AD000696C6C0D0A000000202D2D436F696E0D8E
:102AE0000A000000202D2D436173686C6573730D1F
:102AF0000A0000000D0A0000496E6974566D6350AB
:102B00006172616D28293A52656164206F6B2062A1
:102B100075742064617461206973206572720D0A96
:102B200000000000496E6974566D63506172616DFA
:102B300028293A52656164204552520D0A0000006E
:102B40002DE9F0413748406DC0F3C0270FB1FF2594
:102B500061E03448406BC0F3001080003149496B9C
:102B6000C1F3400140EA41002E49496B01F00101E7
:102B700040EA01062B48006A2B49084029490862AF
:102B80002820FFF76DFA032E04D0052E16D0062E4E
:102B90003ED128E0022004F0A5FC00240AE02046F3
:102BA000FFF766FA08B1FF2502E02048055D03E063
:102BB000601CC4B2062CF2DB00BF2BE0012004F045
:102BC00091FC00240BE02046FFF752FA08B1FF25E4
:102BD00003E01648801F055D03E0601CC4B2062CAC
:102BE000F1DB00BF16E0002004F07CFC00240BE0C9
:102BF0002046FFF73DFA08B1FF2503E00B480C38EB
:102C0000055D03E0601CC4B2062CF1DB00BF01E0EF
:102C1000FF2500BF00BFFFF7F3F804F097FC28463C
:102C2000BDE8F08100C00920FF38FEFF20940000BD
:102C300010B504461148006840F080700F490860E4
:102C40000846C06940F08070C86184B1FFF7D8F8C9
:102C500004F07CFC0A48006940F4800008490861DF
:102C6000022008490860132004F006FB05E002205A
:102C700004490860132004F0F3FA10BD00C00920D5
:102C800000C0024040C10F4010B5FFF7B9F804F092
:102C90005DFC1D490120FFF71BFC1C490220FFF7CA
:102CA00017FC1B48006C20F480601949086400225E
:102CB00001210A2005F012FE164908601648006935
:102CC00040F4800014490861022014490860002083
:102CD0001349C1F84C01022010490839086013203B
:102CE00004F0CAFA13200821002807DACA06140ED5
:102CF0000C4A00F00F031B1FD45403E0CA06130E46
:102D0000094A135400BF10BD80A90300407E05008E
:102D100000C0092068C0072000C0024048C10F4021
:102D200000C00F4018ED00E000E400E00949096C24
:102D300041F00401074A116428B11146896D41F040
:102D40000401916505E00349C96D41F00401014AA0
:102D5000D165704700C009202DE9F04707460C46B1
:102D60009046994600250FE03E4609E06019C1B241
:102D7000304600F011FA002004F03AFB701CC6B295
:102D80004645F3DD681CC5B2A9EB0400A842EBDAA6
:102D9000BDE8F08770B500240EE02146002000F069
:102DA000FBF9002504E0002004F022FB681CC5B2FA
:102DB000F02DF8DB601CC4B2102CEEDB70BD70B5DA
:102DC00004460E463146204600F0E6F9002504E0B0
:102DD000082004F00DFB681CC5B2C4F1F000A84245
:102DE000F6DC70BD10B5E22004F0D0FA142005F036
:102DF00041FC262004F0CAFA2F2004F0C7FAEA208A
:102E000004F0C4FA812004F0C1FA722004F0BEFA82
:102E1000C82004F0BBFA402004F0B8FAAF2004F058
:102E2000B5FAFFF7B7FF0120FFF780FF10BD0000E4
:102E30002DE9F04705460F469046994641463248EF
:102E4000FDF79AFB82463048824501D8BDE8F087FD
:102E50002D48AAEB00004FF6FF7101EA0016B9F108
:102E6000000F29D000240DE03146731C9EB2274B81
:102E7000595CC943CAB22919C8B2394600F080F971
:102E8000601CC4B2082CEFDB002412E0334606F1CC
:102E9000010C1FFA8CF6DFF874C01CF80330DB431A
:102EA000DAB27B1CD9B22B19D8B200F069F9601CD8
:102EB000C4B2082CEADB24E000240BE03146731C8A
:102EC0009EB2124B5A5C2919C8B2394600F058F923
:102ED000601CC4B2082CF1DB002410E0334606F17C
:102EE000010C1FFA8CF6DFF824C01CF803207B1CB1
:102EF000D9B22B19D8B200F043F9601CC4B2082C27
:102F0000ECDB00BFA2E700002694000083940000E1
:102F10002DE9F04705460F4690469A4698F800007E
:102F2000302803DB98F80000392803DD98F800000A
:102F30002E286AD141465E48FDF71EFB81465C495A
:102F4000894501D8BDE8F0875948A9EB00004FF644
:102F5000FF7101EA8016BAF1000F57D000240DE08E
:102F60003146731C9EB2534B595CC943CAB22919EE
:102F7000C8B2394600F004F9601CC4B2102CEFDB73
:102F8000002412E0334606F1010C1FFA8CF6DFF83C
:102F900024C11CF80330DB43DAB27B1CD9B22B19F5
:102FA000D8B200F0EDF8601CC4B2102CEADB0024AB
:102FB00012E0334606F1010C1FFA8CF6DFF8F4C07C
:102FC0001CF80330DB43DAB2FB1CD9B22B19D8B2A0
:102FD00000F0D6F8601CC4B2102CEADB002412E02A
:102FE000334606F1010C1FFA8CF6DFF8C8C01CF856
:102FF0000330DB43DAB23B1DD9B22B19D8B200F053
:10300000BFF8601CC4B2102CEADB4EE000240BE0D9
:103010003146731C9EB2274B5A5C2919C8B23946F7
:1030200000F0AEF8601CC4B2102CF1DB002410E0FC
:10303000334606F1010C1FFA8CF6DFF878C01CF855
:1030400003207B1CD9B22B19D8B200F099F8601C70
:10305000C4B2102CECDB002410E0334606F1010C66
:103060001FFA8CF6DFF84CC01CF80320BB1CD9B249
:103070002B19D8B200F084F8601CC4B2102CECDB21
:10308000002410E0334606F1010C1FFA8CF6DFF83D
:1030900024C01CF80320FB1CD9B22B19D8B200F0B5
:1030A0006FF8601CC4B2102CECDB00BF4AE70000D4
:1030B000439A00004F9A00002DE9F04705460F465D
:1030C0009046994641462C48FDF756FA82462A48D2
:1030D000824503D3AAEB0000060101E0BDE8F087BA
:1030E000B9F1000F25D000240CE03146761C234BAB
:1030F000595CC943CAB22919C8B2394600F040F830
:10310000601CC4B2102CF0DB00240FE03346761CA8
:10311000DFF868C01CF80330DB43DAB27B1CD9B29D
:103120002B19D8B200F02CF8601CC4B2102CEDDBC7
:1031300020E000240AE03146761C104B5A5C291925
:10314000C8B2394600F01CF8601CC4B2102CF2DB87
:1031500000240DE03346761CDFF820C01CF8032065
:103160007B1CD9B22B19D8B200F00AF8601CC4B28B
:10317000102CEFDB00BFB1E78F9D00007E9F0000A9
:1031800070B505460E4614463146284600F004F850
:10319000204604F02DF970BD70B504460D4645F08B
:1031A000B00004F0F3F8102141EA241004F0EEF826
:1031B00004F00F0004F0EAF870BD000070B59EB096
:1031C000002406E001205049085501A90855601C5B
:1031D00084B2302CF6DB002409E008214A48303064
:1031E000015501AA04F130001154601C84B2302C46
:1031F000F3DB002408E044486030045504F160002B
:1032000001AA1454601C84B2072CF4DB00240DE0E6
:1032100004F13100C1B23C486730015504F131007E
:10322000C1B2363001AA1154601C84B2062CEFDB07
:103230000020354981F86D008DF87100012081F87A
:103240006E008DF8720081F86F008DF8730081F8C0
:1032500070008DF87400712101A8FEF711FE06467A
:1032600030128DF87500F0B28DF87600732301AA44
:103270000021A020FEF71DFC05464DB9142005F0E5
:10328000F9F9732301AA0021A020FEF712FC0546DC
:103290001EA004F061FB00242EE001A8015D22A025
:1032A00004F05AFB2F2C02D121A004F055FB5F2C17
:1032B00002D123A004F050FB662C02D124A004F01C
:1032C0004BFB6C2C02D124A004F046FB6D2C02D1E8
:1032D00024A004F041FB6E2C02D125A004F03CFB9D
:1032E0006F2C02D125A004F037FB702C02D126A050
:1032F00004F032FB601C84B2732CCEDB26A004F0F9
:103300002BFB1EB070BD0000A8C007204C6F61648D
:1033100044656661756C74566D63506172616D28A9
:10332000293A0D0A00000000202530325800000024
:10333000202D2D63686E20636F6E6669670D0A002D
:10334000202D2D4D617820636170610D0A00000011
:10335000202D2D49440D0A00202D2D5057440D0AD3
:1033600000000000202D2D4C616E0D0A00000000B1
:10337000202D2D42696C6C0D0A000000202D2D437C
:103380006F696E0D0A000000202D2D436173686C7B
:103390006573730D0A0000000D0A000070B5A8B037
:1033A0005FA004F0D9FA64A004F0D6FA002407E084
:1033B000634830F8141063A004F0CEFA601C84B2A5
:1033C000302CF5DB5BA004F0C7FA5FA004F0C4FA70
:1033D000002407E05A486030015D5AA004F0BCFAAE
:1033E000601C84B2302CF5DB52A004F0B5FA002446
:1033F00016E0534830F81400001201A9085550484F
:1034000030F81400C1B201AA04F1300011544C4844
:1034100030F8140010B901204F494870601C84B284
:10342000302CE6DB002408E045486030015D01AA4D
:1034300004F160001154601C84B2302CF4DB40486D
:10344000B0F8900000128DF894003D48B0F890005C
:10345000C0B28DF895003A48B0F890103FA004F043
:103460007BFA3748B0F8920000128DF89600344885
:10347000B0F89200C0B28DF897003148B0F89210C1
:103480003FA004F069FA2E48B0F8940000128DF8BD
:1034900098002B48B0F89400C0B28DF899002848E5
:1034A000B0F894103FA004F057FA254890F8960021
:1034B0008DF89A00224890F8961043A004F04CFA38
:1034C0001F4890F897008DF89B001D4890F89710C2
:1034D00048A004F041FA982101A8FEF7D1FC064665
:1034E00030128DF89C00F0B28DF89D009A2301AA4D
:1034F0004FF48071A020FEF7DCFA05466DB9142068
:1035000005F0B8F89A2301AA4FF48071A020FEF7C5
:10351000D0FA054644A004F01FFA28B070BD0000A0
:103520004C6F61644E65775472616465506172617D
:103530006D28293A0D0A000050726963653A00004F
:1035400022C107202564200052656D61696E476FB6
:103550006F64733A0000000000C007205472616479
:1035600065506172616D2E5479706542696C6C456D
:103570007363726F77203D20253034580D0A0000A8
:103580005472616465506172616D2E547970654248
:10359000696C6C456E61626C65203D202530345845
:1035A0000D0A00005472616465506172616D2E54A1
:1035B000797065436F696E456E61626C65203D2070
:1035C000253034580D0A00005472616465506172F0
:1035D000616D2E536572766963655768656E4E6FCF
:1035E0004368616E676572203D20253032580D0AB0
:1035F000000000005472616465506172616D2E5369
:103600006572766963655768656E42696C6C537460
:1036100061636B6572497346756C6C203D20253083
:1036200032580D0A000000004C6F61644E657754FB
:1036300072616465506172616D28293A6572720D1C
:103640000A00000070B59EB0002405E04F48005D00
:1036500001A90855601C84B2302CF7DB002408E077
:103660004A483030015D01AA04F130001154601C59
:1036700084B2302CF4DB002408E044486030015D63
:1036800004F1600001AA1154601C84B2072CF4DB21
:10369000002408E03D486730015D04F1670001AA9D
:1036A0001154601C84B2062CF4DB384890F86D008D
:1036B0008DF87100354890F86E008DF8720033482F
:1036C00090F86F008DF87300304890F870008DF816
:1036D0007400712101A8FEF7D3FB064630128DF865
:1036E0007500F0B28DF87600732301AA0021A020A6
:1036F000FEF7DFF905466DB9142004F0BBFF732314
:1037000001AA0021A020FEF7D4F9054620A004F06C
:1037100023F938E024A004F01FF900242EE001A8CA
:10372000015D27A004F018F92F2C02D126A004F087
:1037300013F95F2C02D128A004F00EF9662C02D1F7
:1037400029A004F009F96C2C02D129A004F004F995
:103750006D2C02D129A004F0FFF86E2C02D12AA012
:1037600004F0FAF86F2C02D12AA004F0F5F8702CBE
:1037700002D12BA004F0F0F8601C84B2732CCEDBD5
:103780002BA004F0E9F81EB070BD0000A8C007200F
:103790004C6F61644E6577566D63506172616D2840
:1037A000293A6572720D0A004C6F61644E65775656
:1037B0006D63506172616D28293A0D0A00000000A6
:1037C0002025303258000000202D2D63686E2063C4
:1037D0006F6E6669670D0A00202D2D4D617820639C
:1037E0006170610D0A000000202D2D49440D0A0072
:1037F000202D2D5057440D0A00000000202D2D4C87
:10380000616E0D0A00000000202D2D42696C6C0DC8
:103810000A000000202D2D436F696E0D0A00000084
:10382000202D2D436173686C6573730D0A000000D1
:103830000D0A00002DE9FE43FEF75EF9584890F8A6
:103840006D00584951F8200000231A46194600908F
:103850001846FEF761F902210020FEF751F95048A1
:1038600090F86D104F48083050F8210000231A4698
:10387000032100901020FEF74FF9494890F86D1091
:103880004848183050F8210000231A460E210090B5
:103890001020FEF741F9002448264FF007087BE08E
:1038A000FEF718F901A9085501A8005D002870D09D
:1038B00001A8005D3E2800D16FE001A8005D3C2812
:1038C00058D1052C1FDA0823EF2207210020FEF72C
:1038D00005F9334890F86D103248103050F8210047
:1038E00000231A46072100903020FEF715F96420C6
:1038F00004F0C0FE0823EF2207210020FEF7EEF8B7
:103900004826002445E0002700250CE001A8415D81
:1039100023486730405D814201D1012701E0002743
:1039200003E0681CC5B2062DF0DB00BFFFB9082319
:10393000EF2207210020FEF7D1F8194890F86D100A
:103940001848103050F8210000231A460721009033
:103950003020FEF7E1F8642004F08CFE0823EF220B
:1039600007210020FEF7BAF84826002411E0FEF7F0
:10397000CDFA12E0052C0CDC0BA000231A464146C0
:1039800000903046FEF7C8F806F11000C6B2601C81
:10399000C4B20A2004F06EFE82E700BFBDE8FE83D9
:1039A000A8C00720B48F00002A0000002DE9F05FB6
:1039B00005460E46174698464FF0000B03F0FCFBF9
:1039C000DA46A1202749087095F800900EB1242E00
:1039D00002DD5846BDE8F09F2878012103F0FEFB88
:1039E00095F80090012409E0285D002103F0F6FB22
:1039F000285D484400F0FF09601CC4B2B442F3DB08
:103A00000021484603F0EAFB2821174803F0B2FDE5
:103A100021E014480078A3281AD14FF0010B134875
:103A20000078002805DD11480078401E00F0FF0AEC
:103A300001E04FF0000A002405E00D48005D07F8A2
:103A4000010B601CC4B25445F7DB88F800A006E007
:103A5000032004F00FFE044800680028D9D100BFFD
:103A60005846B7E7A4C007206CC00720A2C00720B3
:103A7000E4C307202DE9FF5F002003908346FCE3A9
:103A80004FF0000BFEF738F8FD4890F86D00FD4947
:103A900051F8200000231A46194600901846FEF7F8
:103AA0003BF802210020FEF72BF8F54890F86E0055
:103AB000F34991F86D20F349083151F822100023A1
:103AC0001A46CDE9001003211020FEF725F8EC4836
:103AD00090F86F00EA4991F86D20EA49103151F8E9
:103AE000221000231A46CDE9001005211020FEF710
:103AF00013F8E34890F87000E14991F86D20E1492E
:103B0000183151F8221000231A46CDE90010072180
:103B10001020FEF701F8DA4890F86D00D84991F8C6
:103B20006D20D849203151F8221000231A46CDE9E2
:103B3000001009211020FDF7EFFFD14890F86D002B
:103B4000CF4991F86D20CF49283151F82210002338
:103B50001A46CDE9001009218020FDF7DDFFC84895
:103B600090F86D10C748603050F8210000231A46C5
:103B70000C2100901020FDF7CFFFC14890F86D1088
:103B8000C048683050F8210000231A460E210090EA
:103B90001846FDF7C1FFF7E3FDF79CFF04463E2CF6
:103BA00002D101200390F0E3A4F14100052871D275
:103BB000DFE800F0035DB8F5F400B14890F86E005E
:103BC000AF4991F86D20AF49083151F82210012317
:103BD0000022CDE9001003211020FDF79DFF43E0F6
:103BE000FDF778FF04463C2C01D03E2C06D14FF067
:103BF000010B3C2C01D1FFF725FD36E0302C02D023
:103C0000312C2CD115E000209D4981F86E0008462A
:103C100090F86E0091F86D209A49083151F8221001
:103C200001230022CDE9001003211020FDF774FFCD
:103C300016E00120924981F86E00084690F86E0067
:103C400091F86D208F49083151F82210012300228C
:103C5000CDE9001003211020FDF75EFF00E000BF5A
:103C600000BF142004F006FDBAE700BFFEE384485D
:103C700090F86F00824991F86D208249103151F817
:103C8000221001230022CDE9001005211020FDF7AC
:103C900043FF44E0EBE3FDF71DFF04463C2C01D05D
:103CA0003E2C06D14FF0010B3C2C01D1FFF7CAFC92
:103CB00036E0302C02D0312C2CD115E00020704998
:103CC00081F86F00084690F86F0091F86D206D49FB
:103CD000103151F8221001230022CDE900100521F6
:103CE0001020FDF719FF16E00120654981F86F00EB
:103CF000084690F86F0091F86D206249103151F834
:103D0000221001230022CDE9001005211020FDF72B
:103D100003FF00E000BF00BF142004F0ABFCBAE7D3
:103D200000BFC1E3564890F87000554991F86D20E6
:103D30005449183151F8221001230022CDE9001016
:103D400007211020FDF7E8FE45E0FDF7C3FE04461D
:103D50003C2C01D03E2C06D14FF0010B3C2C01D164
:103D6000FFF770FC38E0302C02D0312C2ED117E058
:103D70000020434981F87000084690F8700091F8DF
:103D80006D204049183151F8221001230022CDE95D
:103D9000001007211020FDF7BFFE18E07CE01DE0B9
:103DA0000120374981F87000084690F8700091F8BA
:103DB0006D203449183151F8221001230022CDE939
:103DC000001007211020FDF7A7FE00E000BF00BF94
:103DD000142004F04FFCB8E700BF65E3284890F8D2
:103DE0006D00274991F86D202649203151F82210A5
:103DF00001230022CDE9001009211020FDF78CFEDF
:103E000047E0FDF767FE04463C2C01D03E2C06D16E
:103E10004FF0010B3C2C01D1FFF714FC3AE0302CA1
:103E200002D0312C30D115E00020154981F86D0009
:103E3000084690F86D0091F86D201249203151F834
:103E4000221001230022CDE9001009211020FDF7E6
:103E500063FE1AE001200A4981F86D00084690F8D7
:103E60006D0091F86D200749203151F8221001238F
:103E70000022CDE9001009211020FDF74DFE04E0DD
:103E8000A8C007203490000000BF00BF142004F039
:103E9000F1FBB6E700BF07E302E300200290FDF765
:103EA0002BFEFB4890F86D10FA4850F821000023D3
:103EB0001A46194600901846FDF72EFE02210020F2
:103EC000FDF71EFEF448FDF745FFF3488079F249FF
:103ED000497900EB0120EE4991F86D20ED49083158
:103EE00051F8221000231A46CDE9001003211020BA
:103EF000FDF712FEE8480079E54991F86D20E549A3
:103F0000103151F8221000231A46CDE90010052186
:103F10001020FDF701FEE048C078DD4991F86D20E2
:103F2000DC49183151F8221000231A46CDE900105F
:103F300007211020FDF7F0FDD7488078D44991F88B
:103F40006D20D449203151F8221000231A46CDE9C2
:103F5000001009211020FDF7DFFDCF484078CC4943
:103F600091F86D20CB49283151F8221000231A46D0
:103F7000CDE900100B211020FDF7CEFDC44890F8CC
:103F80006D10C448383050F8210000231A460E2125
:103F900000901846FDF7C0FD7CE2FDF79BFD04464E
:103FA0003C2C01D03E2C06D14FF0010B3C2C01D112
:103FB000FFF748FB6FE2A4F14100052877D2DFE864
:103FC00000F00379EBFEFD00B3488079B2494979EE
:103FD00000EB0120AE4991F86D20AE49083151F84F
:103FE000221001230022CDE9001003211020FDF74B
:103FF00093FD0025002659E0FDF76CFD04463C2C9E
:1040000001D03E2C0BD13C2C06D13012A249487174
:104010008E710846FDF7A4FE0120029048E0302C86
:1040200041DB392C3FDC032D20DA05B900260423BF
:10403000EF2203210020FDF751FDA4F1300006EB33
:10404000860100EB410086B2914890F86D109148CE
:10405000083050F82100012300220321CDE9000699
:104060001020FDF759FD681CC5B21CE00423EF22A7
:1040700003210020FDF732FDA4F1300006EB86019C
:1040800000EB410086B2824890F86D1081480830FC
:1040900050F82100012300220321CDE90006102061
:1040A000FDF73AFD0025142004F0E4FAA4E7E8E166
:1040B00000BFE7E10623EF2205210020FDF70EFDFA
:1040C000002775480079724991F86D2071491031C7
:1040D00051F8221001230022CDE900100521102003
:1040E000FDF71AFD002554E0FDF7F4FC04463C2CD6
:1040F00001D03E2C0CD13C2C07D10C2F05DC012F1C
:1041000003DB65480771FDF72BFE0120029041E0BB
:10411000302C3BDB392C39DCDDB900270623EF22BC
:1041200005210020FDF7DAFCA4F13000C7B25848A1
:1041300090F86D105748103050F8210001230022EC
:104140000521CDE900071020FDF7E6FC681CC5B28B
:104150001CE00623EF2205210020FDF7BFFCA4F19F
:10416000300007EB870100EB4100C7B2484890F8E8
:104170006D104848103050F821000123002205211D
:10418000CDE900071020FDF7C7FC0025142004F03E
:1041900071FAA9E700BF75E10823EF22072100208B
:1041A000FDF79CFC4FF000083B48C078384991F877
:1041B0006D203849183151F8221001E0E8E06FE035
:1041C00001230022CDE9001007211020FDF7A4FCF7
:1041D00000255CE0FDF77EFC04463C2C01D03E2C23
:1041E0000FD13C2C0AD1B8F11F0F07DCB8F1010F39
:1041F00004DB294880F80380FDF7B2FD012002901E
:104200004CE0302C40DB392C3EDCEDB94FF000089F
:104210000823EF2207210020FDF760FCA4F1300005
:1042200000F0FF081A4890F86D101A48183050F83E
:104230002100012300220721CDE900081020FDF70D
:104240006BFC681CC5B21FE00823EF220721002089
:10425000FDF744FCA4F1300008EB880100EB4100BD
:1042600000F0FF080A4890F86D100A48183050F81E
:10427000210001230022072100E026E1CDE900080A
:104280001020FDF749FC0025142004F0F3F9A1E704
:10429000A8C007206490000004C0072000BFF1E020
:1042A0000A23EF2209210020FDF718FC4FF0000936
:1042B00088488078884991F86D20884951F8221003
:1042C00001230022CDE9001009211020FDF724FC74
:1042D000002558E0FDF7FEFB04463C2C01D03E2CA7
:1042E0000FD13C2C0AD1B9F1170F07DCB9F1010F3E
:1042F00004DB784880F80290FDF732FD012002903F
:1043000044E0302C3CDB392C3ADCE5B94FF00009B5
:104310000A23EF2209210020FDF7E0FBA4F1300081
:1043200000F0FF096C4890F86D106C4850F82100BF
:10433000012300220921CDE900091020FDF7ECFB43
:10434000681CC5B21CE00A23EF2209210020FDF7FA
:10435000C5FBA4F1300009EB890100EB410000F03E
:10436000FF095D4890F86D105C4850F8210001236A
:1043700000220921CDE900091020FDF7CDFB002521
:10438000142004F077F9A5E796E097E000BF79E004
:104390000C23EF220B210020FDF7A0FB4FF0000AB9
:1043A0004C4840784C4991F86D204C49083151F8FF
:1043B000221001230022CDE900100B211020FDF76F
:1043C000ABFB00255AE0FDF785FB04463C2C01D0F1
:1043D0003E2C0CD13C2C07D1BAF13B0F04DC3D48FC
:1043E00080F801A0FDF7BCFC0120029047E0302CD2
:1043F00041DB392C3FDCEDB94FF0000A0C23EF22F2
:104400000B210020FDF76AFBA4F1300000F0FF0A49
:10441000314890F86D103148083050F821000123E0
:1044200000220B21CDE9000A1020FDF775FB681C66
:10443000C5B220E00C23EF220B210020FDF74EFB3C
:10444000A4F130000AEB8A0100EB410000F0FF0A02
:10445000214890F86D102148083050F821000123C0
:1044600000220B21CDE9000A102001E01CE01AE037
:10447000FDF752FB0025142004F0FCF8A3E700BF71
:1044800000E000BF00BF142004F0F4F802980128F7
:1044900000D100E081E500BFBBF1010F00D100E0D9
:1044A000FBE400BF00E000BF00BFBBF1010F00D183
:1044B00004E0142004F0DEF8FFF76EBB00BF0398A1
:1044C00000B104E0142004F0D5F8FFF7D9BA00BF1A
:1044D000BDE8FF9F04C00720A8C00720849000000B
:1044E00030B58BB000240EE05748005D00F00F019E
:1044F0005548005D001100EB800001EB400009A968
:104500000855601CC4B2072CEEDBFDF7F5FA4E48E7
:10451000603890F86D004D4951F8200000231A468C
:10452000194600901846FDF7F7FA02210020FDF722
:10453000E7FA4548603890F86D104448083050F864
:10454000210000231A46032100901020FDF7E4FA11
:104550003D49603991F86D203C49083151F82200FD
:10456000FCF71CF8102101EBC000C5B238A00023F5
:104570001A46032100902846FDF7CEFA32486038EB
:1045800090F86D103148103050F8210000231A4681
:10459000052100901020FDF7BFFA2B49603991F8F2
:1045A0006D202A49103151F82200FBF7F7FF102146
:1045B00001EBC000C5B29DF82A009DF829109DF8B6
:1045C00028209DF82730CDE90432CDE906109DF86A
:1045D00026009DF825109DF824201FA3CDE9003268
:1045E000CDE9021000231A4605212846FDF794FA6A
:1045F0001548603890F86D101448183050F82100B4
:1046000000231A46072100901020FDF785FA0E4876
:10461000603890F86D100D48203050F821000023CC
:104620001A460E2100901846FDF776FA07E0FDF7CE
:1046300051FA3E2800D103E0142004F01BF8F6E7FD
:1046400000BF0BB030BD000008C107200C90000077
:104650002056312E30300000256425642564256401
:104660002564256425640000F8B500250026CAE00D
:104670000026FDF741FA654890F86D00644951F84D
:10468000200000231A46194600901846FDF744FA08
:1046900002210020FDF734FA5C4890F86D105C4868
:1046A000083050F8210000231A4603210090102002
:1046B000FDF732FA554890F86D105548103050F813
:1046C000210000231A46052100901020FDF724FA4E
:1046D0004E4890F86D104E48183050F821000023D5
:1046E0001A46072100901020FDF716FA474890F867
:1046F0006D104748203050F8210000231A46092148
:1047000000901020FDF708FA404890F86D104048DE
:10471000283050F8210000231A460E210090184638
:10472000FDF7FAF968E0FDF7D5F904463E2C01D112
:10473000012562E0412C06D0422C46D0432C49D0C2
:10474000442C51D14BE0314890F86D00314951F87B
:10475000200000231A46194600901846FDF7DCF9A0
:104760000F23EF2203210020FDF7B8F9274890F826
:104770006D102848483050F8210000231A460E21B9
:1047800000901846FDF7C8F9204991F86D2021499D
:10479000083151F82200FBF701FF40087821A1EB16
:1047A000C000C7B2194890F86D101A48083050F888
:1047B000210000231A46032100903846FDF7ACF98A
:1047C00002E0142003F056FFFBE702E0142003F0A0
:1047D00051FFFBE702E0142003F04CFFFBE702E08F
:1047E000142003F047FFFBE700BF00BF012E00D1FC
:1047F00003E0142003F03EFF95E700BF05B103E09E
:10480000142003F037FF33E700BFF8BDA8C007202E
:10481000A4900000D490000010B598B0002016902D
:1048200015901490012013900020119010900F907B
:104830000D900990069002F019B800201690FDF72F
:104840005BF9F74890F86D00F64951F82000002315
:104850001A46194600901846FDF75EF9022100201D
:10486000FDF74EF9EE4890F86D10EE48083050F81C
:10487000210000231A46032100900F20FDF74CF978
:10488000E74890F86D10E748103050F821000023F9
:104890001A46052100900F20FDF73EF9E04890F8F8
:1048A0006D10E048183050F8210000231A46072107
:1048B00000900F20FDF730F9D94890F86D10D948D5
:1048C000203050F8210000231A46092100900F20C3
:1048D000FDF722F9D24890F86D10D248283050F8F0
:1048E000210000231A460B2100900F20FDF714F938
:1048F000CB4890F86D10CB48303050F821000023A1
:104900001A460E2100901846FDF706F90020159072
:1049100001F0A6BFFDF7DEF8179017983E2803D1E7
:104920000120169001F09EBF17984138052881F0AC
:104930009187DFE810F00500AB033207C70ABB0C14
:10494000A0E300201490FDF7D7F8B54890F86D006B
:10495000B54951F8200000231A4619460090184620
:10496000FDF7DAF802210020FDF7CAF8AC4890F80C
:104970006D10AD48083050F8210000231A4603217D
:1049800000900F20FDF7C8F8A54890F86D10A648D4
:10499000403050F8210000231A460E21009018469E
:1049A000FDF7BAF8142003F065FE00201190109076
:1049B0000F900D9060E3FDF78DF8179017983E2843
:1049C00002D10120159058E30F98E8B917984128B3
:1049D00017DB1798462814DC01200F9017981190C8
:1049E0008F4991F86D2011988F49103151F822109C
:1049F00000231A46CDE9001003210F20FDF78CF8A3
:104A000023E000200D9020E0179831281BDB179839
:104A1000382818DC17983038C0B21090804A92F8C5
:104A20006D30DDE91010804A183252F8232000233F
:104A3000CDE9002002911A4603210F20FDF76CF802
:104A400001200D9001E000200D900D98012870D1FB
:104A50000CE300200D901098411E1198401E01EBB0
:104A6000C000C0B212900423EF2203210020FDF702
:104A700035F86B4A92F86D30DDE910016A4A203250
:104A800052F823200023CDE9002102901A46032189
:104A90000F20FDF741F80923EF2206210020FDF742
:104AA0001DF85F491298085C91F86D205E49283125
:104AB00051F8221000231A46CDE9001006210F20DC
:104AC000FDF72AF8564930311298085C303991F8D0
:104AD0006D205549303151F8221000231A46CDE996
:104AE000001008210F20FDF717F85049129831F8EF
:104AF00010000A2190FBF1F201FB12004B490590D6
:104B0000129831F810000A2190FBF1F00490444A09
:104B100092F86D300599444A383252F82320002328
:104B2000CDE9002002911A460A210F20FCF7F4FF7C
:104B300096E29DE2142003F09DFD00201390FCF707
:104B4000C9FF179017983E2802D10120149088E2DF
:104B50001798412804D0422861D0432868D164E1E5
:104B60000B23EF2206210020FCF7B8FF2C491298F6
:104B7000085C91F86D202C49283151F8221001234E
:104B80000022CDE9001006210F20FCF7C5FF2448C4
:104B900030301299405C224991F86D202249303121
:104BA00051F8221000231A46CDE9001008210F20E9
:104BB000FCF7B2FF1D49129831F810000A2190FB52
:104BC000F1F201FB120019490590129831F810001A
:104BD0000A2190FBF1F00490114A92F86D3005998A
:104BE000114A383252F823200023CDE900200291E7
:104BF0001A460A210F20FCF78FFF4FE0FCF76AFFEF
:104C0000179017983C2802D017983E2811D1012000
:104C1000139017983C2801D1FEF714FD3FE040E0C7
:104C2000A8C00720149200004C92000022C1072067
:104C30000CE21798302802D031282AD114E0002144
:104C4000FE4A1298115411461298085C91F86D2092
:104C5000FB4951F8221001230022CDE90010062162
:104C60000F20FCF759FF15E00121F44A1298115466
:104C700011461298085C91F86D20F14951F8221004
:104C800001230022CDE9001006210F20FCF744FF8C
:104C900000E000BF00BF142003F0ECFCAEE700BF53
:104CA000D5E1E64830301299405C0E900B23EF229C
:104CB00006210020FCF712FFE0491298085C91F8E9
:104CC0006D20DF4951F8221000231A46CDE900106B
:104CD00006210F20FCF720FFD84830301299405CA5
:104CE000D64991F86D20D649083151F82210012398
:104CF0000022CDE9001008210F20FCF70DFFD1495B
:104D0000129831F810000A2190FBF1F201FB120019
:104D1000CC490590129831F810000A2190FBF1F06F
:104D20000490C64A92F86D30DDE90410C44A10328E
:104D300052F823200023CDE9002102901A460A21CF
:104D40000F20FCF7E9FE6DE0FCF7C4FE1790179802
:104D50003C2802D017983E2813D1012013901798B1
:104D60003C280DD1B54830301299415C0E988142F3
:104D700006D0B2493031129A0E988854FEF762FC80
:104D800051E00D9820BB1798302848DD1798392836
:104D900045DC00200E9001200D9017983038C0B2ED
:104DA0000E900923EF2208210020FCF797FEA3496B
:104DB00091F86D200E98A249083151F82210012374
:104DC0000022CDE9001008210F20FCF7A5FE26E007
:104DD0001798302823DB1798392820DC00200D9005
:104DE000179830380E9901EB810100EB4100C0B2F9
:104DF0000E900923EF2208210020FCF76FFE8F4957
:104E000091F86D200E988E49083151F82210012337
:104E10000022CDE9001008210F20FCF77DFE1420B0
:104E200003F028FC90E700BF11E10B23EF220621DD
:104E30000020FCF753FE81491298085C91F86D2020
:104E40007F4951F8221000231A46CDE900100621AF
:104E50000F20FCF761FE794830301299405C7749A9
:104E600091F86D207649083151F8221000231A4636
:104E7000CDE9001008210F20FCF74EFE7149129871
:104E800031F810000A2190FBF1F201FB12006D498C
:104E90000590129831F810000A2190FBF1F004906F
:104EA000664A92F86D30DDE90410654A103252F816
:104EB00023200123CDE90021029000220A210F20A6
:104EC000FCF72AFE0020099006900A900B9014200F
:104ED00003F0D0FBB0E0142003F0CCFBFCF7FAFDAC
:104EE000179017983E2802D017983C2814D117988D
:104EF0003C280ED15349129831F81010069881427F
:104F000007D0069881B24F4A129822F81010FEF787
:104F100045FA0120139097E01798302863DB179823
:104F2000392860DC099805285EDA00200C900DE035
:104F30000C98C0F103000AA9095C0C98C0F10400A8
:104F40000AAA11540C98401CC0B20C900C9804286A
:104F5000EEDB17983038C0B28DF828000998401C55
:104F6000C0B209909DF82C0042F2107148439DF8A0
:104F70002B1001EB4102C2EBC11100EBC1009DF807
:104F80002A1001EBC10202EB011100EB81009DF838
:104F9000291001EB810100EB41009DF82810084425
:104FA00006900B23EF220A210020FCF797FD0A212F
:104FB0000698B0FBF1F201FB120005900698B0FBD9
:104FC000F1F004901D4A92F86D3005991C4A103298
:104FD00052F823200123CDE90020029100220A216A
:104FE0000F20FCF799FD27E0002006900C9007E0C9
:104FF00000210AAA0C9811540C98401CC0B20C90C5
:105000000C980428F4DB0B23EF220A210020FCF784
:1050100065FD0021094890F86D300948103050F8BE
:105020002300CDE9000101230A4602910A210F2045
:10503000FCF772FD002009904DE70000A8C0072092
:105040007492000022C1072000BF00E000BF00BF33
:105050001498012800D104E01398012800D100E041
:1050600068E500BF1498012800D100E0F1E400BF1A
:105070001498012800D100E09DE400BF1598012894
:1050800000D100E05DE400BF01F0E5BB82E3002059
:105090001590FCF731FDFC4890F86D00FB4951F884
:1050A000200000231A46194600901846FCF734FDEC
:1050B00002210020FCF724FDF34890F86D10F3481E
:1050C000083050F8210000231A46032100900F20D9
:1050D000FCF722FDEE48B0F89000C00BEA4991F8C9
:1050E0006D20EA49103151F8221000231A46CDE90B
:1050F000001006210F20FCF70FFDE548B0F89000E6
:10510000C0F38030E04991F86D20E049183151F842
:10511000221000231A46CDE9001006216E20FCF76C
:10512000FBFCDB48B0F89000C0F34030D64991F862
:105130006D20D649203151F8221000231A46CDE9BE
:10514000001008210F20FCF7E7FCD148B0F89000D0
:10515000C0F30030CC4991F86D20CC49283151F88A
:10516000221000231A46CDE9001008216E20FCF71A
:10517000D3FCC748B0F89000C0F3C020C24991F8F2
:105180006D20C249303151F8221000231A46CDE972
:1051900000100A210F20FCF7BFFCBD48B0F89000BA
:1051A000C0F38020B84991F86D20B849383151F8E2
:1051B000221000231A46CDE900100A216E20FCF7C8
:1051C000ABFCB14890F86D10B048403050F8210069
:1051D00000231A460E2100901846FCF79DFC002083
:1051E0001490D1E2FCF776FC179017983E2802D174
:1051F00001201590C9E217984138062873D2DFE8DC
:1052000000F00375E8FDFCFBA148B0F89000C00B6E
:105210009D4991F86D209D49103151F822100123CC
:105220000022CDE9001006210F20FCF775FC9848FC
:10523000B0F89000079055E0FCF74CFC17901798D9
:105240003C2802D017983E2818D117983C2812D134
:105250008F48B0F89010079881420CD08C4907987D
:10526000A1F890000846B0F8900000F47C40A1F846
:105270009000FEF793F80120149035E0179830283D
:1052800002D0312829D114E00798C0F30E0007900E
:1052900000217D4890F86D207C48103050F82200A5
:1052A00001230A46CDE9000106210F20FCF734FC5A
:1052B00014E04FF4004007900121734890F86D20EE
:1052C0007248103050F822000B460022CDE9000150
:1052D00006210F20FCF720FC00E000BF00BF1420D7
:1052E00003F0C8F9A8E749E200BF48E26848B0F80F
:1052F0009000C0F38030644991F86D206349183103
:1053000051F8221001230022CDE9001006216E2061
:10531000FCF702FC5E48B0F89200079056E0FCF7FC
:10532000D9FB179017983C2802D017983E2818D11F
:1053300017983C2812D15648B0F89010079881422F
:105340000CD053490798A1F890000846B0F8900097
:1053500000F47C40A1F89000FEF720F801201490A2
:1053600035E01798302802D031282AD115E04BF6C5
:10537000FF710798084007900021434890F86D207E
:105380004248183050F8220001230A46CDE90001B6
:1053900006216E20FCF7C0FB14E04FF4804007901C
:1053A0000121394890F86D203848183050F8220013
:1053B0000B460022CDE9000106216E20FCF7ACFB74
:1053C00000E000BF00BF142003F054F9A7E700BFBE
:1053D000D5E12F48B0F89000C0F340302A4991F849
:1053E0006D202A49203151F8221001230022CDE9F5
:1053F000001008210F2002E04DE1D9E065E0FCF744
:105400008BFB2348B0F8900007905BE0FCF762FB51
:10541000179017983C2802D017983E2818D1179853
:105420003C2812D11A48B0F89010079881420CD04D
:1054300017490798A1F890000846B0F8900000F4CA
:105440007C40A1F89000FDF7A9FF012014903AE0FC
:105450001798302802D031282FD11BE04DF6FF716C
:105460000798084007900021074890F86D200748EA
:10547000203050F8220001230A46CDE9000108211E
:105480000F20FCF749FB19E0A8C007209492000008
:1054900022C107204FF4005007900121FE4890F8E8
:1054A0006D20FE4850F822000B460022CDE9000195
:1054B00008210F20FCF730FB00E000BF00BF1420E4
:1054C00003F0D8F8A2E700BF59E1F548B0F8900022
:1054D000C0F30030F04991F86D20F049083151F8DF
:1054E000221001230022CDE9001008216E20FCF7D4
:1054F00013FBEB48B0F89000079056E0FCF7EAFA8F
:10550000179017983C2802D017983E2818D1179862
:105510003C2812D1E248B0F89010079881420CD094
:10552000DF490798A1F890000846B0F8900000F411
:105530007C40A1F89000FDF731FF0120149035E088
:105540001798302802D031282AD115E04EF6FF7185
:105550000798084007900021CF4890F86D20CF4869
:10556000083050F8220001230A46CDE90001082145
:105570006E20FCF7D1FA14E04FF48050079001211F
:10558000C54890F86D20C548083050F822000B46F9
:105590000022CDE9000108216E20FCF7BDFA00E0F1
:1055A00000BF00BF142003F065F8A7E700BFE6E0E6
:1055B000BB48B0F89000C0F3C020B74991F86D2007
:1055C000B649103151F8221001230022CDE9001014
:1055D0000A210F20FCF7A0FAB148B0F8900007901C
:1055E00056E0FCF777FA179017983C2802D01798E6
:1055F0003E2818D117983C2812D1A948B0F890102D
:10560000079881420CD0A6490798A1F89000084657
:10561000B0F8900000F47C40A1F89000FDF7BEFEC9
:105620000120149035E01798302802D031282AD173
:1056300015E04FF2FF710798084007900021964847
:1056400090F86D209548103050F8220001230A464A
:10565000CDE900010A210F20FCF75EFA14E04FF4B7
:105660000060079001218C4890F86D208B48103025
:1056700050F822000B460022CDE900010A210F203C
:10568000FCF74AFA00E000BF00BF142002F0F2FF6E
:10569000A7E700BF73E08248B0F89000C0F3802015
:1056A0007D4991F86D207D49183151F82210012370
:1056B0000022CDE900100A216E20FCF72DFA78486F
:1056C000B0F89000079056E0FCF704FA179017988E
:1056D0003C2802D017983E2818D117983C2812D1A0
:1056E0006F48B0F89210079881420CD06C49079827
:1056F000A1F890000846B0F8900000F47C40A1F8B2
:105700009000FDF74BFE0120149035E017983028EB
:1057100002D031282AD115E04FF6FF310798084012
:10572000079000215C4890F86D205C48183050F8D4
:10573000220001230A46CDE900010A216E20FCF770
:10574000EBF914E04FF4806007900121524890F883
:105750006D205248183050F822000B460022CDE947
:1057600000010A216E20FCF7D7F900E000BF00BF5E
:10577000142002F07FFFA7E700BF00E000BF00BFDA
:105780001498012800D100E02CE500BF15980128ED
:1057900000D100E07BE400BF76E490E300201590A8
:1057A000FCF7AAF93C4890F86D003E4951F82000FA
:1057B00000231A46194600901846FCF7ADF902215D
:1057C0000020FCF79DF9344890F86D1035480830FA
:1057D00050F8210000231A46032100900F20FCF707
:1057E0009BF92F48B0F89200C00B2B4991F86D201F
:1057F0002C49103151F8221000231A46CDE900102F
:1058000006210F20FCF788F92548B0F89200C0F374
:105810008030214991F86D202249183151F8221029
:1058200000231A46CDE9001006216E20FCF774F91A
:105830001B48B0F89200C0F34030174991F86D2032
:105840001849203151F8221000231A46CDE90010E2
:1058500008210F20FCF760F91148B0F89200C0F35E
:1058600000300D4991F86D200E49283151F8221071
:1058700000231A46CDE9001008216E20FCF74CF9F0
:105880000748B0F89200C0F3C020034991F86D209A
:105890000449303108E00000A8C00720B49200009D
:1058A00022C10720DC92000051F8221000231A4682
:1058B000CDE900100A210F20FCF72EF9FE48B0F8C0
:1058C0009200C0F38020FD4991F86D20FC4951F809
:1058D000221000231A46CDE900100A216E20FCF7A1
:1058E0001BF9F64890F86D10F548083050F8210083
:1058F00000231A460E2100901846FCF70DF90020EF
:105900001490D6E2FCF7E6F8179017983E2802D1DB
:1059100001201590CEE217984138062874D2DFE8AE
:1059200000F00376EAFDFCFBE348B0F89200C00B00
:10593000E24991F86D20E249283951F822100123FB
:105940000022CDE9001006210F20FCF7E5F8DA4827
:10595000B0F89200079056E0FCF7BCF81790179843
:105960003C2802D017983E2818D117983C2812D10D
:10597000D148B0F89210079881420CD0CE490798D0
:10598000A1F892000846B0F8920000F47C40A1F81B
:105990009200FDF703FD0120149036E0179830289F
:1059A00002D031282AD114E00798C0F30E000790E6
:1059B0000021C24890F86D20C148283850F82200D4
:1059C00001230A46CDE9000106210F20FCF7A4F8C7
:1059D00015E0079840F4004007900121B74890F87F
:1059E0006D20B748283850F822000B460022CDE938
:1059F000000106210F20FCF78FF800E000BF00BF78
:105A0000142002F037FEA7E74DE200BF4CE2AA489F
:105A1000B0F89200C0F38030A84991F86D20A849F1
:105A2000203951F8221001230022CDE9001006216F
:105A30006E20FCF771F8A048B0F89200079057E08C
:105A4000FCF748F8179017983C2802D017983E2882
:105A500018D117983C2812D19748B0F8921007989F
:105A600081420CD094490798A1F892000846B0F8FA
:105A7000920000F47C40A1F89200FDF78FFC012019
:105A8000149036E01798302802D031282BD115E039
:105A90004BF6FF710798084007900021874890F85F
:105AA0006D208748203850F8220001230A46CDE9AE
:105AB000000106216E20FCF72FF815E0079840F44E
:105AC0008040079001217D4890F86D207C48203867
:105AD00050F822000B460022CDE9000106216E207D
