:020000040000FA
:10000000C0C60720AD020000B5020000B702000024
:10001000B9020000BB020000BD02000000000000A9
:1000200000000000000000000000000015020000B9
:10003000C10200000000000059020000B19D000054
:10004000C7020000199F0000619F00001DA0000072
:100050006DA00000BDA50000C702000061A6000061
:10006000C7020000C702000089370000C702000075
:10007000C7020000C7020000C7020000C70200005C
:10008000C7020000C7020000C702000015310000CF
:10009000C7020000C7020000C7020000C70200003C
:1000A000C7020000C7020000C7020000C70200002C
:1000B000C7020000C7020000C7020000C70200001C
:1000C000C7020000C7020000C702000000F002F8EB
:1000D00000F090F80AA090E8000C82448344AAF152
:1000E0000107DA4501D100F085F8AFF2090EBAE850
:1000F0000F0013F0010F18BFFB1A43F0010318475C
:1001000080000100B0000100103A24BF78C878C117
:10011000FAD8520724BF30C830C144BF04680C600D
:10012000704700000023002400250026103A28BF55
:1001300078C1FBD8520728BF30C148BF0B60704759
:100140006E2900F0B283702900F00B8566290BF050
:10015000918765290BF08E8767290BF08B876129C2
:10016000AFF3008003681B0A28BF41F080016929B2
:1001700000F03E81642900F03B81752900F0388150
:100180006F2900F09984782900F0D784E92900F0DC
:100190003384E42900F03084F52900F02D84EF2920
:1001A00000F09684F82900F0D6840368DB0928BFA4
:1001B00041F08001632900F0B483732900F0B98312
:1001C000E32900F06787F32900F06C87002070476F
:1001D0001FB500F0B9FF0400002000210BF034FF30
:1001E000401C6060002000210BF018FFE0601FBD84
:1001F00010B510BD00F07AFF1146FFF7E9FF0AF0D5
:1002000055FE01F053F803B4FFF7F2FF03BC01F011
:100210009BF80000224B19680868B0E8F00F80F3E3
:100220000988BFF36F8F4FF0000080F311884EF004
:100230000D0E70470000000006480068006880F35B
:10024000088862B661B6BFF34F8FBFF36F8F00DFD0
:1002500000BF00BF08ED00E0EFF30980BFF36F8F30
:100260000F4B1A6820E9F00F106008B54FF0280016
:1002700080F31188BFF34F8FBFF36F8F0BF032FB0A
:100280004FF0000080F31188BDE808401968086845
:10029000B0E8F00F80F30988BFF36F8F704700BF9D
:1002A0004CC00720EFF305807047000009488047E5
:1002B00009480047FEE7FEE7FEE7FEE7FEE7FEE748
:1002C000FEE7FEE7FEE7FEE704480549034A054B63
:1002D00070470000E59D0000CD000000C0C407206D
:1002E000C0C60720C0C4072002F0FF0343EA032270
:1002F00042EA024200F024BA70477047FFFFFFFF56
:100300001CB50C46064B7B4469460090204600F025
:10031000E6FA04460020694600F0F4FA20461CBDC7
:10032000FB0500000FB41CB5084B06AA7B446946C8
:100330000090059800F0D3FA04460020694600F0CA
:10034000E1FA20461CBC5DF814FB0000D505000056
:1003500070B5044685690068C10601D5302600E005
:100360002026C00707D070BDD4E901213046904750
:10037000206A401C20626D1EF6D570BD70B5044623
:1003800085690078C00707D170BDD4E9012120201C
:100390009047206A401C20626D1EF6D570BD70B576
:1003A0000C460546012A05D02878800600D5EA6962
:1003B000002302E0012305E05B1C934202D2E05CD3
:1003C0000028F9D1A869E618C01AA861286A18445B
:1003D00028622846FFF7BCFF04E0D5E9012114F8A4
:1003E000010B9047B442F8D32846FFF7C7FF70BD12
:1003F0002DE9F0410646002410687529314616A5FE
:1004000010D000F0E7F9002802DA404213A507E017
:1004100031688A0701D512A502E0490704D511A564
:10042000012401E000F0DFF900210A2206F124078F
:1004300009E0B0FBF2FCB0FBF2F302FB1C00303031
:1004400078541846491C0028F3D123462A463046E2
:10045000BDE8F04100F0D0B9000000002D00000020
:100460002B000000200000002DE9F05F89460446C3
:100470004FF0000ADFF874B1FB44C0F820A020461A
:10048000E1688847002874D0252806D0D4E90121E6
:100490009047206A401C2062F1E700265F46204614
:1004A000E16888472028054607DB312D05D27819F9
:1004B00010F8200C08B10643F1E7B00701D526F08B
:1004C0000406C4F81CA00027C4F818A02A2D09D0DF
:1004D00028460AF0E3FC38B304EB8708303DC8F83F
:1004E000185019E059F8041B204604EB870291616B
:1004F000E1688847012F054618D1E069002820DA15
:1005000026F020061DE0D8F8180000EB800005EB6F
:1005100040003038C8F818002046E1688847054692
:100520000AF0BCFC0028EED1012F0AD02E2D08D1F4
:100530002046E16888477F1C0546022F46F02006CA
:10054000C4DBA069002803DA404246F00106A0613E
:10055000F00701D026F010066C2D0BD0682D09D0C5
:100560004C2D39D06A2D35D0742D35D07A2D33D01D
:1005700016E038E0E1682F4620468847B842054635
:1005800009D16C2F26D04FF48060E16806432046E5
:100590008847054604E06C2F1AD04FF4807006435C
:1005A0000DB3A5F14100192802D8203546F40066A4
:1005B0004A462946204626604E46FFF7C1FD80B1D7
:1005C00001280BD0F61D26F0070000F1080956E7B8
:1005D0004020E4E78020D8E70020D6E706F10409B0
:1005E0004DE7284652E7206ABDE8F09F1EEB000069
:1005F00030B505460B462A4613F8014B12F8010B9D
:1006000008B1A042F8D01CB1002802D06D1CF1E75F
:10061000284630BD40EA0103024630B59B0710D1A1
:100620004FF0013400E008C208C91D1B9D4315EAC4
:10063000C41FF8D013F0FF0102F8011B0DD01B0AF4
:10064000F8E711F8013B002B02F8013B05D011F847
:10065000013B002B02F8013BF3D130BD10B5431C28
:1006600002E010F8011B71B18107FAD14FF001329D
:1006700002C88C1A8C4314EAC211F9D0C01A0A06B7
:1006800003D0C01E10BDC01A10BD0A0401D0801EC8
:1006900010BD0902FCD0401E10BD421E12F8013FE1
:1006A000002BFBD111F8013B002B02F8013BF9D1E3
:1006B0007047032A40F2308010F0030C00F01580E0
:1006C00011F8013BBCF1020F624498BF11F801CB55
:1006D00000F8013B38BF11F8013BA2F1040298BFBA
:1006E00000F801CB38BF00F8013B11F0030300F024
:1006F0004382083AC0F0088051F8043B083A51F8A8
:1007000004CBA0E80810F5E7121D5CBF51F8043BCC
:1007100040F8043BAFF30080D20724BF11F8013B3F
:1007200011F801CB48BF11F8012B24BF00F8013BA1
:1007300000F801CB48BF00F8012B70474FF00002D2
:100740000429C0F0128010F0030C00F01B80CCF1E3
:10075000040CBCF1020F18BF00F8012BA8BF20F851
:10076000022BA1EB0C0100F00DB85FEAC17C24BFA5
:1007700000F8012B00F8012B48BF00F8012B70474F
:100780004FF0000200B5134694469646203922BF2A
:10079000A0E80C50A0E80C50B1F12001BFF4F7AF75
:1007A000090728BFA0E80C5048BF0CC05DF804EB57
:1007B000890028BF40F8042B08BF704748BF20F8C5
:1007C000022B11F0804F18BF00F8012B70477047C3
:1007D0007047704709684A0501D540B27047C9059E
:1007E000FCD500B2704709684A0501D5C0B2704710
:1007F000C905FCD580B270472DE9F0470D469946F2
:100800009246044600F124080168880604D5E06990
:1008100021F01001216000E00120A84201DD471B0A
:1008200000E00027A1697A1902EB0900081AA0610B
:100830002078C00602D42046FFF78AFD002608E093
:10084000D4E901211AF806009047206A401C761C62
:1008500020624E45F4DB2078C0060AD52046FFF71B
:1008600077FD06E0D4E9012130209047206A401C42
:100870002062381EA7F10107F4DC07E0D4E901216A
:1008800018F805009047206A401C2062281EA5F138
:100890000105F3DC2046FFF771FD2078000602D544
:1008A0000220BDE8F0870120FBE711680268006ABA
:1008B000530501D508700AE0D30501D5088006E08C
:1008C000130603D5C217C1E9000200E00860012049
:1008D0007047000001694A1C02610878704700B542
:1008E0008FB0CDE901310021059105497944CDE969
:1008F000031011466846FFF7B7FD0FB000BD0000BA
:10090000E5FFFFFF0A6802F8010B0A60704710B5A7
:10091000436913B1AFF3008001E0FFF740FD012010
:1009200010BD127800F124010A7000224A700122E1
:10093000EDE711684FF0FF32E9E700002DE9FF5FB6
:1009400015468A460446DFF8AC80F8440027D8E90B
:1009500000103E46CDE9001010E03AF816106A4645
:1009600002A800F0A3FB411C07D02178890603D51B
:10097000E269391891420DD80744761C2078800628
:1009800002D5E069B84205DDAE42E6DB3AF8160072
:100990000028E2D1A069C01BA0612046FFF7D8FC67
:1009A000D8E90010CDE90010002017E03AF818103F
:1009B0006A4602A800F07AFBB0F1FF3F81460BD0F7
:1009C00000250DF1080B05E0D4E901211BF8050015
:1009D00090476D1C4D45F7D308F10100B0428046A9
:1009E000E4DB206A384420622046FFF7C7FCBDE8FC
:1009F000FF9F00005EE600002DE9F0418046D21D19
:100A000022F007020025D2E90002F52915A614D02C
:100A1000011E72F1000106DA0023D0EB030063EB44
:100A2000020211A608E0D8F800108B0701D50FA626
:100A300002E0490701D50EA601251146002408F160
:100A4000240704E000F0CAF830323A55641C50EA3A
:100A50000102F7D12B46324621464046BDE8F0411F
:100A6000FFF7CABE000000002D0000002B000000B0
:100A70002000000030B4002100F1240408E002F05E
:100A80000705D208303542EA4372DB086554491C39
:100A900052EA0305F3D10468002310A2250708D504
:100AA00004F020040C4304D0C46901230CA2641E8A
:100AB000C46130BCFFF7A0BE10B5044621461068E3
:100AC000FFF791FE02462046BDE810400023D1E723
:100AD000D21D22F00701D1E90023CBE7000000007E
:100AE00030000000F0B40D460188090502D5214C04
:100AF0007C4402E01F4C7C440E34002100F12406AB
:100B000008E002F00F071209E75D42EA03721B09D1
:100B10007754491C52EA0307F3D1027800231207E5
:100B200004D5702D06D009B1022311342246F0BC41
:100B3000FFF762BE01231034F8E770B504460D4696
:100B400021461068FFF74FFE024629462046BDE8C1
:100B500070400023C6E7D21D22F00703D3E900232B
:100B6000C0E70368126843F0200303600823C361F1
:100B70000023B7E7C0E4000010B5203AC0F00B80B6
:100B8000B1E81850203AA0E81850B1E81850A0E891
:100B90001850BFF4F5AF5FEA027C24BFB1E81850EB
:100BA000A0E8185044BF18C918C0BDE810405FEA5B
:100BB000827C24BF51F8043B40F8043B08BF7047D7
:100BC000D20728BF31F8023B48BF11F8012B28BFDC
:100BD00020F8023B48BF00F8012B704730B5B0F158
:100BE0000A024FEA900E71F100034EEA817EB0EBEB
:100BF0000E0061EB91014FEA101E4EEA017E10EBF0
:100C00000E0041EB11114FEA102E4EEA016E10EB6F
:100C10000E0041EB11214FEA104E4EEA014E10EB4F
:100C20000E0041EB1141401841F100014FEAD000A4
:100C300040EA41704FEAD10110EB80054FEA810490
:100C400044EA907444EB01046D1944EB0404521B14
:100C5000A3414FF0000348BF0A3200D530BD401C0D
:100C600041F1000130BD70472DE9FF4F0C461E4693
:100C70004FF0FF378BB0D2E90001DDF860800A90B9
:100C80008A46C1F30A5505B93D46002108464FF092
:100C90000000BAF1000F00F4400005DA00EB80001C
:100CA0004FF4400101EA50004FEA9059B9F1010FA9
:100CB00000DDB9460A9850EA4A000ED044F61050BA
:100CC000A5F2FF3545432F14B8F1000F1ED0754231
:100CD000291E1EDDC9F100021CE0B8F1010F4FF022
:100CE000000001D0302103E0F24305E02154401C14
:100CF000B042FBDB30460022002121540B99C1F8A1
:100D00000880C1E900200FB0BDE8F08FBD1B6D1C4D
:100D1000DEE74A4600DA694206A800F059FA06AB57
:100D200093E8070003AB83E8070050460A9900F0F8
:100D300011FB8DE80700A0F500501F3800900398C4
:100D4000002D09DD42F21F014A46084403A9039021
:100D5000684600F070FD08E0A0F500504A461F38D4
:100D600003A90390684600F07AFD8DE807000004AF
:100D7000000C03D04FF0FF30410800E01046B8F1FE
:100D8000000F03D00022009215461EE0751E05D408
:100D9000FFF724FF303262556D1EF9D5B3460122AC
:100DA000084302D000227F1C04E02078302801D1C3
:100DB00000227F1E002A099786D01DE0112D07DA38
:100DC000FFF70CFF303262556D1C50EA0102F5D17D
:100DD000084302D00098C8B10EE00021681E05E06B
:100DE000235C625C63542254401E491C8142F7DB41
:100DF000AB46A81B401E0990002004F80B000B987E
:100E0000099AC0F80880C0E9002B7CE711264FF052
:100E1000000859E72DE9F04F88460446D21D22F01C
:100E2000070191B0D1E90001CDE90A010AF022F8E9
:100E300002460B98C00F01D02D2007E020688107E3
:100E400001D52B2002E0202101EAC000032A0990ED
:100E500001D0072A05DB03464146204600F078F919
:100E60000BE12078800601D5E06900E00620B8F1AA
:100E7000650F814606D0B8F1660F18D0B8F1670F3C
:100E800070D131E00020B9F1110F009001DB112386
:100E900001E009F101030AAA01A90CA8FFF7E4FE89
:100EA000DDE90C70002609F10105834647E00120C9
:100EB0004B4600904FF000470AAA01A90CA8FFF783
:100EC000D3FEDDE90DB00C995D46002610B909F19D
:100ED00001000D18B9EB050003D4C0F1FF3609F18C
:100EE0000105A5EB09002BE0B9F1010F01DA4FF084
:100EF00001090020B9F1110F0090484601DD1123CE
:100F000000E003460AAA01A90CA8FFF7ADFEDDE93F
:100F10000C704D4600268346207800070AD4AB4566
:100F200000DA5D4601A8012D04DD411911F8011C0C
:100F3000302907D04F4502DA17F1040F04DA0120F7
:100F400082460FE06D1EEEE7002F02DCED1B3E44F3
:100F500003E0781CA84200DD7D1CB81B00F1010AEB
:100F60004FF000472078000703D4AA4501DB4FF07B
:100F7000FF3A0021B7F1004F0DF143088DF84310FF
:100F800024D002202B23002F01DA7F422D230A21B7
:100F9000021EA0F1010000DC5FB197FBF1FC97FBA2
:100FA000F1F201FB1C7C17460CF1300C08F801CD66
:100FB000EEE7A8F1010003702188090501D545215C
:100FC00000E06521A0F1010800F8011C09980FA9B3
:100FD000A1EB0807FF1D00B10120411901EBEA70E8
:100FE000A1693844081A401EA0612078C00602D4C6
:100FF0002046FFF7ADF9099828B1D4E901219047BF
:10100000206A401C20622078C00622D52046FFF7C7
:101010009FF91EE0002E04DBB34502DD01A8805DD0
:1010200000E03020D4E901219047206A401C206272
:10103000761CAAF101005FEA000A0AD100F084F8E8
:10104000C0680168405CD4E901219047206A401CD7
:101050002062281EA5F10105DCDC07E0D4E90121AE
:1010600018F8010B9047206A401C2062381EA7F137
:101070000107F3DC2046FFF781F9032011B043E6B6
:1010800010B5436913B1AFF3008001E0FFF756FCE0
:10109000012010BD128800F1240182840022C28444
:1010A0000122EDE711684FF0FF32E9E770B516460F
:1010B0000C46054600F040F8036893F8010101284A
:1010C00006D0FF2C0FD8185D68B101202C7070BDC0
:1010D000D3F807013246214603F20713034428469A
:1010E000BDE8704018474FF0FF3070BD754600F006
:1010F000E7F8AE4605006946534620F007008546EE
:1011000018B020B5FFF7E0F8BDE820404FF000062A
:101110004FF000074FF000084FF0000B21F00701DF
:10112000AC46ACE8C009ACE8C009ACE8C009ACE822
:10113000C0098D467047000010B500F005F8001D8D
:1011400010BD00BF05AF0000004870477CC40720F9
:101150002DE9F0411F46044603260168072A01F4E1
:10116000006004DB08B116A505E016A503E008B190
:1011700015A500E015A521F010002060A069C01E93
:10118000A0610FB1401EA0612046FFF7E1F84FB10A
:10119000D4E9012138469047206A401C2062C01CD7
:1011A000206206E0206AFAE7D4E9012115F8010B74
:1011B0009047761EF8D22046FFF7E0F8BDE8F081B0
:1011C0004E414E006E616E00494E4600696E6600EB
:1011D0002DE9F047814616468AB0334878440DC859
:1011E0008DE80D0030487844801C03AC0DC884E8BD
:1011F0000D0041F69B300844372190FBF1F290FB43
:10120000F1F5A5F1800501FB12041B3C02D56442F7
:10121000012000E00020DFF890A080460027FA447B
:10122000AAF1BE0A0DE0E00709D03246684607EB96
:1012300047010AEB810100F012FB8DE80700641002
:101240007F1C002CEFD1184F7F44AC3F18E0E8071B
:1012500014D007EB04100DF1180A90E80E008AE88C
:101260000E00C068F04201D198190890324606A9D4
:1012700003A800F0F4FA03AB83E807006D10641CC8
:10128000002DE4D132466946B8F1000F03A802D020
:1012900000F0D1FA01E000F0E2FAC9E90001C9F872
:1012A00008200AB0BDE8F08778DE000010B50446DB
:1012B000AFF300802046BDE81040FEF7A4BF000059
:1012C000004870475CC407204FF0013C50F8042BE5
:1012D00051F8043B9A4221D1A2EB0C03934313EA49
:1012E000CC1317D150F8042B51F8043B9A4215D176
:1012F000A2EB0C03934313EACC130BD150F8042B4D
:1013000051F8043B9A4209D1A2EB0C03934313EA30
:10131000CC13DBD04FF00000704700BFD01A01BAE9
:10132000B1FA81F101F0180122FA01F0CB40C1F1CC
:101330002001DBB2C0B2C01A2CFA01F3D11A9143DA
:1013400011EAC311E6D1704701491820ABBEFEE790
:10135000260002005FEA400C08BF91F0000F4FEA40
:101360008C234FEAC12243EA51514FEA1C5018BF67
:1013700000F5F0404FEA300018BF41F000415FEA4D
:101380006C5C00F02980BCF1FF3F08BF40F080405A
:101390007047130C06BF12044FF0100C4FF0000CF6
:1013A000130E04BF12020CF1080C130F04BF12013C
:1013B0000CF1040C930F04BF92000CF1020CD30F3C
:1013C00004BF52000CF1010C11464FF00002A0F1D5
:1013D0001F00A0EB0C00704711F0004F08BF7047D2
:1013E00031F000413FF4D5AF0B0C06BF09044FF0BC
:1013F000100C4FF0000C0B0E04BF09020CF1080C8E
:101400000B0F04BF09010CF1040C8B0F04BF890002
:101410000CF1020CCB0F04BF49000CF1010CCCF114
:101420002003A0EB0C0022FA03F302FA0CF241EACB
:10143000030100F10100704720F07F4C80EA0300B7
:1014400023F07F47ACEB070303F57C5300F000402B
:1014500003F1FF032DE980494FEA154B09B44FEA28
:10146000144325EA0B4E24EA03480FF2042606EB48
:10147000132749083E785FEA320203FB0667C7F587
:10148000000707FB06F64FEA54374FEAD64606F147
:10149000020607FB066CCCF1005C4FEA1C472CEA05
:1014A000074C07FB06F40CFB06F504EB15464FEA68
:1014B000961634BF00204FF000404FEAD13706FBAC
:1014C00007FC4FEA1C4C0CFB0BF7D21B03FB0CF781
:1014D00061EB07010CFB0EF7B0EB074072EB174214
:1014E0000CFB08F734BFA2EB0742B2EB074261EBFB
:1014F00017414FEA0C444FEA910706FB07FC4FEAFD
:101500001C4C0CFB0BF7B0EBC74072EB573203FBE4
:101510000CF734BFA2EBC742B2EBC74261EB5731C5
:101520000CFB0EF7B0EBC70072EB57720CFB08F721
:1015300034BFA2EBC702B2EBC70261EB5771039F46
:101540004FEA816141EA921104EBCC044FEAD137B2
:101550004FEA826206FB07FC42EA90124FEA806083
:101560004FEA1C4C0CFB0BF7D21B03FB0CF761EB97
:1015700007010CFB0EF7B0EB074072EB17420CFBB8
:1015800008F734BFA2EB0742B2EB074261EB174109
:101590004FEA8C554FEA910704EB9C2406FB07FCAD
:1015A0004FEA1C4C0CFB0BF7B0EBC74072EB573209
:1015B00003FB0CF734BFA2EBC742B2EBC74261EBAF
:1015C00057310CFB0EF7B0EBC70072EB57720CFBF8
:1015D00008F734BFA2EBC702B2EBC70261EB577149
:1015E00015EB4C254FEA816141EA92114FEA826284
:1015F0004FEAD13742EA901206FB07FC44F100049F
:101600004FEA80604FEA1C4C0CFB0BF7D21B03FB2C
:101610000CF761EB07010CFB0EF7B0EB074072EB28
:1016200017420CFB08F734BFA2EB0742B2EB0742AC
:1016300061EB174115EB1C154FEA813141EA9241EC
:101640004FEA823242EA90424FEA80304FEA0C760B
:1016500044F1000448EA03434EEA0B484FF0000E01
:10166000B2EB080C71EB030724BF624639464EEB20
:101670000E0E4FF0000B0018524149414BEB0B0B83
:10168000B2EB080C71EB03077BF1000B24BF624641
:1016900039464EEB0E0E4FF0000B001852414941F7
:1016A0004BEB0B0BB2EB080C71EB03077BF1000B60
:1016B00024BF624639464EEB0E0E51EA020718BFB0
:1016C00046F0010616EB0E7655F1000254F10001CA
:1016D00003D5BDE88901BDE80088BDE88901BDE802
:1016E0000048B619524141EB0101A3F101037047D3
:1016F00080807F7E7D7C7B7A79787776767574734F
:10170000727171706F6E6E6D6C6C6B6A6A6968680D
:10171000676666656464636362616160605F5F5EA3
:101720005E5D5D5C5C5B5B5A5A5959585857575619
:10173000565555555454535352525251515050507E
:101740004F4F4F4E4E4D4D4D4C4C4C4B4B4B4A4AD0
:101750004A49494948484847474747464646454514
:10176000454444444443434343424242424141414D
:10177000002B26D4770021D01CB54FEA370703B4DD
:101780004FF010004FF010014FF000000FBCBDE80B
:1017900010400BF1010BBBF1010F08BF5FEA170707
:1017A00022BF12F1010211F101014FF0004143F19A
:1017B000000300F0004043EA00007047F9D35708E7
:1017C000DAE746EA064613F1400F4FEA16461FDDF8
:1017D00013F1200FDFBF16430A46002120335B427E
:1017E000C8D0C3F1200746EA064602FA07F74FEAD7
:1017F000164646EA0706C3F1200722FA03F201FA69
:1018000007F721FA03F14FF0000342EA0702B1E7BC
:1018100046EA020646EA06464FEA164646EA010648
:10182000BCBF46EA0646360C4FF000034FF00002FC
:101830004FF000019EE72DE9C048934630B491E88F
:10184000380007C831EA400C48BF34EA430C03D5DE
:10185000FFF7F2FDFFF78CFFF0BCBDE800882DE933
:10186000C048934630B491E8380007C810F0804F64
:1018700008BF13F0804F03D100F005F8FFF778FFA1
:10188000F0BCBDE8008820F07F4780EA030023F029
:101890007F4C07EB0C03A3F57C5300F00040A3F151
:1018A000FE0392F0000F00F0B38095F0000F00F0FF
:1018B00077802DE901494FEA11404FEA144621EAA9
:1018C000004800FB06FC24EA064708FB06F607FB77
:1018D00008F800FB07F718EB06484CEB164C4FEAEC
:1018E000124B18EB07484FEA15464CEB174022EA1B
:1018F0000B4E0BFB06FC25EA06470EFB06F607FB24
:101900000EFE0BFB07F71EEB064E4CEB164C4FF092
:1019100000061EEB074E4CEB174B18EB0B0840F183
:10192000000018EB0E0B58EB000840F100008F1A76
:101930004FF000013CBFC943661B14BFB5EB040C5C
:1019400000213CBFC943F61B4FEA17444EEA8E0EF6
:1019500027EA04454FEA1C4704FB07622CEA074CC0
:1019600005FB07F70CFB05F604FB0CFC16EB074622
:1019700042EB174216EB0C4642EB1C421BEB0606F1
:1019800058EB0202414146EA9E0601D5BDE80189B5
:10199000B619524141EB0101A3F10103BDE80189F0
:1019A0004FEA14454FEA114724EA054621EA074C5D
:1019B00005FB07F406FB07F70CFB06F105FB0CFC27
:1019C00011EB074144EB17444FEA124711EB0C416E
:1019D00044EB1C4422EA074C05FB07F206FB07F721
:1019E0000CFB06F605FB0CFC16EB074642EB174218
:1019F00016EB0C4642EB1C456A1854F1000148BF37
:101A00007047B619524141EB0101A3F10103704740
:101A100095F0000F37D04FEA11424FEA144721EA00
:101A2000024624EA074C02FB07F106FB07F70CFB12
:101A300006F402FB0CFC14EB074441EB17414FEAA0
:101A4000154714EB0C4441EB1C4125EA074C02FB03
:101A500007F506FB07F70CFB06F602FB0CFC16EB82
:101A6000074645EB174516EB0C4645EB1C42121991
:101A700051F1000148BF7047B619524141EB0101D5
:101A8000A3F1010370474FEA14454FEA114724EAD6
:101A9000054621EA074C05FB07F106FB07F70CFB9F
:101AA00006F24FF0000605FB0CFC12EB074241EB7F
:101AB000174112EB0C4251EB1C4148BF7047921882
:101AC00041EB0101A3F10103704710B500F01AFECC
:101AD00010BD70B505460C4625B1012D06D0022D6E
:101AE00006D104E0204602F0F1F902E001E000E056
:101AF00000BF00BF70BD70B50446002524B1012CA5
:101B000006D0022C06D104E008F02CFE054602E0C7
:101B100001E000E000BF00BF284670BD10B501F035
:101B200057FD10BDF8B507460C4615461E462B4618
:101B3000224602213846009601F07EFDF8BDF8B538
:101B400007460C4615461E462B46224602213846BD
:101B5000009601F0C7FDF8BD10B502F04DFC10BDB8
:101B600010B508F0A3F810BD2DE9F04104460D466C
:101B700016461F463B4632462946204602F0A4FC44
:101B8000BDE8F08110B502F0BDFC10BD70B5044693
:101B90000D462946204602F0CAFC70BD10B502F081
:101BA000D9FC10BD2DE9F0438FB005460F4616460F
:101BB0009846002417A8009001A8009A1699FEF7ED
:101BC0009FFB1FFA80F90020009000BF3FE001A8B2
:101BD000005DA0281DDA2046611CCCB201A9085C7A
:101BE0008DF8380000208DF839004EB943460EAA12
:101BF0003946284602F0D4FC05F10800C5B208E0D9
:101C000043460EAA3946284602F03AFD05F1100077
:101C1000C5B201A8005DA02819DB2046611CCCB22A
:101C200001A9085C8DF834002046611CCCB201A9E2
:101C3000085C8DF8350000208DF8360043460DAA6B
:101C40003946284602F0F0FD05F11000C5B24C45BA
:101C5000BDDB0FB0BDE8F08370B58CB004460D4617
:101C600034208DF82800200A8DF82900E0B28DF884
:101C70002A00280A8DF82B00E8B28DF82C006B465C
:101C800001AA05210AA803F027FB064630460CB03E
:101C900070BDB0B58CB004460D4600BF0C208DF869
:101CA000280000208DF829008DF82A408DF82B009F
:101CB0008DF82C506B4601AA05210AA803F00CFBF5
:101CC000074638460CB0B0BD70B58CB0064600244F
:101CD00035208DF828008DF829606B4601AA022175
:101CE0000AA803F0F9FA0546294629A008F04CFC99
:101CF00040F21451002000F091FA42E0694601A838
:101D000000F084F90546332126A008F03DFC012DA2
:101D100031D1002425E001A8005D00F0F00080280A
:101D200005D001A8005D00F0F000B0280CD124A07F
:101D300008F02AFC0A2009F007FD694601A800F016
:101D4000B5F901200CB070BD01A8005D00F0F000F5
:101D5000A02804D11EA008F017FC0020F2E7601CA8
:101D6000C4B29DF800008442D5DB1EA008F00CFC34
:101D70000A2009F0E9FC1FA008F006FC0A2009F07F
:101D8000E3FC002000F070FA0028B7D12846D9E71C
:101D90000D0A20447276457363726F7773656E64C3
:101DA0003D2564000D0A447276457363726F777344
:101DB000656E643E3E25233032780D0A0000000037
:101DC0000D0A20447276657363726F7731000000EC
:101DD0000D0A20447276657363726F77526574756D
:101DE000726E00000D0A20447276657363726F771D
:101DF000320000000D0A20447276657363726F77BB
:101E00003300000070B58CB004460D460F208DF8ED
:101E1000280005208DF829006B4601AA02210AA896
:101E200003F05AFA06462EB19DF8040020709DF882
:101E30000500287030460CB070BD30B58DB004463A
:101E40000F208DF82C0001208DF82D0020788DF8C2
:101E50002E0060788DF82F00A0788DF83000E078A3
:101E60008DF8310001AB02AA06210BA803F034FA69
:101E7000054628460DB030BDF8B504460D4600BFF6
:101E80000F208DF8000000208DF801002B4622461F
:101E90000221684603F020FA07463846F8BD0000E4
:101EA0002DE9FC4104460D4600270F208DF8040063
:101EB00003208DF805002B462246022101A803F0DD
:101EC0000BFA07462878009063782278394606A0F6
:101ED00008F05AFB27B10DB1012602E0002600E010
:101EE00000263046BDE8FC810D0A447276436861E5
:101EF0006E67652073203D2025642C25642C2564A5
:101F00002C25640D0A00000070B58EB00446002632
:101F10000F208DF8300004208DF8310002AB03AAA9
:101F200002210CA803F0D8F905469DF8080000909E
:101F30009DF80D309DF80C20294609A008F024FBDF
:101F40004DB19DF8080020B900BF9DF80C0020702D
:101F500002E0012600E0022630460EB070BD00000F
:101F60000D0A4472764368616E676573656E64201E
:101F70003D2025642C25642C25642C25640D0A0045
:101F800030B58DB004460F208DF82C0002208DF85E
:101F90002D008DF82E4001AB02AA03210BA803F0FF
:101FA0009BF9054628460DB030BD30B58DB00446CE
:101FB00037208DF82C0001208DF82D0020788DF829
:101FC0002E0060788DF82F00A0788DF83000E07832
:101FD0008DF8310001AB02AA06210BA803F07CF9B1
:101FE000054628460DB030BDF8B504460D463720ED
:101FF0008DF8000002208DF801002B4622460221B8
:10200000684603F069F906463046F8BDF8B504465F
:102010000D46332000902B4622460121684603F0EE
:102020005BF906463046F8BDF8B504460D460B2070
:1020300000902B4622460121684603F04DF90646E2
:102040003046F8BD3EB5302002906B4601AA012112
:1020500002A803F041F9044620463EBD3EB50820E3
:1020600002906B4601AA012102A803F035F904464B
:1020700020463EBDF8B504460D46312000902B4663
:1020800022460121684603F027F906463046F8BD8E
:10209000F8B504460D46092000902B462246012142
:1020A000684603F019F906463046F8BDF8B504460F
:1020B0000E4636200090334622460121684603F042
:1020C0000BF90746012F23D1314612A008F05CFA24
:1020D000002505E0615D14A008F056FA681CC5B241
:1020E0003078A842F6DC12A008F04EFA207800F012
:1020F0008000802806D101200E4988710EA008F0CA
:1021000043FA05E000200B49887110A008F03CFA62
:102110003846F8BD0D0A20447276457363726F77B6
:10212000726275663D0000005B25645D0000000082
:102130000D0A0000E8C207200D0A2044727645739C
:1021400063726F777266756C6C0000000D0A204434
:102150007276457363726F7772456D7074790000A3
:10216000F8B504460D460A2000902B462246012170
:10217000684603F0B1F806463046F8BD10B506F0E3
:1021800039FF1A48006840F080701849C439C1F816
:10219000C400802016490873002008717D20087053
:1021A0004120134928310870032011490873072082
:1021B00008720520486007200121814042099200F1
:1021C00002F1E022C2F8001100BF0521002807DA61
:1021D000CA06140E074A00F00F031B1FD45403E075
:1021E000CA06130E044A135400BF10BDC4C00F40EA
:1021F0000080094018ED00E000E400E010B504465E
:10220000204607F01DFD10BD10B50446204607F01E
:1022100033FD10BD10B507F055FB10BD70B5044679
:102220000D46082C06DA044840F82450012100200D
:1022300008F06AF970BD000018C4072010B5044604
:1022400014B1012C0AD104E00649002001F0AAFBD8
:1022500005E00449032001F0A5FB00E000BF00BF3A
:1022600010BD000080A903000146082903DA0348D5
:1022700050F8210070470020FCE7000018C4072038
:10228000FEB506460C4615460020029001900090CF
:10229000254890F86E0001281AD1012E02D0022E96
:1022A00014D109E021A008F06FF901AB03226946BF
:1022B00002A800F05BF80AE020A008F065F901AB85
:1022C0000222694602A800F051F800E000BF00BFFA
:1022D000154890F86F00012816D1012C02D0022C6D
:1022E00010D107E019A008F04FF90121084607F0C6
:1022F0002FFA08E019A008F047F90121002007F0A3
:1023000027FA00E000BF00BF074890F870000128DE
:1023100008D1012D02D0022D02D100E001E000E041
:1023200000BF00BFFEBD0000E8C007200D0A20412D
:102330007070656E42696C6C000000000D0A2041EF
:10234000707064697342696C6C0000000D0A204172
:102350007070656E436F696E000000000D0A2041C9
:102360007070646973436F696E0000002DE9F04777
:102370008AB00746884692461D464FF00009002461
:10238000BAF1020F0ED0BAF1030F06D0BAF1060F60
:102390000DD0BAF1090F1ED113E00121084606F055
:1023A000D5FD19E00121002006F0D0FD14E0012048
:1023B000FFF78AFC10B10220287001E0012028708C
:1023C0000AE00020FFF780FC10B10420287001E033
:1023D0000320287000E000BF00BF0A2009F0B4F914
:1023E000694601A8FFF712FE0646012E72D10020B1
:1023F0006C4908706C4908700A2009F0A5F99DF82D
:10240000000038B90A2009F09FF9664800210160F0
:10241000416001720024A8E001A8005D00F0F00016
:1024200090281CD101A8005D00F00F095F4850F80A
:1024300029005F4909684843386088F8009098F897
:1024400000305A4850F829103A685AA008F09CF811
:102450000A2009F079F901200AB0BDE8F08701A847
:10246000005D00F0F000A02805D157A008F08CF81E
:102470000120287077E001A8005D00F0F00000283E
:1024800071D101A8005D07283ED006DC61D2DFE8EB
:1024900000F060131A22293037000B2847D006DCE1
:1024A000082835D009283AD00A2852D13BE00C2818
:1024B00041D029284DD145E048A008F065F8012019
:1024C000384948704EE04AA008F05EF801203549CE
:1024D000887047E04FE04BA008F056F801203149E2
:1024E000C8713FE04BA008F04FF801202D49C8709B
:1024F00038E04DA008F048F801202A49087131E081
:102500004EA008F041F82DE050A008F03DF829E079
:1025100053A008F039F801202249487122E0012037
:102520002049C8711EE054A008F02EF81AE057A008
:1025300008F02AF816E05AA008F026F801201949F8
:1025400088710FE05BA008F01FF8012015490872A0
:1025500008E05EA008F018F8124800210160416010
:10256000017200BF00BF601CC4B29DF8000084422D
:10257000FFF652AF14E00C480078401C0A4908707E
:1025800008460278314656A007F0FEFF064800785C
:102590001E2802DB00200449087001200149087050
:1025A000002059E7E8C2072040C00720A0C207204A
:1025B0003CC0072044727662696C6C3D25642C2512
:1025C0006C642C25640D0A000D0A20447276626941
:1025D0006C6C2072657475726E0000000D0A2044E8
:1025E000727662696C6C206D6F746F72000000000F
:1025F0000D0A2044727662696C6C2073656E736F8D
:10260000720000000D0A2044727662696C206275C7
:10261000737900000D0A2044727662696C6C206345
:10262000686B73756D0000000D0A20447276626954
:102630006C6C206A616D6D65640000000D0A2044B9
:10264000727662696C207265736574000D0A2044AD
:10265000727662696C2072656D6F76656400000049
:102660000D0A2044727662696C6C2072656D6F761B
:1026700065436173680000000D0A20447276626948
:102680006C20696E76616C69640000000D0A20445C
:10269000727662696C2072656A65637465640000B5
:1026A0000D0A2044727662696C6C20636173684520
:1026B000727200000D0A2044727662696C6C20729E
:1026C000656379636C657245727200000D0A20447F
:1026D000727662696C6C2064656661756C7400006A
:1026E0000D0A2044727662696C6C20636F6D6D75A3
:1026F0004661696C3D25642C62696C6C7265633D52
:102700002564000010B50848006840F08070064954
:1027100008600846806940F08070886101210220CD
:1027200007F0F2FE10BD000000C0092010B50E2316
:1027300090220D210A20FFF717FA022009F004F871
:1027400010BD00002DE9F04F8FB081460F460020EC
:10275000049003908246242106A8FEF711F806F0A3
:102760005BFC0A2008F0F0FF002038603C4800685D
:10277000B9FBF0F52A463A4801683AA007F004FF91
:1027800066E0C82D01D9C82000E02846C4B22D1B40
:10279000224629463AA007F0F7FE02208DF81000E5
:1027A0008DF811402046FFF7EBFB8046B8F1010F92
:1027B0004BD104EBD47040101430642200FB02F1C2
:1027C0000020FFF72BFD3AE00420039006A8FFF756
:1027D0009BFB8046B8F1000F2ED1242106A8FDF7FF
:1027E000CFFF0320039005A906A8FFF759FB8046F9
:1027F000B8F1000F20DD9DF81B009DF81A10CDE9FF
:1028000000109DF819309DF818209DF8141023A091
:1028100007F0BAFE00260AE006A8805D2749895D18
:1028200048430F49096800FB01AA701CC6B29DF815
:1028300014008642F0DB07E00A2008F085FF002044
:10284000FFF712FD0028BFD102E01DA007F09CFE9B
:10285000002D96D1C7F800A001200FB0BDE8F08F81
:1028600044C007200D0A4472764368616E67657341
:1028700063616C65203D2025642C25640000000008
:102880000D0A4472764368616E67656469737065AA
:102890006E7365203D2025642C2564000D0A256497
:1028A0004472764368616E67654F75743D25642C8C
:1028B00025642C25642C25640000000043C20720F9
:1028C0000D0A4472764368616E676573656E64468F
:1028D00061696C00F8B500240020009000F0C8FD8C
:1028E0000646314618A007F04FFE00F0C1FD044631
:1028F00000F0BEFD58B100F0BBFD06466946FFF78B
:1029000021FF054614A0009907F03EFE00E00125D6
:10291000009802F0DFFB009884420AD913A007F068
:1029200033FE002016490860164908600098201AF6
:10293000F8BD15A007F028FE0020114908601149D4
:10294000086000BFF4E700000D0A20417070436882
:10295000616E67653D2564000D0A204170706261FB
:10296000636B6D6F6E65793D256400000D0A204133
:1029700070706368616E6765204661696C00000075
:1029800018C007201CC007200D0A20417070636822
:10299000616E676520737563630000000020044961
:1029A000087004480021018003480180817070474D
:1029B00011C007200FC007200CC007201E48006A66
:1029C00040F480701C4908620846C06B40F4807077
:1029D000C8630846006A40F4007008620846C06B8D
:1029E00040F40070C8630846006A40F480600862E2
:1029F0000846C06B40F48060C8630846006A40F433
:102A0000804008620846C06B40F48040C8630846B6
:102A1000006A40F4004008620846C06B40F4004081
:102A2000C8630846006A40F4803008620846C06BFC
:102A300040F48030C863704700C009202DE9F0439E
:102A40008BB005460E469046002701A902A8FFF765
:102A5000EBFA8146B9F1010F70D100204A490870A4
:102A60009DF8040020B90846002101604160018101
:102A700000247BE002A8005D00F0800010B1601C23
:102A8000C4B271E002A8005D00F0C000402823D16C
:102A900002A8005D00F03000102804D002A8005DFC
:102AA00000F03000A8B902A8005D00F00F07374819
:102AB000C05D374909684843286037703378334828
:102AC000C15D2A6833A007F05FFD01200BB0BDE8AF
:102AD000F083601CC4B247E002A8005D00F0E00093
:102AE000202841D002A8005D0E2836D2DFE800F091
:102AF00035071617181C1D1E22272B2C2D312A488E
:102B00000078401C2849087008460078012804DB3A
:102B1000012088F800000020087024E023E022E073
:102B20000120194948701EE01DE01CE001201649F3
:102B3000887018E001201449C87014E01CE00120DE
:102B4000114908710FE00EE00DE001200E494871B7
:102B500009E001200C49887105E00B480021016063
:102B60004160018100BF00BF601CC4B29DF8040039
:102B70008442FFF67FAF05E00CA007F005FD0120C1
:102B8000014908700020A1E7F1C2072043C20720D5
:102B900044C00720447276636F696E3D25642C251E
:102BA0006C642C25640D0A0048C007200D0A2044DF
:102BB0007276636F696E20636F6D6D754661696CC7
:102BC0000000000070B502460B46002000250021E1
:102BD0001CE0565C3502002414E080EA050636B29B
:102BE000002E05DA42F2021686EA4006B0B203E091
:102BF0004FF6FF7606EA40004FF6FF7606EA4505F7
:102C0000661CB4B2082CE8DB4E1CB1B29942E0D38A
:102C100070BD00002DE9F04F97B0044620210FA8A9
:102C2000FDF7AEFD202107A8FDF7AAFD0027B84655
:102C3000B946BA46BB460025002620783E2820D15A
:102C40000020594908705948002101808170FFF720
:102C50006DFD57A1574890F86D20574850F8220055
:102C600000231A46CDE900010D210A20FEF79AFF44
:102C700000F0FEFB10B103205049087017B0BDE80A
:102C8000F08F2278484801780078401C464B187035
:102C9000464842540146474890F86D20464850F84F
:102CA000220000231A46CDE900010D210A20FEF77B
:102CB00079FF3D480078022874DB3C48057840786D
:102CC0003038C6B2711EA5F1410001EBC0003C498D
:102CD00008803C480988405C3A496039384A128883
:102CE00031F81210CDE90010324835490988435CAB
:102CF000334802882D4934A007F046FC2D4830495E
:102D00000988405C30B12F4860382D49098830F877
:102D10001100C0B900202449087024480021018016
:102D20008170FFF703FD22A1224890F86D20224810
:102D300050F8220000231A46CDE900010D210A2097
:102D4000FEF730FF2EE01F4860381D49098830F833
:102D5000110000EB8000400021490860084600682F
:102D600006F0D6FD069003A80699FDF753FC03A9CB
:102D70000E4A104890F86D300F48083050F8230084
:102D80000023CDE9012100901A460D210A20FEF70B
:102D900009FF00F06DFB12490968884202D30A203E
:102DA0000649087000BF69E711C007200CC0072062
:102DB0002D2D0000E8C0072090C0000012C00720A1
:102DC00028C00720C2C10720257320636F6C756D72
:102DD0006E256C643D25642C25642C25640D0A0049
:102DE0002CC0072008B5FFF7A1FC094890F86D102A
:102DF000084850F8210000231A460D2100900A20AF
:102E0000FEF7D0FE40F2DC5008F09EFC08BD00004A
:102E1000E8C00720B0C0000008B5094890F86D1060
:102E2000084850F8210000231A460D2100900A207E
:102E3000FEF7B8FE40F2DC5008F086FC08BD00004A
:102E4000E8C00720A0C0000000B589B0202101A87B
:102E5000FDF796FCFEF796FE142008F075FC094875
:102E600090F86D10084850F8210000231A460621FA
:102E700000903C20FEF796FE40F2DC5008F064FC27
:102E800009B000BDE8C00720D0C0000000B587B081
:102E90000823F02206214620FEF766FE022008F0F5
:102EA00053FC3648007801280DD1354890F86D1054
:102EB000344850F8210000231A460621009046208D
:102EC000FEF770FE20E03048007801280ED12C4833
:102ED00090F86D102B48083850F8210000231A464E
:102EE000062100904620FEF75DFE0DE0244890F894
:102EF0006D002449683951F8200000231A46062144
:102F000000905A20FEF74EFE0A2008F01DFC1F48D4
:102F1000FFF774F91D4840781C4989781B4AD2781C
:102F20001A4B1B79CDE90232CDE90410174880799C
:102F30001649497900EB012015A100231A46CDE975
:102F4000001008212820FEF72DFE0020FEF7D3FDFB
:102F500088B100200D490870222048701320887025
:102F60001E20C8700820087107204871E020887171
:102F70000846FFF749F907B000BD000015C007205B
:102F8000E8C00720E0C0000013C0072004C00720ED
:102F9000253034442F253032442F2530324420252B
:102FA0003032443A253032440000000030B585B05C
:102FB0000446204606F0ACFC0546294602A8FDF76B
:102FC00029FB02A9094890F86D20094850F8220011
:102FD00000231A46CDE900010D210A20FEF7E2FD8B
:102FE00040F2DC5008F0B0FB05B030BDE8C007206F
:102FF000C8C0000030B585B000F03AFA054606F0CA
:1030000087FC0446214602A8FDF704FB02A90848F4
:1030100090F86D20074850F8220000231A46CDE9A9
:1030200000010D210A20FEF7BDFD05B030BD0000F6
:10303000E8C00720B8C0000008B5094890F86D1036
:10304000084850F8210000231A460D2100900A205C
:10305000FEF7A8FD40F2DC5008F076FB08BD00004A
:10306000E8C00720C0C0000008B5FFF75FFB0948B3
:1030700090F86D10084850F8210000231A460D21E1
:1030800000900A20FEF78EFD40F2DC5008F05CFB59
:1030900008BD0000E8C00720A8C0000030B585B01A
:1030A00000F0E6F9054606F033FC0446214602A886
:1030B000FDF7B0FAFEF766FD022008F045FB02A915
:1030C000114890F86D20114850F8220000231A464C
:1030D000CDE9000106213C20FEF764FD0C21002013
:1030E000FEF754FD0AA1084890F86D200748083003
:1030F00050F8220000231A46CDE900010D210A20D4
:10310000FEF750FD05B030BDE8C0072088C00000C4
:103110000000000010B502200A490860132006F0E4
:103120009BFB0948006920F48000074908610748B3
:10313000006C20F40060054908640121084607F08E
:10314000E3F910BD40C10F4000C0024000C009209B
:10315000F8B50025002694E0FEF714FD4A4890F8E3
:103160006D004A4951F8200000231A461946009084
:103170001846FEF717FD02210020FEF707FD424822
:1031800090F86D104148083050F8210000231A468D
:10319000032100901020FEF705FD3B4890F86D10CC
:1031A0003A48103050F8210000231A4605210090BB
:1031B0001020FEF7F7FC344890F86D1033481830B3
:1031C00050F8210000231A46072100901020FEF736
:1031D000E9FC2D4890F86D102C48203050F8210063
:1031E00000231A46092100901020FEF7DBFC264838
:1031F00090F86D102548283050F8210000231A4619
:103200000B2100901020FEF7CDFC1F4890F86D10A8
:103210001E48303050F8210000231A460E2100903D
:103220001846FEF7BFFC27E00026FEF799FC04468F
:103230003E2C01D1012520E0A4F14100052813D244
:10324000DFE800F00306090C0F000126104F0DE027
:103250000126104F0AE001260F4F07E001260F4F0D
:1032600004E001260E4F01E0002600BF00BF06B1BA
:1032700003E00A2008F068FAD6E700BF05B101E0D4
:10328000B84769E700BFF8BDE8C0072008C10000E3
:103290000D5E0000A1530000D55F000069620000D0
:1032A0003183000000B5BFB0FC216846FDF768FA25
:1032B000374890F86E00012830D13648007818B1B0
:1032C00035A16846FDF7E9F93248407818B133A1D5
:1032D0006846FDF7E2F92F48807818B130A16846BA
:1032E000FDF7DBF92B48C07818B12EA16846FDF731
:1032F000D4F92848007918B12BA16846FDF7CDF91B
:103300002448407918B129A16846FDF7C6F921483B
:10331000807918B126A16846FDF7BFF91C4890F8DE
:103320006F00012830D12348007818B122A16846E7
:10333000FDF7B3F91F48407818B120A16846FDF7A2
:10334000ACF91C48807818B11DA16846FDF7A5F9B5
:103350001848C07818B11BA16846FDF79EF91548BA
:10336000007918B118A16846FDF797F9114840791E
:1033700018B116A16846FDF790F90E48807918B18A
:1033800013A16846FDF789F968463FB000BD00000B
:10339000E8C00720E8C207204231000042320000A6
:1033A0004233000042340000423500004236000043
:1033B00042370000F1C207204331000043320000D1
:1033C000433300004334000043350000433600001F
:1033D00043370000002102E000BF4A1CD1B2814205
:1033E000FADB70470246062A3AD2DFE802F0030C05
:1033F000151E27301D48406BC0F3002008B1012185
:1034000000E000212EE01948406BC0F3402008B1D5
:10341000012100E0002125E01448406BC0F380202A
:1034200008B1012100E000211CE01048406BC0F30E
:10343000803008B1012100E0002113E00B48406B0F
:10344000C0F3C03008B1012100E000210AE00748C4
:10345000406BC0F3004008B1012100E0002101E011
:10346000012100BF00BFC8B27047000000C00920A2
:103470000548006805490968084405490968084481
:10348000044909680844704718C007201CC0072079
:1034900020C0072024C007201FB500200390029001
:1034A000019000902F4890F86F00012826D1142039
:1034B00008F04AF901AA694603A8FFF7BFFA039882
:1034C00080B129480068039908442749086027A06B
:1034D000039907F059F80121039801F019FE012022
:1034E00004B010BD9DF80400012807D124A007F006
:1034F0004BF8FEF7EAFA012025490870194890F8C0
:103500006E0001282CD1142008F01EF901AB002216
:10351000694603A8FEF72AFF039808B31DA0039984
:1035200007F032F801AB0622694602A8FEF71EFF3B
:103530009DF80400022811D11DA0039907F024F87A
:103540002248006803990844204908600221039832
:1035500001F0DEFD002003900120C1E70020BFE75D
:1035600000BFBDE7E8C0072018C007200D0A417062
:1035700070636F696E312E636F696E3D256C6400F8
:103580000D0A417070636F696E547569626900005D
:1035900014C007200D0A204150503E3E6E4170700D
:1035A00062696C6C312E62696C6C3D25640D0A0099
:1035B0000D0A205461736B457363726F77537563A3
:1035C000636573733D25640D0A0000001CC007206D
:1035D00010B51548006840F080001349C439C1F89F
:1035E000C4001E201149086148612C2088614020D8
:1035F00008600A20012181404209920002F1E02284
:10360000C2F8001100BF0321002807DACA06140E11
:10361000074A00F00F031B1FD45403E0CA06130E21
:10362000044A135400BF10BDC4C00F4000C0014085
:1036300018ED00E000E400E02DE9F04105460E46FB
:1036400014461F46DDF81880B8F1000F37D0012E60
:1036500007D1681C1B4908701B48046001201B49E6
:103660000870022E07D1681C1649087016480460BD
:10367000022016490870032E0CD10E2000EAD41047
:103680002844401C0F490870E0B20F49086001202F
:103690000E4908700E4807600E48C0F800800120EF
:1036A0000D49087000200D4908702C200C498861D4
:1036B00060200860642007F0C1FBBDE8F0810020B5
:1036C000FBE70000CCC00720D0C00720D4C00720F3
:1036D000D8C00720DCC00720E1C00720E0C00720D9
:1036E00000C001402DE9F04105460E4614461F4634
:1036F000DDF81880B8F1000F34D0012E06D11A4839
:1037000005701A480460012019490870022E06D17C
:103710001548057015480460022015490870032EED
:103720000BD10E2000EAD41028440F490870E0B2F3
:103730000E49086001200E4908700E4807600E48C7
:10374000C0F8008002200D49087000200C49087064
:103750002C200C49886160200860642007F06EFB13
:10376000BDE8F0810020FBE7CCC00720D0C00720D7
:10377000D4C00720D8C00720DCC00720E1C0072044
:10378000E0C0072000C001407E48406800F0F8001B
:1037900000F00701002979D1C0100C2876D2DFE8AB
:1037A00000F0EE061920B421B5B6A5B7BEDB764809
:1037B0000078012806D17548007800F0FE007149B4
:1037C000886003E0714800786E49886028206D4960
:1037D0008861D5E06D4800786A4988602820886152
:1037E000CEE000BF68480078E8B96948006890B149
:1037F0006848006800786349886066480068401C33
:103800006449086028205F49886161480068401E5B
:103810005F49086007E010205A4908602820886145
:1038200001205D4908705848007801282FD15B4875
:10383000007802280DD15A480068C0F3072051498A
:1038400088602820886155480078401E53490870D8
:1038500096E05248007801280CD151480068C0B267
:1038600048498860282088614C480078401E4B49B0
:10387000087085E04948007848B9082041498861C6
:103880002020086000204049087079E077E03E4839
:103890000078022829D141480078002825DD3F48DA
:1038A000007802280DD13E480068C0F30720354952
:1038B00088602820886139480078401E37490870A0
:1038C0005EE03648007801280FD135480068C0B264
:1038D0002C4988602820886130480078401E2F4994
:1038E00008700020284908704AE049E0284800682C
:1038F000012803D804202349886102E004202149DB
:10390000086028201F4988613AE000BF00BF00BF5F
:1039100028201C498861FF201F49087030E01948A1
:1039200080681C49096808701A480068401C1949D9
:10393000086017480068401E15490860084600687E
:10394000012803D12C200F49886104E004200D498F
:1039500008602820886113E00A4880680D490968DA
:1039600008700C480068401C0A490860102005498E
:1039700008602820886101200749087000E000BF26
:1039800000BF704700C00140E1C00720CCC0072045
:10399000DCC00720D8C00720E0C00720D4C0072023
:1039A000D0C0072070B505460C4635B1012D1ED09C
:1039B000022D34D0032D72D150E002204FF040216F
:1039C000486001200860002008678860C8600846D9
:1039D000846103204861012005F055FF0721012083
:1039E00005F05CFF00204FF04021486058E00220C5
:1039F0002C49486001200860002008678860C86082
:103A00000846846103204861022005F03CFF06213E
:103A1000022005F043FF00202249486040E0224890
:103A2000006840F480002049C439C1F8C400022075
:103A30001E49486001200860002008678860C8604F
:103A4000084684610320486105F01DFF0221032020
:103A500005F024FF01201549486021E01248006864
:103A600040F400001049C439C1F8C40002201049D4
:103A7000486001200860002008678860C860084628
:103A8000846103204861042005F0FDFE04210846FE
:103A900005F004FF01200649486001E0FFE700BF90
:103AA00000BF70BD00800040C4C00F40000009404E
:103AB0000040094030B589B01E2301AA4FF40071BF
:103AC000A020FEF72FF80546002D7CD0D02101A8BC
:103AD000FFF778F804469DF8040000069DF80510ED
:103AE00000EB01409DF8061000EB01209DF8071047
:103AF0000844414908609DF8080000069DF8091037
:103B000000EB01409DF80A1000EB01209DF80B101E
:103B10000844394948609DF80C0000069DF80D10D6
:103B200000EB01409DF80E1000EB01209DF80F10F6
:103B30000844314908609DF8100000069DF81110F6
:103B400000EB01409DF8121000EB01209DF81310CE
:103B50000844294948619DF8140000069DF8151095
:103B600000EB01409DF8161000EB01209DF81710A6
:103B70000844214988619DF8180000069DF8191035
:103B800000EB01409DF81A1000EB01209DF81B107E
:103B900008441949C8619DF81C0000069DF81D10D5
:103BA00000EB01409DF81E1000EB01209DF81F1056
:103BB0000844114908629DF82000E1B2884218D0FB
:103BC0009DF8210000E008E0B0EB242F11D100F0B7
:103BD0009DFF0AA006F0D8FC0BE000200649086013
:103BE0004860886048618861C861086201201149A5
:103BF000487009B030BD0000FCC10720496E6974EF
:103C0000546F74616C4C6F6728293A526561642067
:103C10006F6B206275742064617461206973206524
:103C200072722C52656C6F616420646174610D0A5C
:103C30000000000000C0072070B5A8B09A2301AAB8
:103C40004FF48071A020FDF76DFF0646002E6FD067
:103C5000982101A8FEF7B6FF05469DF89D10E8B231
:103C6000814277D19DF89C00B0EB252FF9D100243B
:103C700012E001A904F13000085C095D00EB0120AD
:103C8000474921F81400084630F8140010B9012003
:103C900044494870601C84B2302CEADB002408E000
:103CA00001A904F16000095C3D4860300155601CC9
:103CB00084B2302CF4DB9DF895009DF8941000EB55
:103CC00001203749A1F890009DF897009DF89610C3
:103CD00000EB01203249A1F892009DF899009DF86F
:103CE000981000EB01202E49A1F894009DF89A004D
:103CF00081F896009DF89B0081F897002AA006F0B5
:103D000043FC2FA006F040FC002407E0244830F8D4
:103D100014102DA006F038FC601C84B2302CF5DBAA
:103D200026A006F031FC29A006F02EFC002408E0B5
:103D300031E01B486030015D23A006F025FC601CCB
:103D400084B2302CF5DB1DA006F01EFC1448B0F840
:103D5000901000E01BE021A006F016FC1048B0F81F
:103D6000921027A006F010FC0D48B0F894102DA07A
:103D700006F00AFC0A4890F8961033A006F004FCFE
:103D8000074890F897103AA006F0FEFB06E044A022
:103D900006F0FAFB02E042A006F0F6FB28B070BD88
:103DA00062C1072000C00720496E697454726164C3
:103DB00065506172616D2829204F6B3A0D0A000031
:103DC00050726963653A00002564200052656D6198
:103DD000696E476F6F64733A00000000547261644B
:103DE00065506172616D2E5479706542696C6C45E5
:103DF0007363726F77203D20253034580D0A000020
:103E00005472616465506172616D2E5479706542BF
:103E1000696C6C456E61626C65203D2025303458BC
:103E20000D0A00005472616465506172616D2E5418
:103E3000797065436F696E456E61626C65203D20E7
:103E4000253034580D0A0000547261646550617267
:103E5000616D2E536572766963655768656E4E6F46
:103E60004368616E676572203D2025640D0A00007D
:103E70005472616465506172616D2E53657276692A
:103E800063655768656E42696C6C537461636B65FA
:103E900072497346756C6C203D2025640D0A000044
:103EA000496E69745472616465506172616D28294C
:103EB0003A52656164206F6B20627574206461748E
:103EC00061206973206572720D0A000070B50446A6
:103ED0001D48006840F008001B49C439C1F8C400FF
:103EE00083201A4908731A48B0FBF4F5280A0871B0
:103EF0000D7003200873872008720520012181407E
:103F00004209920002F1E022C2F8001100BF0A212A
:103F1000002807DACA06160E0E4A00F00F031B1F10
:103F2000D65403E0CA06130E0B4A135400BF0120F7
:103F30000649486000200949087009490870402175
:103F40000848FCF7FBFB70BDC4C00F4000C0004038
:103F500060E3160018ED00E000E400E0A4C00720D4
:103F6000A5C00720D8C3072070B59EB0732301AA4F
:103F70000021A020FDF7D6FD0646002E7DD0712140
:103F800001A8FEF71FFE05469DF87600E9B28842BB
:103F900074D19DF87500B0EB252F7FD1002405E08A
:103FA00001A8005D44490855601C84B2302CF7DB41
:103FB000302408E001A904F13000095C3E483030AB
:103FC0000155601C84B2602CF4DB602408E004F12D
:103FD000600001A9095C384860300155601C84B25A
:103FE000672CF4DB672408E004F1670001A9095C91
:103FF000314867300155601C84B26D2CF4DB9DF8AC
:1040000071002D4981F86D009DF8720081F86E00F5
:104010009DF8730081F86F009DF8740081F87000BE
:10402000294626A006F0B0FA002431E001A8015D7F
:104030002AA006F0A9FA2F2C02D12AA006F0A4FA91
:104040005F2C02D12BA006F09FFA662C02D12DA086
:1040500006F09AFA6C2C02D12CA006F095FA6D2C81
:1040600002D12DA006F090FA6E2C02D12DA006F000
:104070008BFA6F2C05D12EA001E015E00EE006F0C2
:1040800083FA702C02D12DA006F07EFA601C84B257
:10409000732CCBDB2DA006F077FA0AE02CA006F0FB
:1040A00073FA00F043FC04E034A006F06DFA00F06F
:1040B0003DFC1EB070BD0000E8C00720496E697469
:1040C000566D63506172616D28293A5265616420B2
:1040D0004F4B2825303458293A0D0A00202530321C
:1040E00058000000202D2D63686E20636F6E666996
:1040F000670D0A00202D2D4D617820636170610DE0
:104100000A000000202D2D49440D0A00202D2D50BD
:1041100057440D0A00000000202D2D4C616E0D0A41
:1041200000000000202D2D42696C6C0D0A0000007B
:10413000202D2D436F696E0D0A000000202D2D43A8
:104140006173686C6573730D0A0000000D0A00004E
:10415000496E6974566D63506172616D28293A52D7
:10416000656164206F6B20627574206461746120E6
:104170006973206572720D0A00000000496E69744F
:10418000566D63506172616D28293A5265616420F1
:104190004552520D0A0000007FB500240025294831
:1041A00090F86E00012800D100BF27488079264989
:1041B0004979254A1279244BDB78CDE90032CDE9E3
:1041C0000210214883784278017820A006F0DCF9BB
:1041D0001C4890F86F00012815D12448007888B950
:1041E0002248407870B92148807858B91F48C07873
:1041F00040B91E48007928B91C48407910B91B48BD
:10420000807900B10124194881794079174A1279DF
:10421000164BDB78CDE90032CDE9020113488378F3
:104220004278017812A006F0AFF904B925B1012057
:104230001749087004B070BD00201549087000BF10
:10424000F8E70000E8C00720E8C207200D0A204276
:10425000696C6C4572723D25642C25642C25642C98
:1042600025642C25642C25642C256400F1C20720CC
:104270000D0A20436F696E4572723D25642C2564DA
:104280002C25642C25642C25642C25642C256400A5
:1042900015C0072005480078012804D100200349F3
:1042A0000870012070470020FCE7000014C00720C0
:1042B0002DE9F0413748406DC0F3C0270FB1FF250D
:1042C00061E03448406BC0F3001080003149496B15
:1042D000C1F3400140EA41002E49496B01F0010160
:1042E00040EA01062B48006A2B4908402949086228
:1042F0002820FFF76FF8032E04D0052E16D0062EC7
:104300003ED128E0022005F001FD00240AE020460D
:10431000FFF768F808B1FF2502E02048055D03E0DB
:10432000601CC4B2062CF2DB00BF2BE0012005F0BC
:10433000EDFC00240BE02046FFF754F808B1FF2500
:1043400003E01648801F055D03E0601CC4B2062C24
:10435000F1DB00BF16E0002005F0D8FC00240BE0E4
:104360002046FFF73FF808B1FF2503E00B480C3863
:10437000055D03E0601CC4B2062CF1DB00BF01E068
:10438000FF2500BF00BFFEF719FB05F0F3FC284630
:10439000BDE8F08100C00920FF38FEFF5CC50000C9
:1043A00010B504461148006840F080700F4908605D
:1043B0000846C06940F08070C86184B1FEF7FEFA1B
:1043C00005F0D8FC0A48006940F4800008490861FB
:1043D000022008490860132005F04AFA05E002208F
:1043E00004490860132005F037FA10BD00C0092009
:1043F00000C0024040C10F4010B5FEF7DFFA05F0E3
:10440000B9FC1D490120FFF7CDFA1C490220FFF736
:10441000C9FA1B48006C20F4806019490864002226
:1044200001210A2007F0C4FA1649086016480069FD
:1044300040F48000144908610220144908600020FB
:104440001349C1F84C0102201049083908601320B3
:1044500005F00EFA13200821002807DACA06140E08
:104460000C4A00F00F031B1FD45403E0CA06130EBE
:10447000094A135400BF10BD80A90300407E050007
:1044800000C00920A8C0072000C0024048C10F405A
:1044900000C00F4018ED00E000E400E00949096C9D
:1044A00041F00401074A116428B11146896D41F0B9
:1044B0000401916505E00349C96D41F00401014A19
:1044C000D165704700C009202DE9F04707460C462A
:1044D0009046994600250FE03E4609E06019C1B2BA
:1044E000304600F011FA002005F0BCFA701CC6B28C
:1044F0004645F3DD681CC5B2A9EB0400A842EBDA1F
:10450000BDE8F08770B500240EE02146002000F0E1
:10451000FBF9002504E0002005F0A4FA681CC5B2F0
:10452000F02DF8DB601CC4B2102CEEDB70BD70B552
:1045300004460E463146204600F0E6F9002504E028
:10454000082005F08FFA681CC5B2C4F1F000A8423B
:10455000F6DC70BD10B5E22005F052FA142007F029
:10456000F3F8262005F04CFA2F2005F049FAEA204E
:1045700005F046FA812005F043FA722005F040FA72
:10458000C82005F03DFA402005F03AFAAF2005F0CA
:1045900037FAFFF7B7FF0120FFF780FF10BD0000DB
:1045A0002DE9F04705460F46904699464146324868
:1045B000FCF71EF882463048824501D8BDE8F087F6
:1045C0002D48AAEB00004FF6FF7101EA0016B9F181
:1045D000000F29D000240DE03146731C9EB2274BFA
:1045E000595CC943CAB22919C8B2394600F080F9EA
:1045F000601CC4B2082CEFDB002412E0334606F145
:10460000010C1FFA8CF6DFF874C01CF80330DB4392
:10461000DAB27B1CD9B22B19D8B200F069F9601C50
:10462000C4B2082CEADB24E000240BE03146731C02
:104630009EB2124B5A5C2919C8B2394600F058F99B
:10464000601CC4B2082CF1DB002410E0334606F1F4
:10465000010C1FFA8CF6DFF824C01CF803207B1C29
:10466000D9B22B19D8B200F043F9601CC4B2082C9F
:10467000ECDB00BFA2E7000062C50000BFC5000080
:104680002DE9F04705460F4690469A4698F80000F7
:10469000302803DB98F80000392803DD98F8000083
:1046A0002E286AD141465E48FBF7A2FF81465C494D
:1046B000894501D8BDE8F0875948A9EB00004FF6BD
:1046C000FF7101EA8016BAF1000F57D000240DE007
:1046D0003146731C9EB2534B595CC943CAB2291967
:1046E000C8B2394600F004F9601CC4B2102CEFDBEC
:1046F000002412E0334606F1010C1FFA8CF6DFF8B5
:1047000024C11CF80330DB43DAB27B1CD9B22B196D
:10471000D8B200F0EDF8601CC4B2102CEADB002423
:1047200012E0334606F1010C1FFA8CF6DFF8F4C0F4
:104730001CF80330DB43DAB2FB1CD9B22B19D8B218
:1047400000F0D6F8601CC4B2102CEADB002412E0A2
:10475000334606F1010C1FFA8CF6DFF8C8C01CF8CE
:104760000330DB43DAB23B1DD9B22B19D8B200F0CB
:10477000BFF8601CC4B2102CEADB4EE000240BE052
:104780003146731C9EB2274B5A5C2919C8B2394670
:1047900000F0AEF8601CC4B2102CF1DB002410E075
:1047A000334606F1010C1FFA8CF6DFF878C01CF8CE
:1047B00003207B1CD9B22B19D8B200F099F8601CE9
:1047C000C4B2102CECDB002410E0334606F1010CDF
:1047D0001FFA8CF6DFF84CC01CF80320BB1CD9B2C2
:1047E0002B19D8B200F084F8601CC4B2102CECDB9A
:1047F000002410E0334606F1010C1FFA8CF6DFF8B6
:1048000024C01CF80320FB1CD9B22B19D8B200F02D
:104810006FF8601CC4B2102CECDB00BF4AE700004C
:104820007FCB00008BCB00002DE9F04705460F46FB
:104830009046994641462C48FBF7DAFE82462A48C4
:10484000824503D3AAEB0000060101E0BDE8F08732
:10485000B9F1000F25D000240CE03146761C234B23
:10486000595CC943CAB22919C8B2394600F040F8A8
:10487000601CC4B2102CF0DB00240FE03346761C21
:10488000DFF868C01CF80330DB43DAB27B1CD9B216
:104890002B19D8B200F02CF8601CC4B2102CEDDB40
:1048A00020E000240AE03146761C104B5A5C29199E
:1048B000C8B2394600F01CF8601CC4B2102CF2DB00
:1048C00000240DE03346761CDFF820C01CF80320DE
:1048D0007B1CD9B22B19D8B200F00AF8601CC4B204
:1048E000102CEFDB00BFB1E7CBCE0000BAD0000048
:1048F00070B505460E4614463146284600F004F8C9
:10490000204605F0AFF870BD70B504460D4645F081
:10491000B00005F075F8102141EA241005F070F898
:1049200004F00F0005F06CF870BD000070B59EB08B
:10493000002406E001205049085501A90855601CD3
:1049400084B2302CF6DB002409E008214A483030DC
:10495000015501AA04F130001154601C84B2302CBE
:10496000F3DB002408E044486030045504F16000A3
:1049700001AA1454601C84B2072CF4DB00240DE05F
:1049800004F13100C1B23C486730015504F13100F7
:10499000C1B2363001AA1154601C84B2062CEFDB80
:1049A0000020354981F86D008DF87100012081F8F3
:1049B0006E008DF8720081F86F008DF8730081F839
:1049C00070008DF87400712101A8FEF7FBF806460F
:1049D00030128DF87500F0B28DF87600732301AABD
:1049E0000021A020FDF7ABF805464DB9142006F0D4
:1049F000ABFE732301AA0021A020FDF7A0F8054615
:104A00001EA005F0C1FD00242EE001A8015D22A03A
:104A100005F0BAFD2F2C02D121A005F0B5FD5F2CC9
:104A200002D123A005F0B0FD662C02D124A005F030
:104A3000ABFD6C2C02D124A005F0A6FD6D2C02D19B
:104A400024A005F0A1FD6E2C02D125A005F09CFD4F
:104A50006F2C02D125A005F097FD702C02D126A065
:104A600005F092FD601C84B2732CCEDB26A005F00D
:104A70008BFD1EB070BD0000E8C007204C6F616464
:104A800044656661756C74566D63506172616D2822
:104A9000293A0D0A0000000020253032580000009D
:104AA000202D2D63686E20636F6E6669670D0A00A6
:104AB000202D2D4D617820636170610D0A0000008A
:104AC000202D2D49440D0A00202D2D5057440D0A4C
:104AD00000000000202D2D4C616E0D0A000000002A
:104AE000202D2D42696C6C0D0A000000202D2D43F5
:104AF0006F696E0D0A000000202D2D436173686CF4
:104B00006573730D0A0000000D0A000070B588B0CF
:104B100000240AE0484800681821A1EBC401C840FD
:104B2000C0B20DF80400601C84B2042CF2DB002437
:104B30000BE0414840681821A1EBC401C840C1B254
:104B4000201D0DF80010601C84B2042CF1DB002441
:104B50000CE0394880681821A1EBC401C840C1B2FB
:104B600004F108000DF80010601C84B2042CF0DB86
:104B700000240CE0304840691821A1EBC401C84072
:104B8000C1B204F10C000DF80010601C84B2042CBA
:104B9000F0DB00240CE0284880691821A1EBC40157
:104BA000C840C1B204F110000DF80010601C84B2BE
:104BB000042CF0DB00240CE01F48C0691821A1EB95
:104BC000C401C840C1B204F114000DF80010601C0B
:104BD00084B2042CF0DB00240CE01748006A182192
:104BE000A1EBC401C840C1B204F118000DF80010D7
:104BF000601C84B2042CF0DB1C216846FDF7E2FF48
:104C0000064630128DF81C00F0B28DF81D001E23F0
:104C10006A464FF40071A020FCF791FF05464DB99C
:104C2000142006F091FD1E236A464FF40071A02067
:104C3000FCF785FF08B070BDFCC1072070B5A8B0B7
:104C40005FA005F0A1FC64A005F09EFC002407E035
:104C5000634830F8141063A005F096FC601C84B221
:104C6000302CF5DB5BA005F08FFC5FA005F08CFC21
:104C7000002407E05A486030015D5AA005F084FC2A
:104C8000601C84B2302CF5DB52A005F07DFC0024C2
:104C900016E0534830F81400001201A90855504896
:104CA00030F81400C1B201AA04F1300011544C488C
:104CB00030F8140010B901204F494870601C84B2CC
:104CC000302CE6DB002408E045486030015D01AA95
:104CD00004F160001154601C84B2302CF4DB4048B5
:104CE000B0F8900000128DF894003D48B0F89000A4
:104CF000C0B28DF895003A48B0F890103FA005F08A
:104D000043FC3748B0F8920000128DF89600344802
:104D1000B0F89200C0B28DF897003148B0F8921008
:104D20003FA005F031FC2E48B0F8940000128DF839
:104D300098002B48B0F89400C0B28DF8990028482C
:104D4000B0F894103FA005F01FFC254890F896009D
:104D50008DF89A00224890F8961043A005F014FCB4
:104D60001F4890F897008DF89B001D4890F8971009
:104D700048A005F009FC982101A8FDF723FF06468D
:104D800030128DF89C00F0B28DF89D009A2301AA94
:104D90004FF48071A020FCF7D2FE05466DB91420B7
:104DA00006F0D2FC9A2301AA4FF48071A020FCF7F0
:104DB000C6FE054644A005F0E7FB28B070BD000024
:104DC0004C6F61644E6577547261646550617261C5
:104DD0006D28293A0D0A000050726963653A000097
:104DE00062C107202564200052656D61696E476FBE
:104DF0006F64733A0000000000C0072054726164C1
:104E000065506172616D2E5479706542696C6C45B4
:104E10007363726F77203D20253034580D0A0000EF
:104E20005472616465506172616D2E54797065428F
:104E3000696C6C456E61626C65203D20253034588C
:104E40000D0A00005472616465506172616D2E54E8
:104E5000797065436F696E456E61626C65203D20B7
:104E6000253034580D0A0000547261646550617237
:104E7000616D2E536572766963655768656E4E6F16
:104E80004368616E676572203D20253032580D0AF7
:104E9000000000005472616465506172616D2E53B0
:104EA0006572766963655768656E42696C6C5374A8
:104EB00061636B6572497346756C6C203D202530CB
:104EC00032580D0A000000004C6F61644E65775443
:104ED00072616465506172616D28293A6572720D64
:104EE0000A00000070B59EB0002405E04F48005D48
:104EF00001A90855601C84B2302CF7DB002408E0BF
:104F00004A483030015D01AA04F130001154601CA0
:104F100084B2302CF4DB002408E044486030015DAA
:104F200004F1600001AA1154601C84B2072CF4DB68
:104F3000002408E03D486730015D04F1670001AAE4
:104F40001154601C84B2062CF4DB384890F86D00D4
:104F50008DF87100354890F86E008DF87200334876
:104F600090F86F008DF87300304890F870008DF85D
:104F70007400712101A8FDF725FE064630128DF858
:104F80007500F0B28DF87600732301AA0021A020ED
:104F9000FCF7D5FD05466DB9142006F0D5FB73234B
:104FA00001AA0021A020FCF7CAFD054620A005F0BB
:104FB000EBFA38E024A005F0E7FA00242EE001A87F
:104FC000015D27A005F0E0FA2F2C02D126A005F004
:104FD000DBFA5F2C02D128A005F0D6FA662C02D1AC
:104FE00029A005F0D1FA6C2C02D129A005F0CCFA49
:104FF0006D2C02D129A005F0C7FA6E2C02D12AA08F
:1050000005F0C2FA6F2C02D12AA005F0BDFA702C6F
:1050100002D12BA005F0B8FA601C84B2732CCEDB51
:105020002BA005F0B1FA1EB070BD0000E8C007204B
:105030004C6F61644E6577566D63506172616D2887
:10504000293A6572720D0A004C6F61644E6577569D
:105050006D63506172616D28293A0D0A00000000ED
:105060002025303258000000202D2D63686E20630B
:105070006F6E6669670D0A00202D2D4D61782063E3
:105080006170610D0A000000202D2D49440D0A00B9
:10509000202D2D5057440D0A00000000202D2D4CCE
:1050A000616E0D0A00000000202D2D42696C6C0D10
:1050B0000A000000202D2D436F696E0D0A000000CC
:1050C000202D2D436173686C6573730D0A00000019
:1050D0000D0A000070B504460A20B4FBF0F085B25A
:1050E00003484068284402494860FFF70FFD70BD3F
:1050F000FCC1072010B50020044908608860886161
:10510000C8614860FFF702FD10BD0000FCC1072028
:1051100010B50A23B0FBF3F39AB2012905D1074B6E
:105120001B681344054C236006E0022904D1034B9D
:105130009B681344014CA36010BD0000FCC1072014
:10514000012805D105498969491C044A916104E097
:105150000249C969491C014AD1617047FCC1072055
:105160002DE9FE43FCF70EFD584890F86D005849B4
:1051700051F8200000231A46194600901846FCF703
:1051800011FD02210020FCF701FD504890F86D1040
:105190004F48083050F8210000231A4603210090A0
:1051A0001020FCF7FFFC494890F86D104848183073
:1051B00050F8210000231A460E2100901020FCF721
:1051C000F1FC002448264FF007087BE0FCF7C8FC00
:1051D00001A9085501A8005D002870D001A8005D54
:1051E0003E2800D16FE001A8005D3C2858D1052C75
:1051F0001FDA0823EF2207210020FCF7B5FC334813
:1052000090F86D103248103050F8210000231A46F3
:10521000072100903020FCF7C5FC642006F094FACA
:105220000823EF2207210020FCF79EFC48260024DB
:1052300045E0002700250CE001A8415D23486730C8
:10524000405D814201D1012701E0002703E0681C95
:10525000C5B2062DF0DB00BFFFB90823EF220721FE
:105260000020FCF781FC194890F86D1018481030A8
:1052700050F8210000231A46072100903020FCF747
:1052800091FC642006F060FA0823EF220721002039
:10529000FCF76AFC4826002411E0FDF759FF12E0F4
:1052A000052C0CDC0BA000231A464146009030462A
:1052B000FCF778FC06F11000C6B2601CC4B20A20EC
:1052C00006F042FA82E700BFBDE8FE83E8C007208F
:1052D000E8C000002A0000002DE9F05F05460E46F8
:1052E000174698464FF0000B03F084FEDA46A120E3
:1052F0002749087095F800900EB1242E02DD58461B
:10530000BDE8F09F2878012104F064FA95F8009038
:10531000012409E0285D002104F05CFA285D48447E
:1053200000F0FF09601CC4B2B442F3DB0021484620
:1053300004F050FA2821174804F030FD21E0144809
:105340000078A3281AD14FF0010B134800780028E9
:1053500005DD11480078401E00F0FF0A01E04FF023
:10536000000A002405E00D48005D07F8010B601CF1
:10537000C4B25445F7DB88F800A006E0032006F02D
:10538000E3F9044800680028D9D100BF5846B7E7C0
:10539000E4C00720ACC00720E2C0072038C40720C3
:1053A0002DE9FF5F002003908346FCE34FF0000BE4
:1053B000FCF7E8FBFD4890F86D00FD4951F820002E
:1053C00000231A46194600901846FCF7EBFB022111
:1053D0000020FCF7DBFBF54890F86E00F34991F8EC
:1053E0006D20F349083151F8221000231A46CDE907
:1053F000001003211020FCF7D5FBEC4890F86F005B
:10540000EA4991F86D20EA49103151F82210002341
:105410001A46CDE9001005211020FCF7C3FBE34834
:1054200090F87000E14991F86D20E149183151F888
:10543000221000231A46CDE9001007211020FCF7A6
:10544000B1FBDA4890F86D00D84991F86D20D84941
:10545000203151F8221000231A46CDE9001009210D
:105460001020FCF79FFBD14890F86D00CF4991F8D0
:105470006D20CF49283151F8221000231A46CDE97A
:10548000001009218020FCF78DFBC84890F86D10B2
:10549000C748603050F8210000231A460C210090C4
:1054A0001020FCF77FFBC14890F86D10C0486830B1
:1054B00050F8210000231A460E2100901846FCF7F0
:1054C00071FBF7E3FCF74CFB04463E2C02D10120B4
:1054D0000390F0E3A4F14100052871D2DFE800F069
:1054E000035DB8F5F400B14890F86E00AF4991F84B
:1054F0006D20AF49083151F8221001230022CDE977
:10550000001003211020FCF74DFB43E0FCF728FBC3
:1055100004463C2C01D03E2C06D14FF0010B3C2C14
:1055200001D1FFF7DFFC36E0302C02D0312C2CD13A
:1055300015E000209D4981F86E00084690F86E0045
:1055400091F86D209A49083151F822100123002268
:10555000CDE9001003211020FCF724FB16E0012008
:10556000924981F86E00084690F86E0091F86D201F
:105570008F49083151F8221001230022CDE9001093
:1055800003211020FCF70EFB00E000BF00BF142039
:1055900006F0DAF8BAE700BFFEE3844890F86F003F
:1055A000824991F86D208249103151F8221001236F
:1055B0000022CDE9001005211020FCF7F3FA44E0A9
:1055C000EBE3FCF7CDFA04463C2C01D03E2C06D18F
:1055D0004FF0010B3C2C01D1FFF784FC36E0302C5E
:1055E00002D0312C2CD115E00020704981F86F00D9
:1055F000084690F86F0091F86D206D49103151F810
:10560000221001230022CDE9001005211020FCF713
:10561000C9FA16E00120654981F86F00084690F844
:105620006F0091F86D206249103151F8221001236A
:105630000022CDE9001005211020FCF7B3FA00E0AC
:1056400000BF00BF142006F07FF8BAE700BFC1E337
:10565000564890F87000554991F86D20544918311A
:1056600051F8221001230022CDE90010072110205B
:10567000FCF798FA45E0FCF773FA04463C2C01D09D
:105680003E2C06D14FF0010B3C2C01D1FFF72AFC38
:1056900038E0302C02D0312C2ED117E000204349C5
:1056A00081F87000084690F8700091F86D2040492C
:1056B000183151F8221001230022CDE900100721F2
:1056C0001020FCF76FFA18E07CE01DE0012037495C
:1056D00081F87000084690F8700091F86D20344908
:1056E000183151F8221001230022CDE900100721C2
:1056F0001020FCF757FA00E000BF00BF142006F0AE
:1057000023F8B8E700BF65E3284890F86D00274903
:1057100091F86D202649203151F8221001230022F2
:10572000CDE9001009211020FCF73CFA47E0FCF716
:1057300017FA04463C2C01D03E2C06D14FF0010B49
:105740003C2C01D1FFF7CEFB3AE0302C02D0312CBB
:1057500030D115E00020154981F86D00084690F819
:105760006D0091F86D201249203151F8221001236B
:105770000022CDE9001009211020FCF713FA1AE0ED
:1057800001200A4981F86D00084690F86D0091F8F3
:105790006D200749203151F8221001230022CDE964
:1057A000001009211020FCF7FDF904E0E8C00720F3
:1057B00068C1000000BF00BF142005F0C5FFB6E7B8
:1057C00000BF07E302E300200290FCF7DBF9FB488F
:1057D00090F86D10FA4850F8210000231A46194637
:1057E00000901846FCF7DEF902210020FCF7CEF904
:1057F000F448FCF703FDF3488079F249497900EB5E
:105800000120EE4991F86D20ED49083151F8221040
:1058100000231A46CDE9001003211020FCF7C2F93D
:10582000E8480079E54991F86D20E549103151F8D3
:10583000221000231A46CDE9001005211020FCF7A4
:10584000B1F9E048C078DD4991F86D20DC491831A4
:1058500051F8221000231A46CDE90010072110202C
:10586000FCF7A0F9D7488078D44991F86D20D44945
:10587000203151F8221000231A46CDE900100921E9
:105880001020FCF78FF9CF484078CC4991F86D2073
:10589000CB49283151F8221000231A46CDE90010D7
:1058A0000B211020FCF77EF9C44890F86D10C44815
:1058B000383050F8210000231A460E210090184677
:1058C000FCF770F97CE2FCF74BF904463C2C01D064
:1058D0003E2C06D14FF0010B3C2C01D1FFF702FB0F
:1058E0006FE2A4F14100052877D2DFE800F00379E8
:1058F000EBFEFD00B3488079B249497900EB012005
:10590000AE4991F86D20AE49083151F822100123BB
:105910000022CDE9001003211020FCF743F90025F7
:10592000002659E0FCF71CF904463C2C01D03E2C23
:105930000BD13C2C06D13012A24948718E71084619
:10594000FCF762FC0120029048E0302C41DB392C4E
:105950003FDC032D20DA05B900260423EF220321C2
:105960000020FCF701F9A4F1300006EB860100EB02
:10597000410086B2914890F86D109148083050F877
:105980002100012300220321CDE900061020FCF7AD
:1059900009F9681CC5B21CE00423EF220321002092
:1059A000FCF7E2F8A4F1300006EB860100EB4100C1
:1059B00086B2824890F86D108148083050F8210076
:1059C000012300220321CDE900061020FCF7EAF8AC
:1059D0000025142005F0B8FEA4E7E8E100BFE7E1E8
:1059E0000623EF2205210020FCF7BEF800277548AA
:1059F0000079724991F86D207149103151F82210E7
:105A000001230022CDE9001005211020FCF7CAF87F
:105A1000002554E0FCF7A4F804463C2C01D03E2CB1
:105A20000CD13C2C07D10C2F05DC012F03DB654882
:105A30000771FCF7E9FB0120029041E0302C3BDBD1
:105A4000392C39DCDDB900270623EF22052100209F
:105A5000FCF78AF8A4F13000C7B2584890F86D10EE
:105A60005748103050F82100012300220521CDE9CC
:105A700000071020FCF796F8681CC5B21CE006234E
:105A8000EF2205210020FCF76FF8A4F1300007EBAE
:105A9000870100EB4100C7B2484890F86D104848B4
:105AA000103050F82100012300220521CDE9000724
:105AB0001020FCF777F80025142005F045FEA9E733
:105AC00000BF75E10823EF2207210020FCF74CF806
:105AD0004FF000083B48C078384991F86D203849AC
